{
	"data": {
		"bytecode": {
			"linkReferences": {},
			"object": "6080604052620c350060065f6101000a81548163ffffffff021916908363ffffffff1602179055506003600660046101000a81548161ffff021916908361ffff160217905550348015610050575f5ffd5b506040516156793803806156798339818101604052810190610072919061063b565b8233805f5f73ffffffffffffffffffffffffffffffffffffffff168273ffffffffffffffffffffffffffffffffffffffff16036100e4576040517f08c379a00000000000000000000000000000000000000000000000000000000081526004016100db906106e5565b60405180910390fd5b815f5f6101000a81548173ffffffffffffffffffffffffffffffffffffffff021916908373ffffffffffffffffffffffffffffffffffffffff1602179055505f73ffffffffffffffffffffffffffffffffffffffff168173ffffffffffffffffffffffffffffffffffffffff1614610166576101658161044c60201b60201c565b5b5050505f73ffffffffffffffffffffffffffffffffffffffff168173ffffffffffffffffffffffffffffffffffffffff16036101ce576040517fd92e233d00000000000000000000000000000000000000000000000000000000815260040160405180910390fd5b8060025f6101000a81548173ffffffffffffffffffffffffffffffffffffffff021916908373ffffffffffffffffffffffffffffffffffffffff1602179055505081600581905550806004819055506005600f5f600160ff1681526020019081526020015f205f015f6101000a81548160ff021916908360ff1602179055506032600f5f600160ff1681526020019081526020015f205f0160016101000a81548160ff021916908360ff1602179055506402540be400600f5f600160ff1681526020019081526020015f2060010181905550603c600f5f600160ff1681526020019081526020015f206002015f600160ff1681526020019081526020015f205f6101000a81548160ff021916908360ff1602179055506014600f5f600160ff1681526020019081526020015f206002015f600260ff1681526020019081526020015f205f6101000a81548160ff021916908360ff160217905550600a600f5f600160ff1681526020019081526020015f206002015f600360ff1681526020019081526020015f205f6101000a81548160ff021916908360ff1602179055506003600f5f600260ff1681526020019081526020015f205f015f6101000a81548160ff021916908360ff1602179055506006600f5f600260ff1681526020019081526020015f205f0160016101000a81548160ff021916908360ff1602179055506402540be400600f5f600260ff1681526020019081526020015f2060010181905550600160035f3373ffffffffffffffffffffffffffffffffffffffff1673ffffffffffffffffffffffffffffffffffffffff1681526020019081526020015f205f6101000a81548160ff02191690831515021790555050505061076b565b3373ffffffffffffffffffffffffffffffffffffffff168173ffffffffffffffffffffffffffffffffffffffff16036104ba576040517f08c379a00000000000000000000000000000000000000000000000000000000081526004016104b19061074d565b60405180910390fd5b8060015f6101000a81548173ffffffffffffffffffffffffffffffffffffffff021916908373ffffffffffffffffffffffffffffffffffffffff1602179055508073ffffffffffffffffffffffffffffffffffffffff165f5f9054906101000a900473ffffffffffffffffffffffffffffffffffffffff1673ffffffffffffffffffffffffffffffffffffffff167fed8889f560326eb138920d842192f0eb3dd22b4f139c87a2c57538e05bae127860405160405180910390a350565b5f5ffd5b5f73ffffffffffffffffffffffffffffffffffffffff82169050919050565b5f6105a48261057b565b9050919050565b6105b48161059a565b81146105be575f5ffd5b50565b5f815190506105cf816105ab565b92915050565b5f819050919050565b6105e7816105d5565b81146105f1575f5ffd5b50565b5f81519050610602816105de565b92915050565b5f819050919050565b61061a81610608565b8114610624575f5ffd5b50565b5f8151905061063581610611565b92915050565b5f5f5f6060848603121561065257610651610577565b5b5f61065f868287016105c1565b9350506020610670868287016105f4565b925050604061068186828701610627565b9150509250925092565b5f82825260208201905092915050565b7f43616e6e6f7420736574206f776e657220746f207a65726f00000000000000005f82015250565b5f6106cf60188361068b565b91506106da8261069b565b602082019050919050565b5f6020820190508181035f8301526106fc816106c3565b9050919050565b7f43616e6e6f74207472616e7366657220746f2073656c660000000000000000005f82015250565b5f61073760178361068b565b915061074282610703565b602082019050919050565b5f6020820190508181035f8301526107648161072b565b9050919050565b614f01806107785f395ff3fe608060405260043610610165575f3560e01c80638ac00021116100d05780639870d7fe11610089578063c6b13a1d11610063578063c6b13a1d14610520578063e046b33114610548578063f26dbaf214610570578063f2fde38b146105ac57610165565b80639870d7fe146104a45780639eccacf6146104cc578063b0fb162f146104f657610165565b80638ac00021146103925780638da5cb5b146103bc5780638ea98117146103e65780638fc9e5d61461040e578063916f04ff1461044c57806391c798ad1461048857610165565b80632752ea0f116101225780632752ea0f146102865780634417f52a146102c457806361728f39146103005780636a5748571461032a5780636decafdd1461035457806379ba50971461037c57610165565b806301221ce11461016957806307f90e5d146101915780630ecd4db4146101bc57806313e7c9d8146101f85780631fe543e31461023457806324f746971461025c575b5f5ffd5b348015610174575f5ffd5b5061018f600480360381019061018a9190613339565b6105d4565b005b34801561019c575f5ffd5b506101a5610c16565b6040516101b39291906133e2565b60405180910390f35b3480156101c7575f5ffd5b506101e260048036038101906101dd9190613409565b610c33565b6040516101ef9190613507565b60405180910390f35b348015610203575f5ffd5b5061021e60048036038101906102199190613581565b610cf7565b60405161022b91906135c6565b60405180910390f35b34801561023f575f5ffd5b5061025a60048036038101906102559190613666565b610d14565b005b348015610267575f5ffd5b50610270610dd8565b60405161027d91906136e1565b60405180910390f35b348015610291575f5ffd5b506102ac60048036038101906102a79190613724565b610ded565b6040516102bb9392919061374f565b60405180910390f35b3480156102cf575f5ffd5b506102ea60048036038101906102e59190613409565b610e2b565b6040516102f791906135c6565b60405180910390f35b34801561030b575f5ffd5b50610314610e60565b604051610321919061379c565b60405180910390f35b348015610335575f5ffd5b5061033e610e66565b60405161034b919061396f565b60405180910390f35b34801561035f575f5ffd5b5061037a60048036038101906103759190613409565b611116565b005b348015610387575f5ffd5b506103906112a8565b005b34801561039d575f5ffd5b506103a6611437565b6040516103b3919061398f565b60405180910390f35b3480156103c7575f5ffd5b506103d061143d565b6040516103dd91906139b7565b60405180910390f35b3480156103f1575f5ffd5b5061040c60048036038101906104079190613581565b611464565b005b348015610419575f5ffd5b50610434600480360381019061042f9190613409565b611641565b6040516104439392919061374f565b60405180910390f35b348015610457575f5ffd5b50610472600480360381019061046d91906139d0565b611697565b60405161047f9190613a43565b60405180910390f35b6104a2600480360381019061049d9190613b23565b611732565b005b3480156104af575f5ffd5b506104ca60048036038101906104c59190613581565b611b03565b005b3480156104d7575f5ffd5b506104e0611be4565b6040516104ed9190613c22565b60405180910390f35b348015610501575f5ffd5b5061050a611c09565b6040516105179190613c57565b60405180910390f35b34801561052b575f5ffd5b5061054660048036038101906105419190613c70565b611c1d565b005b348015610553575f5ffd5b5061056e60048036038101906105699190613d61565b612072565b005b34801561057b575f5ffd5b5061059660048036038101906105919190613409565b6122d2565b6040516105a3919061396f565b60405180910390f35b3480156105b7575f5ffd5b506105d260048036038101906105cd9190613581565b61253e565b005b5f6009600201836040516105e89190613e14565b90815260200160405180910390205f9054906101000a900460ff1690505f60096001015f8360ff1660ff1681526020019081526020015f2090508060020160019054906101000a900460ff1615610674576040517f08c379a000000000000000000000000000000000000000000000000000000000815260040161066b90613e84565b60405180910390fd5b5f8160050180549050116106bd576040517f08c379a00000000000000000000000000000000000000000000000000000000081526004016106b490613eec565b60405180910390fd5b5f600d856040516106ce9190613e14565b90815260200160405180910390205f01846040516106ec9190613e14565b908152602001604051809103902090503373ffffffffffffffffffffffffffffffffffffffff16816001015f9054906101000a900473ffffffffffffffffffffffffffffffffffffffff1673ffffffffffffffffffffffffffffffffffffffff161461078d576040517f08c379a000000000000000000000000000000000000000000000000000000000815260040161078490613f54565b60405180910390fd5b8060010160149054906101000a900460ff16156107df576040517f08c379a00000000000000000000000000000000000000000000000000000000081526004016107d690613fbc565b60405180910390fd5b5f6108d1825f0180548060200260200160405190810160405280929190818152602001828054801561085257602002820191905f5260205f20905f905b82829054906101000a900460ff1660ff16815260200190600101906020825f0104928301926001038202915080841161081c5790505b5050505050846005018054806020026020016040519081016040528092919081815260200182805480156108c757602002820191905f5260205f20905f905b82829054906101000a900460ff1660ff16815260200190600101906020825f010492830192600103820291508084116108915790505b5050505050612552565b90505f5f90505f5f90506001856007015f9054906101000a900460ff1660ff1603610a585760058360ff160361096b57600191506064600e896040516109179190613e14565b90815260200160405180910390206002015f600160ff1681526020019081526020015f205f9054906101000a900460ff1660ff16866003015461095a9190614007565b6109649190614075565b9050610a53565b60048360ff16036109e057600191506064600e8960405161098c9190613e14565b90815260200160405180910390206002015f600260ff1681526020019081526020015f205f9054906101000a900460ff1660ff1686600301546109cf9190614007565b6109d99190614075565b9050610a52565b60038360ff1603610a5157600191506064600e89604051610a019190613e14565b90815260200160405180910390206002015f600360ff1681526020019081526020015f205f9054906101000a900460ff1660ff168660030154610a449190614007565b610a4e9190614075565b90505b5b5b610ae6565b6002856007015f9054906101000a900460ff1660ff1603610ae55760038360ff1603610ae457600191506064600e89604051610a949190613e14565b90815260200160405180910390206002015f600160ff1681526020019081526020015f205f9054906101000a900460ff1660ff168660030154610ad79190614007565b610ae19190614075565b90505b5b5b81610b26576040517f08c379a0000000000000000000000000000000000000000000000000000000008152600401610b1d906140ef565b60405180910390fd5b5f8111610b68576040517f08c379a0000000000000000000000000000000000000000000000000000000008152600401610b5f90614157565b60405180910390fd5b80471015610bab576040517f08c379a0000000000000000000000000000000000000000000000000000000008152600401610ba2906141e5565b60405180910390fd5b60018460010160146101000a81548160ff0219169083151502179055503373ffffffffffffffffffffffffffffffffffffffff166108fc8290811502906040515f60405180830381858888f19350505050158015610c0b573d5f5f3e3d5ffd5b505050505050505050565b6009805f015490806003015f9054906101000a900460ff16905082565b606060096001015f600960020184604051610c4e9190613e14565b90815260200160405180910390205f9054906101000a900460ff1660ff1660ff1681526020019081526020015f20600501805480602002602001604051908101604052809291908181526020018280548015610ceb57602002820191905f5260205f20905f905b82829054906101000a900460ff1660ff16815260200190600101906020825f01049283019260010382029150808411610cb55790505b50505050509050919050565b6003602052805f5260405f205f915054906101000a900460ff1681565b60025f9054906101000a900473ffffffffffffffffffffffffffffffffffffffff1673ffffffffffffffffffffffffffffffffffffffff163373ffffffffffffffffffffffffffffffffffffffff1614610dc8573360025f9054906101000a900473ffffffffffffffffffffffffffffffffffffffff166040517f1cf993f4000000000000000000000000000000000000000000000000000000008152600401610dbf929190614203565b60405180910390fd5b610dd3838383612602565b505050565b60065f9054906101000a900463ffffffff1681565b600f602052805f5260405f205f91509050805f015f9054906101000a900460ff1690805f0160019054906101000a900460ff16908060010154905083565b6008818051602081018201805184825260208301602085012081835280955050505050505f915054906101000a900460ff1681565b60055481565b610e6e6130bc565b5f60096003015f9054906101000a900460ff1660ff1611610ec4576040517f08c379a0000000000000000000000000000000000000000000000000000000008152600401610ebb90614274565b60405180910390fd5b60096001015f600160096003015f9054906101000a900460ff16610ee89190614292565b60ff1660ff1681526020019081526020015f20604051806101200160405290815f82018054610f16906142f3565b80601f0160208091040260200160405190810160405280929190818152602001828054610f42906142f3565b8015610f8d5780601f10610f6457610100808354040283529160200191610f8d565b820191905f5260205f20905b815481529060010190602001808311610f7057829003601f168201915b50505050508152602001600182018054610fa6906142f3565b80601f0160208091040260200160405190810160405280929190818152602001828054610fd2906142f3565b801561101d5780601f10610ff45761010080835404028352916020019161101d565b820191905f5260205f20905b81548152906001019060200180831161100057829003601f168201915b50505050508152602001600282015f9054906101000a900460ff1660ff1660ff1681526020016002820160019054906101000a900460ff161515151581526020016003820154815260200160048201548152602001600582018054806020026020016040519081016040528092919081815260200182805480156110e257602002820191905f5260205f20905f905b82829054906101000a900460ff1660ff16815260200190600101906020825f010492830192600103820291508084116110ac5790505b5050505050815260200160068201548152602001600782015f9054906101000a900460ff1660ff1660ff1681525050905090565b60035f3373ffffffffffffffffffffffffffffffffffffffff1673ffffffffffffffffffffffffffffffffffffffff1681526020019081526020015f205f9054906101000a900460ff1661119f576040517f08c379a00000000000000000000000000000000000000000000000000000000081526004016111969061436d565b60405180910390fd5b5f6009600201826040516111b39190613e14565b90815260200160405180910390205f9054906101000a900460ff1690505f60096003015f9054906101000a900460ff1660ff161480611209575060096003015f9054906101000a900460ff1660ff168160ff1610155b1561121457506112a5565b5f60096001015f8360ff1660ff1681526020019081526020015f2090508060020160019054906101000a900460ff168015611277575060088360405161125a9190613e14565b90815260200160405180910390205f9054906101000a900460ff16155b156112a257611285836128dc565b5f8160020160016101000a81548160ff0219169083151502179055505b50505b50565b60015f9054906101000a900473ffffffffffffffffffffffffffffffffffffffff1673ffffffffffffffffffffffffffffffffffffffff163373ffffffffffffffffffffffffffffffffffffffff1614611337576040517f08c379a000000000000000000000000000000000000000000000000000000000815260040161132e906143d5565b60405180910390fd5b5f5f5f9054906101000a900473ffffffffffffffffffffffffffffffffffffffff169050335f5f6101000a81548173ffffffffffffffffffffffffffffffffffffffff021916908373ffffffffffffffffffffffffffffffffffffffff1602179055505f60015f6101000a81548173ffffffffffffffffffffffffffffffffffffffff021916908373ffffffffffffffffffffffffffffffffffffffff1602179055503373ffffffffffffffffffffffffffffffffffffffff168173ffffffffffffffffffffffffffffffffffffffff167f8be0079c531659141344cd1fd0a4f28419497f9722a3daafe3b4186f6b6457e060405160405180910390a350565b60045481565b5f5f5f9054906101000a900473ffffffffffffffffffffffffffffffffffffffff16905090565b61146c61143d565b73ffffffffffffffffffffffffffffffffffffffff163373ffffffffffffffffffffffffffffffffffffffff16141580156114f4575060025f9054906101000a900473ffffffffffffffffffffffffffffffffffffffff1673ffffffffffffffffffffffffffffffffffffffff163373ffffffffffffffffffffffffffffffffffffffff1614155b15611562573361150261143d565b60025f9054906101000a900473ffffffffffffffffffffffffffffffffffffffff166040517f061db9c1000000000000000000000000000000000000000000000000000000008152600401611559939291906143f3565b60405180910390fd5b5f73ffffffffffffffffffffffffffffffffffffffff168173ffffffffffffffffffffffffffffffffffffffff16036115c7576040517fd92e233d00000000000000000000000000000000000000000000000000000000815260040160405180910390fd5b8060025f6101000a81548173ffffffffffffffffffffffffffffffffffffffff021916908373ffffffffffffffffffffffffffffffffffffffff1602179055507fd1a6a14209a385a964d036e404cb5cfb71f4000cdb03c9366292430787261be68160405161163691906139b7565b60405180910390a150565b600e818051602081018201805184825260208301602085012081835280955050505050505f91509050805f015f9054906101000a900460ff1690805f0160019054906101000a900460ff16908060010154905083565b6007602052805f5260405f205f9150905080546116b3906142f3565b80601f01602080910402602001604051908101604052809291908181526020018280546116df906142f3565b801561172a5780601f106117015761010080835404028352916020019161172a565b820191905f5260205f20905b81548152906001019060200180831161170d57829003601f168201915b505050505081565b5f61173c846122d2565b9050600e8460405161174e9190613e14565b90815260200160405180910390206001015434146117a1576040517f08c379a000000000000000000000000000000000000000000000000000000000815260040161179890614472565b60405180910390fd5b80606001516117e5576040517f08c379a00000000000000000000000000000000000000000000000000000000081526004016117dc906144da565b60405180910390fd5b600e846040516117f59190613e14565b90815260200160405180910390205f015f9054906101000a900460ff1660ff16825114611857576040517f08c379a000000000000000000000000000000000000000000000000000000000815260040161184e90614542565b60405180910390fd5b5f1515611865838451612b42565b1515146118a7576040517f08c379a000000000000000000000000000000000000000000000000000000000815260040161189e906145aa565b60405180910390fd5b6103848160e001516118b991906145c8565b4211156118fb576040517f08c379a00000000000000000000000000000000000000000000000000000000081526004016118f290614645565b60405180910390fd5b5f60405180606001604052808481526020013373ffffffffffffffffffffffffffffffffffffffff1681526020015f151581525090505f8360405160200161194391906146ef565b604051602081830303815290604052805190602001209050600d8660405161196b9190613e14565b90815260200160405180910390206001015f8281526020019081526020015f205f81819054906101000a900460ff16809291906119a790614705565b91906101000a81548160ff021916908360ff1602179055505081600d876040516119d19190613e14565b90815260200160405180910390205f01866040516119ef9190613e14565b90815260200160405180910390205f820151815f019080519060200190611a1792919061310a565b506020820151816001015f6101000a81548173ffffffffffffffffffffffffffffffffffffffff021916908373ffffffffffffffffffffffffffffffffffffffff16021790555060408201518160010160146101000a81548160ff0219169083151502179055509050503460096001015f600960020189604051611a9b9190613e14565b90815260200160405180910390205f9054906101000a900460ff1660ff1660ff1681526020019081526020015f206003015f828254611ada919061472d565b925050819055503460095f015f828254611af4919061472d565b92505081905550505050505050565b60035f3373ffffffffffffffffffffffffffffffffffffffff1673ffffffffffffffffffffffffffffffffffffffff1681526020019081526020015f205f9054906101000a900460ff16611b8c576040517f08c379a0000000000000000000000000000000000000000000000000000000008152600401611b839061436d565b60405180910390fd5b600160035f8373ffffffffffffffffffffffffffffffffffffffff1673ffffffffffffffffffffffffffffffffffffffff1681526020019081526020015f205f6101000a81548160ff02191690831515021790555050565b60025f9054906101000a900473ffffffffffffffffffffffffffffffffffffffff1681565b600660049054906101000a900461ffff1681565b60035f3373ffffffffffffffffffffffffffffffffffffffff1673ffffffffffffffffffffffffffffffffffffffff1681526020019081526020015f205f9054906101000a900460ff16611ca6576040517f08c379a0000000000000000000000000000000000000000000000000000000008152600401611c9d9061436d565b60405180910390fd5b611caf83611116565b60605f60405180610120016040528086815260200187815260200160096003015f9054906101000a900460ff1660ff1681526020016001151581526020015f81526020015f81526020018381526020018581526020018460ff1681525090508060096001015f60096003015f9054906101000a900460ff1660ff1660ff1681526020019081526020015f205f820151815f019081611d4d91906148f7565b506020820151816001019081611d6391906148f7565b506040820151816002015f6101000a81548160ff021916908360ff16021790555060608201518160020160016101000a81548160ff0219169083151502179055506080820151816003015560a0820151816004015560c0820151816005019080519060200190611dd492919061310a565b5060e08201518160060155610100820151816007015f6101000a81548160ff021916908360ff16021790555090505060096003015f9054906101000a900460ff16600960020187604051611e289190613e14565b90815260200160405180910390205f6101000a81548160ff021916908360ff160217905550600f5f8460ff1660ff1681526020019081526020015f205f015f9054906101000a900460ff16600e87604051611e839190613e14565b90815260200160405180910390205f015f6101000a81548160ff021916908360ff160217905550600f5f8460ff1660ff1681526020019081526020015f205f0160019054906101000a900460ff16600e87604051611ee19190613e14565b90815260200160405180910390205f0160016101000a81548160ff021916908360ff160217905550600f5f8460ff1660ff1681526020019081526020015f2060010154600e87604051611f349190613e14565b9081526020016040518091039020600101819055505f5f90505b5f600f5f8660ff1660ff1681526020019081526020015f206002015f8360ff1660ff1681526020019081526020015f205f9054906101000a900460ff1660ff161461202f57600f5f8560ff1660ff1681526020019081526020015f206002015f8260ff1660ff1681526020019081526020015f205f9054906101000a900460ff16600e88604051611fdf9190613e14565b90815260200160405180910390206002015f8360ff1660ff1681526020019081526020015f205f6101000a81548160ff021916908360ff160217905550808061202790614705565b915050611f4e565b60096003015f81819054906101000a900460ff168092919061205090614705565b91906101000a81548160ff021916908360ff1602179055505050505050505050565b60035f3373ffffffffffffffffffffffffffffffffffffffff1673ffffffffffffffffffffffffffffffffffffffff1681526020019081526020015f205f9054906101000a900460ff166120fb576040517f08c379a00000000000000000000000000000000000000000000000000000000081526004016120f29061436d565b60405180910390fd5b5f60096002018460405161210f9190613e14565b90815260200160405180910390205f9054906101000a900460ff16905060096003015f9054906101000a900460ff1660ff168160ff1610612185576040517f08c379a000000000000000000000000000000000000000000000000000000000815260040161217c90614a10565b60405180910390fd5b5f60096001015f8360ff1660ff1681526020019081526020015f2090505f8160020160016101000a81548160ff021916908315150217905550600e856040516121ce9190613e14565b90815260200160405180910390205f015f9054906101000a900460ff1660ff168484905014612232576040517f08c379a000000000000000000000000000000000000000000000000000000000815260040161222990614a78565b60405180910390fd5b806005015f61224191906131ac565b5f5f90505b848490508110156122ca578160050185858381811061226857612267614a96565b5b905060200201602081019061227d9190613724565b908060018154018082558091505060019003905f5260205f2090602091828204019190069091909190916101000a81548160ff021916908360ff1602179055508080600101915050612246565b505050505050565b6122da6130bc565b60096001015f6009600201846040516122f39190613e14565b90815260200160405180910390205f9054906101000a900460ff1660ff1660ff1681526020019081526020015f20604051806101200160405290815f8201805461233c906142f3565b80601f0160208091040260200160405190810160405280929190818152602001828054612368906142f3565b80156123b35780601f1061238a576101008083540402835291602001916123b3565b820191905f5260205f20905b81548152906001019060200180831161239657829003601f168201915b505050505081526020016001820180546123cc906142f3565b80601f01602080910402602001604051908101604052809291908181526020018280546123f8906142f3565b80156124435780601f1061241a57610100808354040283529160200191612443565b820191905f5260205f20905b81548152906001019060200180831161242657829003601f168201915b50505050508152602001600282015f9054906101000a900460ff1660ff1660ff1681526020016002820160019054906101000a900460ff1615151515815260200160038201548152602001600482015481526020016005820180548060200260200160405190810160405280929190818152602001828054801561250857602002820191905f5260205f20905f905b82829054906101000a900460ff1660ff16815260200190600101906020825f010492830192600103820291508084116124d25790505b5050505050815260200160068201548152602001600782015f9054906101000a900460ff1660ff1660ff16815250509050919050565b612546612c25565b61254f81612cb5565b50565b5f5f5f5f90505b84518160ff1610156125f7575f5f90505b84518160ff1610156125e357848160ff168151811061258c5761258b614a96565b5b602002602001015160ff16868360ff16815181106125ad576125ac614a96565b5b602002602001015160ff16036125d05782806125c890614705565b9350506125e3565b80806125db90614705565b91505061256a565b5080806125ef90614705565b915050612559565b508091505092915050565b5f60075f8581526020019081526020015f20805461261f906142f3565b80601f016020809104026020016040519081016040528092919081815260200182805461264b906142f3565b80156126965780601f1061266d57610100808354040283529160200191612696565b820191905f5260205f20905b81548152906001019060200180831161267957829003601f168201915b505050505090505f8151036126e0576040517f08c379a00000000000000000000000000000000000000000000000000000000081526004016126d790614b0d565b60405180910390fd5b5f6009600201826040516126f49190613e14565b90815260200160405180910390205f9054906101000a900460ff1690505f60096001015f8360ff1660ff1681526020019081526020015f2090505f600e8460405161273f9190613e14565b90815260200160405180910390205f015f9054906101000a900460ff1690505f600e8560405161276f9190613e14565b90815260200160405180910390205f0160019054906101000a900460ff1690505f8260ff1667ffffffffffffffff8111156127ad576127ac613215565b5b6040519080825280602002602001820160405280156127db5781602001602082028036833780820191505090505b5090505f88885f8181106127f2576127f1614a96565b5b9050602002013590505f5f90505b8460ff168160ff16101561289f575f5b60018560ff1684846040516020016128299291906133e2565b604051602081830303815290604052805190602001205f1c61284b9190614b2b565b6128559190614b5b565b9050612862848383612de0565b6128105780848360ff168151811061287d5761287c614a96565b5b602002602001019060ff16908160ff1681525050508080600101915050612800565b506128b7825f6001876128b29190614292565b612e41565b818560050190805190602001906128cf92919061310a565b5050505050505050505050565b6008816040516128ec9190613e14565b90815260200160405180910390205f9054906101000a900460ff1615612947576040517f08c379a000000000000000000000000000000000000000000000000000000000815260040161293e90614bd9565b60405180910390fd5b5f60096002018260405161295b9190613e14565b90815260200160405180910390205f9054906101000a900460ff16905060096003015f9054906101000a900460ff1660ff168160ff16106129d1576040517f08c379a00000000000000000000000000000000000000000000000000000000081526004016129c890614c41565b60405180910390fd5b5f60025f9054906101000a900473ffffffffffffffffffffffffffffffffffffffff1673ffffffffffffffffffffffffffffffffffffffff16639b1c385e6040518060c0016040528060055481526020016004548152602001600660049054906101000a900461ffff1661ffff16815260200160065f9054906101000a900463ffffffff1663ffffffff168152602001600163ffffffff168152602001612a8760405180602001604052805f1515815250613024565b8152506040518263ffffffff1660e01b8152600401612aa69190614d12565b6020604051808303815f875af1158015612ac2573d5f5f3e3d5ffd5b505050506040513d601f19601f82011682018060405250810190612ae69190614d46565b90508260075f8381526020019081526020015f209081612b0691906148f7565b506001600884604051612b199190613e14565b90815260200160405180910390205f6101000a81548160ff021916908315150217905550505050565b5f5f5f90505b600183612b559190614292565b60ff168160ff161015612c1a575f600182612b709190614b5b565b90505b8360ff168160ff161015612c0c57848160ff1681518110612b9757612b96614a96565b5b602002602001015160ff16858360ff1681518110612bb857612bb7614a96565b5b602002602001015160ff16148015612bef57505f858260ff1681518110612be257612be1614a96565b5b602002602001015160ff16115b15612bff57600192505050612c1f565b8080600101915050612b73565b508080600101915050612b48565b505f90505b92915050565b5f5f9054906101000a900473ffffffffffffffffffffffffffffffffffffffff1673ffffffffffffffffffffffffffffffffffffffff163373ffffffffffffffffffffffffffffffffffffffff1614612cb3576040517f08c379a0000000000000000000000000000000000000000000000000000000008152600401612caa90614dbb565b60405180910390fd5b565b3373ffffffffffffffffffffffffffffffffffffffff168173ffffffffffffffffffffffffffffffffffffffff1603612d23576040517f08c379a0000000000000000000000000000000000000000000000000000000008152600401612d1a90614e23565b60405180910390fd5b8060015f6101000a81548173ffffffffffffffffffffffffffffffffffffffff021916908373ffffffffffffffffffffffffffffffffffffffff1602179055508073ffffffffffffffffffffffffffffffffffffffff165f5f9054906101000a900473ffffffffffffffffffffffffffffffffffffffff1673ffffffffffffffffffffffffffffffffffffffff167fed8889f560326eb138920d842192f0eb3dd22b4f139c87a2c57538e05bae127860405160405180910390a350565b5f5f5f90505b8360ff168160ff161015612e35578260ff16858260ff1681518110612e0e57612e0d614a96565b5b602002602001015160ff1603612e28576001915050612e3a565b8080600101915050612de6565b505f90505b9392505050565b5f8290505f8290508060ff168260ff1603612e5d57505061301f565b5f8560028686612e6d9190614292565b612e779190614e41565b86612e829190614b5b565b60ff1681518110612e9657612e95614a96565b5b602002602001015190505b8160ff168360ff1611612fe7575b8060ff16868460ff1681518110612ec957612ec8614a96565b5b602002602001015160ff161015612eed578280612ee590614705565b935050612eaf565b5b858260ff1681518110612f0457612f03614a96565b5b602002602001015160ff168160ff161015612f2c578180612f2490614e71565b925050612eee565b8160ff168360ff1611612fe257858260ff1681518110612f4f57612f4e614a96565b5b6020026020010151868460ff1681518110612f6d57612f6c614a96565b5b6020026020010151878560ff1681518110612f8b57612f8a614a96565b5b60200260200101888560ff1681518110612fa857612fa7614a96565b5b602002602001018260ff1660ff168152508260ff1660ff1681525050508280612fd090614705565b9350508180612fde90614e71565b9250505b612ea1565b8160ff168560ff16101561300157613000868684612e41565b5b8360ff168360ff16101561301b5761301a868486612e41565b5b5050505b505050565b60607f92fd13387c7fe7befbc38d303d6468778fb9731bc4583f17d92989c6fcfdeaaa826040516024016130589190614eb2565b604051602081830303815290604052907bffffffffffffffffffffffffffffffffffffffffffffffffffffffff19166020820180517bffffffffffffffffffffffffffffffffffffffffffffffffffffffff83818316178352505050509050919050565b60405180610120016040528060608152602001606081526020015f60ff1681526020015f151581526020015f81526020015f8152602001606081526020015f81526020015f60ff1681525090565b828054828255905f5260205f2090601f0160209004810192821561319b579160200282015f5b8382111561316d57835183826101000a81548160ff021916908360ff16021790555092602001926001016020815f01049283019260010302613130565b80156131995782816101000a81549060ff02191690556001016020815f0104928301926001030261316d565b505b5090506131a891906131d1565b5090565b5080545f8255601f0160209004905f5260205f20908101906131ce91906131d1565b50565b5b808211156131e8575f815f9055506001016131d2565b5090565b5f604051905090565b5f5ffd5b5f5ffd5b5f5ffd5b5f5ffd5b5f601f19601f8301169050919050565b7f4e487b71000000000000000000000000000000000000000000000000000000005f52604160045260245ffd5b61324b82613205565b810181811067ffffffffffffffff8211171561326a57613269613215565b5b80604052505050565b5f61327c6131ec565b90506132888282613242565b919050565b5f67ffffffffffffffff8211156132a7576132a6613215565b5b6132b082613205565b9050602081019050919050565b828183375f83830152505050565b5f6132dd6132d88461328d565b613273565b9050828152602081018484840111156132f9576132f8613201565b5b6133048482856132bd565b509392505050565b5f82601f8301126133205761331f6131fd565b5b81356133308482602086016132cb565b91505092915050565b5f5f6040838503121561334f5761334e6131f5565b5b5f83013567ffffffffffffffff81111561336c5761336b6131f9565b5b6133788582860161330c565b925050602083013567ffffffffffffffff811115613399576133986131f9565b5b6133a58582860161330c565b9150509250929050565b5f819050919050565b6133c1816133af565b82525050565b5f60ff82169050919050565b6133dc816133c7565b82525050565b5f6040820190506133f55f8301856133b8565b61340260208301846133d3565b9392505050565b5f6020828403121561341e5761341d6131f5565b5b5f82013567ffffffffffffffff81111561343b5761343a6131f9565b5b6134478482850161330c565b91505092915050565b5f81519050919050565b5f82825260208201905092915050565b5f819050602082019050919050565b613482816133c7565b82525050565b5f6134938383613479565b60208301905092915050565b5f602082019050919050565b5f6134b582613450565b6134bf818561345a565b93506134ca8361346a565b805f5b838110156134fa5781516134e18882613488565b97506134ec8361349f565b9250506001810190506134cd565b5085935050505092915050565b5f6020820190508181035f83015261351f81846134ab565b905092915050565b5f73ffffffffffffffffffffffffffffffffffffffff82169050919050565b5f61355082613527565b9050919050565b61356081613546565b811461356a575f5ffd5b50565b5f8135905061357b81613557565b92915050565b5f60208284031215613596576135956131f5565b5b5f6135a38482850161356d565b91505092915050565b5f8115159050919050565b6135c0816135ac565b82525050565b5f6020820190506135d95f8301846135b7565b92915050565b6135e8816133af565b81146135f2575f5ffd5b50565b5f81359050613603816135df565b92915050565b5f5ffd5b5f5ffd5b5f5f83601f840112613626576136256131fd565b5b8235905067ffffffffffffffff81111561364357613642613609565b5b60208301915083602082028301111561365f5761365e61360d565b5b9250929050565b5f5f5f6040848603121561367d5761367c6131f5565b5b5f61368a868287016135f5565b935050602084013567ffffffffffffffff8111156136ab576136aa6131f9565b5b6136b786828701613611565b92509250509250925092565b5f63ffffffff82169050919050565b6136db816136c3565b82525050565b5f6020820190506136f45f8301846136d2565b92915050565b613703816133c7565b811461370d575f5ffd5b50565b5f8135905061371e816136fa565b92915050565b5f60208284031215613739576137386131f5565b5b5f61374684828501613710565b91505092915050565b5f6060820190506137625f8301866133d3565b61376f60208301856133d3565b61377c60408301846133b8565b949350505050565b5f819050919050565b61379681613784565b82525050565b5f6020820190506137af5f83018461378d565b92915050565b5f81519050919050565b5f82825260208201905092915050565b8281835e5f83830152505050565b5f6137e7826137b5565b6137f181856137bf565b93506138018185602086016137cf565b61380a81613205565b840191505092915050565b61381e816135ac565b82525050565b61382d816133af565b82525050565b5f82825260208201905092915050565b5f61384d82613450565b6138578185613833565b93506138628361346a565b805f5b838110156138925781516138798882613488565b97506138848361349f565b925050600181019050613865565b5085935050505092915050565b5f61012083015f8301518482035f8601526138ba82826137dd565b915050602083015184820360208601526138d482826137dd565b91505060408301516138e96040860182613479565b5060608301516138fc6060860182613815565b50608083015161390f6080860182613824565b5060a083015161392260a0860182613824565b5060c083015184820360c086015261393a8282613843565b91505060e083015161394f60e0860182613824565b50610100830151613964610100860182613479565b508091505092915050565b5f6020820190508181035f830152613987818461389f565b905092915050565b5f6020820190506139a25f8301846133b8565b92915050565b6139b181613546565b82525050565b5f6020820190506139ca5f8301846139a8565b92915050565b5f602082840312156139e5576139e46131f5565b5b5f6139f2848285016135f5565b91505092915050565b5f82825260208201905092915050565b5f613a15826137b5565b613a1f81856139fb565b9350613a2f8185602086016137cf565b613a3881613205565b840191505092915050565b5f6020820190508181035f830152613a5b8184613a0b565b905092915050565b5f67ffffffffffffffff821115613a7d57613a7c613215565b5b602082029050602081019050919050565b5f613aa0613a9b84613a63565b613273565b90508083825260208201905060208402830185811115613ac357613ac261360d565b5b835b81811015613aec5780613ad88882613710565b845260208401935050602081019050613ac5565b5050509392505050565b5f82601f830112613b0a57613b096131fd565b5b8135613b1a848260208601613a8e565b91505092915050565b5f5f5f60608486031215613b3a57613b396131f5565b5b5f84013567ffffffffffffffff811115613b5757613b566131f9565b5b613b638682870161330c565b935050602084013567ffffffffffffffff811115613b8457613b836131f9565b5b613b908682870161330c565b925050604084013567ffffffffffffffff811115613bb157613bb06131f9565b5b613bbd86828701613af6565b9150509250925092565b5f819050919050565b5f613bea613be5613be084613527565b613bc7565b613527565b9050919050565b5f613bfb82613bd0565b9050919050565b5f613c0c82613bf1565b9050919050565b613c1c81613c02565b82525050565b5f602082019050613c355f830184613c13565b92915050565b5f61ffff82169050919050565b613c5181613c3b565b82525050565b5f602082019050613c6a5f830184613c48565b92915050565b5f5f5f5f60808587031215613c8857613c876131f5565b5b5f85013567ffffffffffffffff811115613ca557613ca46131f9565b5b613cb18782880161330c565b945050602085013567ffffffffffffffff811115613cd257613cd16131f9565b5b613cde8782880161330c565b9350506040613cef878288016135f5565b9250506060613d0087828801613710565b91505092959194509250565b5f5f83601f840112613d2157613d206131fd565b5b8235905067ffffffffffffffff811115613d3e57613d3d613609565b5b602083019150836020820283011115613d5a57613d5961360d565b5b9250929050565b5f5f5f60408486031215613d7857613d776131f5565b5b5f84013567ffffffffffffffff811115613d9557613d946131f9565b5b613da18682870161330c565b935050602084013567ffffffffffffffff811115613dc257613dc16131f9565b5b613dce86828701613d0c565b92509250509250925092565b5f81905092915050565b5f613dee826137b5565b613df88185613dda565b9350613e088185602086016137cf565b80840191505092915050565b5f613e1f8284613de4565b915081905092915050565b5f82825260208201905092915050565b7f4c6f7474657279206973207374696c6c206163746976650000000000000000005f82015250565b5f613e6e601783613e2a565b9150613e7982613e3a565b602082019050919050565b5f6020820190508181035f830152613e9b81613e62565b9050919050565b7f526573756c74206e6f74207265616479207965740000000000000000000000005f82015250565b5f613ed6601483613e2a565b9150613ee182613ea2565b602082019050919050565b5f6020820190508181035f830152613f0381613eca565b9050919050565b7f596f7520617265206e6f7420746865207469636b6574206f776e6572000000005f82015250565b5f613f3e601c83613e2a565b9150613f4982613f0a565b602082019050919050565b5f6020820190508181035f830152613f6b81613f32565b9050919050565b7f52657761726420616c726561647920636c61696d6564000000000000000000005f82015250565b5f613fa6601683613e2a565b9150613fb182613f72565b602082019050919050565b5f6020820190508181035f830152613fd381613f9a565b9050919050565b7f4e487b71000000000000000000000000000000000000000000000000000000005f52601160045260245ffd5b5f614011826133af565b915061401c836133af565b925082820261402a816133af565b9150828204841483151761404157614040613fda565b5b5092915050565b7f4e487b71000000000000000000000000000000000000000000000000000000005f52601260045260245ffd5b5f61407f826133af565b915061408a836133af565b92508261409a57614099614048565b5b828204905092915050565b7f536f7272792c2074686973207469636b657420646964206e6f742077696e00005f82015250565b5f6140d9601e83613e2a565b91506140e4826140a5565b602082019050919050565b5f6020820190508181035f830152614106816140cd565b9050919050565b7f52657761726420616d6f756e74206973207a65726f00000000000000000000005f82015250565b5f614141601583613e2a565b915061414c8261410d565b602082019050919050565b5f6020820190508181035f83015261416e81614135565b9050919050565b7f436f6e74726163742068617320696e73756666696369656e742062616c616e635f8201527f6500000000000000000000000000000000000000000000000000000000000000602082015250565b5f6141cf602183613e2a565b91506141da82614175565b604082019050919050565b5f6020820190508181035f8301526141fc816141c3565b9050919050565b5f6040820190506142165f8301856139a8565b61422360208301846139a8565b9392505050565b7f4e6f206c6f7474657279000000000000000000000000000000000000000000005f82015250565b5f61425e600a83613e2a565b91506142698261422a565b602082019050919050565b5f6020820190508181035f83015261428b81614252565b9050919050565b5f61429c826133c7565b91506142a7836133c7565b9250828203905060ff8111156142c0576142bf613fda565b5b92915050565b7f4e487b71000000000000000000000000000000000000000000000000000000005f52602260045260245ffd5b5f600282049050600182168061430a57607f821691505b60208210810361431d5761431c6142c6565b5b50919050565b7f5065726d697373696f6e207265717569726564000000000000000000000000005f82015250565b5f614357601383613e2a565b915061436282614323565b602082019050919050565b5f6020820190508181035f8301526143848161434b565b9050919050565b7f4d7573742062652070726f706f736564206f776e6572000000000000000000005f82015250565b5f6143bf601683613e2a565b91506143ca8261438b565b602082019050919050565b5f6020820190508181035f8301526143ec816143b3565b9050919050565b5f6060820190506144065f8301866139a8565b61441360208301856139a8565b61442060408301846139a8565b949350505050565b7f57726f6e672070726963650000000000000000000000000000000000000000005f82015250565b5f61445c600b83613e2a565b915061446782614428565b602082019050919050565b5f6020820190508181035f83015261448981614450565b9050919050565b7f4c6f747465727920696e616374697665000000000000000000000000000000005f82015250565b5f6144c4601083613e2a565b91506144cf82614490565b602082019050919050565b5f6020820190508181035f8301526144f1816144b8565b9050919050565b7f496e76616c6964206e756d6265727300000000000000000000000000000000005f82015250565b5f61452c600f83613e2a565b9150614537826144f8565b602082019050919050565b5f6020820190508181035f83015261455981614520565b9050919050565b7f4475706c696361746564206e756d6265727300000000000000000000000000005f82015250565b5f614594601283613e2a565b915061459f82614560565b602082019050919050565b5f6020820190508181035f8301526145c181614588565b9050919050565b5f6145d2826133af565b91506145dd836133af565b92508282039050818111156145f5576145f4613fda565b5b92915050565b7f4c6f747465727920636c6f7365640000000000000000000000000000000000005f82015250565b5f61462f600e83613e2a565b915061463a826145fb565b602082019050919050565b5f6020820190508181035f83015261465c81614623565b9050919050565b5f81905092915050565b614676816133c7565b82525050565b5f614687838361466d565b60208301905092915050565b5f61469d82613450565b6146a78185614663565b93506146b28361346a565b805f5b838110156146e25781516146c9888261467c565b97506146d48361349f565b9250506001810190506146b5565b5085935050505092915050565b5f6146fa8284614693565b915081905092915050565b5f61470f826133c7565b915060ff820361472257614721613fda565b5b600182019050919050565b5f614737826133af565b9150614742836133af565b925082820190508082111561475a57614759613fda565b5b92915050565b5f819050815f5260205f209050919050565b5f6020601f8301049050919050565b5f82821b905092915050565b5f600883026147bc7fffffffffffffffffffffffffffffffffffffffffffffffffffffffffffffffff82614781565b6147c68683614781565b95508019841693508086168417925050509392505050565b5f6147f86147f36147ee846133af565b613bc7565b6133af565b9050919050565b5f819050919050565b614811836147de565b61482561481d826147ff565b84845461478d565b825550505050565b5f5f905090565b61483c61482d565b614847818484614808565b505050565b5b8181101561486a5761485f5f82614834565b60018101905061484d565b5050565b601f8211156148af5761488081614760565b61488984614772565b81016020851015614898578190505b6148ac6148a485614772565b83018261484c565b50505b505050565b5f82821c905092915050565b5f6148cf5f19846008026148b4565b1980831691505092915050565b5f6148e783836148c0565b9150826002028217905092915050565b614900826137b5565b67ffffffffffffffff81111561491957614918613215565b5b61492382546142f3565b61492e82828561486e565b5f60209050601f83116001811461495f575f841561494d578287015190505b61495785826148dc565b8655506149be565b601f19841661496d86614760565b5f5b828110156149945784890151825560018201915060208501945060208101905061496f565b868310156149b157848901516149ad601f8916826148c0565b8355505b6001600288020188555050505b505050505050565b7f496e76616c6964206c6f747465727920696400000000000000000000000000005f82015250565b5f6149fa601283613e2a565b9150614a05826149c6565b602082019050919050565b5f6020820190508181035f830152614a27816149ee565b9050919050565b7f496e76616c696420726573756c74206c656e67746800000000000000000000005f82015250565b5f614a62601583613e2a565b9150614a6d82614a2e565b602082019050919050565b5f6020820190508181035f830152614a8f81614a56565b9050919050565b7f4e487b71000000000000000000000000000000000000000000000000000000005f52603260045260245ffd5b7f556e6b6e6f776e207265717565737400000000000000000000000000000000005f82015250565b5f614af7600f83613e2a565b9150614b0282614ac3565b602082019050919050565b5f6020820190508181035f830152614b2481614aeb565b9050919050565b5f614b35826133af565b9150614b40836133af565b925082614b5057614b4f614048565b5b828206905092915050565b5f614b65826133c7565b9150614b70836133c7565b9250828201905060ff811115614b8957614b88613fda565b5b92915050565b7f416c7265616479207265717565737465640000000000000000000000000000005f82015250565b5f614bc3601183613e2a565b9150614bce82614b8f565b602082019050919050565b5f6020820190508181035f830152614bf081614bb7565b9050919050565b7f496e76616c6964206c6f747465727900000000000000000000000000000000005f82015250565b5f614c2b600f83613e2a565b9150614c3682614bf7565b602082019050919050565b5f6020820190508181035f830152614c5881614c1f565b9050919050565b614c6881613784565b82525050565b614c7781613c3b565b82525050565b614c86816136c3565b82525050565b5f60c083015f830151614ca15f860182614c5f565b506020830151614cb46020860182613824565b506040830151614cc76040860182614c6e565b506060830151614cda6060860182614c7d565b506080830151614ced6080860182614c7d565b5060a083015184820360a0860152614d0582826137dd565b9150508091505092915050565b5f6020820190508181035f830152614d2a8184614c8c565b905092915050565b5f81519050614d40816135df565b92915050565b5f60208284031215614d5b57614d5a6131f5565b5b5f614d6884828501614d32565b91505092915050565b7f4f6e6c792063616c6c61626c65206279206f776e6572000000000000000000005f82015250565b5f614da5601683613e2a565b9150614db082614d71565b602082019050919050565b5f6020820190508181035f830152614dd281614d99565b9050919050565b7f43616e6e6f74207472616e7366657220746f2073656c660000000000000000005f82015250565b5f614e0d601783613e2a565b9150614e1882614dd9565b602082019050919050565b5f6020820190508181035f830152614e3a81614e01565b9050919050565b5f614e4b826133c7565b9150614e56836133c7565b925082614e6657614e65614048565b5b828204905092915050565b5f614e7b826133c7565b91505f8203614e8d57614e8c613fda565b5b600182039050919050565b602082015f820151614eac5f850182613815565b50505050565b5f602082019050614ec55f830184614e98565b9291505056fea264697066735822122038d9835dec3299ca6e01e1dbbfa4262d9447794d1de8aed033a13286132e255064736f6c634300081f0033",
			"opcodes": "PUSH1 0x80 PUSH1 0x40 MSTORE PUSH3 0xC3500 PUSH1 0x6 PUSH0 PUSH2 0x100 EXP DUP2 SLOAD DUP2 PUSH4 0xFFFFFFFF MUL NOT AND SWAP1 DUP4 PUSH4 0xFFFFFFFF AND MUL OR SWAP1 SSTORE POP PUSH1 0x3 PUSH1 0x6 PUSH1 0x4 PUSH2 0x100 EXP DUP2 SLOAD DUP2 PUSH2 0xFFFF MUL NOT AND SWAP1 DUP4 PUSH2 0xFFFF AND MUL OR SWAP1 SSTORE POP CALLVALUE DUP1 ISZERO PUSH2 0x50 JUMPI PUSH0 PUSH0 REVERT JUMPDEST POP PUSH1 0x40 MLOAD PUSH2 0x5679 CODESIZE SUB DUP1 PUSH2 0x5679 DUP4 CODECOPY DUP2 DUP2 ADD PUSH1 0x40 MSTORE DUP2 ADD SWAP1 PUSH2 0x72 SWAP2 SWAP1 PUSH2 0x63B JUMP JUMPDEST DUP3 CALLER DUP1 PUSH0 PUSH0 PUSH20 0xFFFFFFFFFFFFFFFFFFFFFFFFFFFFFFFFFFFFFFFF AND DUP3 PUSH20 0xFFFFFFFFFFFFFFFFFFFFFFFFFFFFFFFFFFFFFFFF AND SUB PUSH2 0xE4 JUMPI PUSH1 0x40 MLOAD PUSH32 0x8C379A000000000000000000000000000000000000000000000000000000000 DUP2 MSTORE PUSH1 0x4 ADD PUSH2 0xDB SWAP1 PUSH2 0x6E5 JUMP JUMPDEST PUSH1 0x40 MLOAD DUP1 SWAP2 SUB SWAP1 REVERT JUMPDEST DUP2 PUSH0 PUSH0 PUSH2 0x100 EXP DUP2 SLOAD DUP2 PUSH20 0xFFFFFFFFFFFFFFFFFFFFFFFFFFFFFFFFFFFFFFFF MUL NOT AND SWAP1 DUP4 PUSH20 0xFFFFFFFFFFFFFFFFFFFFFFFFFFFFFFFFFFFFFFFF AND MUL OR SWAP1 SSTORE POP PUSH0 PUSH20 0xFFFFFFFFFFFFFFFFFFFFFFFFFFFFFFFFFFFFFFFF AND DUP2 PUSH20 0xFFFFFFFFFFFFFFFFFFFFFFFFFFFFFFFFFFFFFFFF AND EQ PUSH2 0x166 JUMPI PUSH2 0x165 DUP2 PUSH2 0x44C PUSH1 0x20 SHL PUSH1 0x20 SHR JUMP JUMPDEST JUMPDEST POP POP POP PUSH0 PUSH20 0xFFFFFFFFFFFFFFFFFFFFFFFFFFFFFFFFFFFFFFFF AND DUP2 PUSH20 0xFFFFFFFFFFFFFFFFFFFFFFFFFFFFFFFFFFFFFFFF AND SUB PUSH2 0x1CE JUMPI PUSH1 0x40 MLOAD PUSH32 0xD92E233D00000000000000000000000000000000000000000000000000000000 DUP2 MSTORE PUSH1 0x4 ADD PUSH1 0x40 MLOAD DUP1 SWAP2 SUB SWAP1 REVERT JUMPDEST DUP1 PUSH1 0x2 PUSH0 PUSH2 0x100 EXP DUP2 SLOAD DUP2 PUSH20 0xFFFFFFFFFFFFFFFFFFFFFFFFFFFFFFFFFFFFFFFF MUL NOT AND SWAP1 DUP4 PUSH20 0xFFFFFFFFFFFFFFFFFFFFFFFFFFFFFFFFFFFFFFFF AND MUL OR SWAP1 SSTORE POP POP DUP2 PUSH1 0x5 DUP2 SWAP1 SSTORE POP DUP1 PUSH1 0x4 DUP2 SWAP1 SSTORE POP PUSH1 0x5 PUSH1 0xF PUSH0 PUSH1 0x1 PUSH1 0xFF AND DUP2 MSTORE PUSH1 0x20 ADD SWAP1 DUP2 MSTORE PUSH1 0x20 ADD PUSH0 KECCAK256 PUSH0 ADD PUSH0 PUSH2 0x100 EXP DUP2 SLOAD DUP2 PUSH1 0xFF MUL NOT AND SWAP1 DUP4 PUSH1 0xFF AND MUL OR SWAP1 SSTORE POP PUSH1 0x32 PUSH1 0xF PUSH0 PUSH1 0x1 PUSH1 0xFF AND DUP2 MSTORE PUSH1 0x20 ADD SWAP1 DUP2 MSTORE PUSH1 0x20 ADD PUSH0 KECCAK256 PUSH0 ADD PUSH1 0x1 PUSH2 0x100 EXP DUP2 SLOAD DUP2 PUSH1 0xFF MUL NOT AND SWAP1 DUP4 PUSH1 0xFF AND MUL OR SWAP1 SSTORE POP PUSH5 0x2540BE400 PUSH1 0xF PUSH0 PUSH1 0x1 PUSH1 0xFF AND DUP2 MSTORE PUSH1 0x20 ADD SWAP1 DUP2 MSTORE PUSH1 0x20 ADD PUSH0 KECCAK256 PUSH1 0x1 ADD DUP2 SWAP1 SSTORE POP PUSH1 0x3C PUSH1 0xF PUSH0 PUSH1 0x1 PUSH1 0xFF AND DUP2 MSTORE PUSH1 0x20 ADD SWAP1 DUP2 MSTORE PUSH1 0x20 ADD PUSH0 KECCAK256 PUSH1 0x2 ADD PUSH0 PUSH1 0x1 PUSH1 0xFF AND DUP2 MSTORE PUSH1 0x20 ADD SWAP1 DUP2 MSTORE PUSH1 0x20 ADD PUSH0 KECCAK256 PUSH0 PUSH2 0x100 EXP DUP2 SLOAD DUP2 PUSH1 0xFF MUL NOT AND SWAP1 DUP4 PUSH1 0xFF AND MUL OR SWAP1 SSTORE POP PUSH1 0x14 PUSH1 0xF PUSH0 PUSH1 0x1 PUSH1 0xFF AND DUP2 MSTORE PUSH1 0x20 ADD SWAP1 DUP2 MSTORE PUSH1 0x20 ADD PUSH0 KECCAK256 PUSH1 0x2 ADD PUSH0 PUSH1 0x2 PUSH1 0xFF AND DUP2 MSTORE PUSH1 0x20 ADD SWAP1 DUP2 MSTORE PUSH1 0x20 ADD PUSH0 KECCAK256 PUSH0 PUSH2 0x100 EXP DUP2 SLOAD DUP2 PUSH1 0xFF MUL NOT AND SWAP1 DUP4 PUSH1 0xFF AND MUL OR SWAP1 SSTORE POP PUSH1 0xA PUSH1 0xF PUSH0 PUSH1 0x1 PUSH1 0xFF AND DUP2 MSTORE PUSH1 0x20 ADD SWAP1 DUP2 MSTORE PUSH1 0x20 ADD PUSH0 KECCAK256 PUSH1 0x2 ADD PUSH0 PUSH1 0x3 PUSH1 0xFF AND DUP2 MSTORE PUSH1 0x20 ADD SWAP1 DUP2 MSTORE PUSH1 0x20 ADD PUSH0 KECCAK256 PUSH0 PUSH2 0x100 EXP DUP2 SLOAD DUP2 PUSH1 0xFF MUL NOT AND SWAP1 DUP4 PUSH1 0xFF AND MUL OR SWAP1 SSTORE POP PUSH1 0x3 PUSH1 0xF PUSH0 PUSH1 0x2 PUSH1 0xFF AND DUP2 MSTORE PUSH1 0x20 ADD SWAP1 DUP2 MSTORE PUSH1 0x20 ADD PUSH0 KECCAK256 PUSH0 ADD PUSH0 PUSH2 0x100 EXP DUP2 SLOAD DUP2 PUSH1 0xFF MUL NOT AND SWAP1 DUP4 PUSH1 0xFF AND MUL OR SWAP1 SSTORE POP PUSH1 0x6 PUSH1 0xF PUSH0 PUSH1 0x2 PUSH1 0xFF AND DUP2 MSTORE PUSH1 0x20 ADD SWAP1 DUP2 MSTORE PUSH1 0x20 ADD PUSH0 KECCAK256 PUSH0 ADD PUSH1 0x1 PUSH2 0x100 EXP DUP2 SLOAD DUP2 PUSH1 0xFF MUL NOT AND SWAP1 DUP4 PUSH1 0xFF AND MUL OR SWAP1 SSTORE POP PUSH5 0x2540BE400 PUSH1 0xF PUSH0 PUSH1 0x2 PUSH1 0xFF AND DUP2 MSTORE PUSH1 0x20 ADD SWAP1 DUP2 MSTORE PUSH1 0x20 ADD PUSH0 KECCAK256 PUSH1 0x1 ADD DUP2 SWAP1 SSTORE POP PUSH1 0x1 PUSH1 0x3 PUSH0 CALLER PUSH20 0xFFFFFFFFFFFFFFFFFFFFFFFFFFFFFFFFFFFFFFFF AND PUSH20 0xFFFFFFFFFFFFFFFFFFFFFFFFFFFFFFFFFFFFFFFF AND DUP2 MSTORE PUSH1 0x20 ADD SWAP1 DUP2 MSTORE PUSH1 0x20 ADD PUSH0 KECCAK256 PUSH0 PUSH2 0x100 EXP DUP2 SLOAD DUP2 PUSH1 0xFF MUL NOT AND SWAP1 DUP4 ISZERO ISZERO MUL OR SWAP1 SSTORE POP POP POP POP PUSH2 0x76B JUMP JUMPDEST CALLER PUSH20 0xFFFFFFFFFFFFFFFFFFFFFFFFFFFFFFFFFFFFFFFF AND DUP2 PUSH20 0xFFFFFFFFFFFFFFFFFFFFFFFFFFFFFFFFFFFFFFFF AND SUB PUSH2 0x4BA JUMPI PUSH1 0x40 MLOAD PUSH32 0x8C379A000000000000000000000000000000000000000000000000000000000 DUP2 MSTORE PUSH1 0x4 ADD PUSH2 0x4B1 SWAP1 PUSH2 0x74D JUMP JUMPDEST PUSH1 0x40 MLOAD DUP1 SWAP2 SUB SWAP1 REVERT JUMPDEST DUP1 PUSH1 0x1 PUSH0 PUSH2 0x100 EXP DUP2 SLOAD DUP2 PUSH20 0xFFFFFFFFFFFFFFFFFFFFFFFFFFFFFFFFFFFFFFFF MUL NOT AND SWAP1 DUP4 PUSH20 0xFFFFFFFFFFFFFFFFFFFFFFFFFFFFFFFFFFFFFFFF AND MUL OR SWAP1 SSTORE POP DUP1 PUSH20 0xFFFFFFFFFFFFFFFFFFFFFFFFFFFFFFFFFFFFFFFF AND PUSH0 PUSH0 SWAP1 SLOAD SWAP1 PUSH2 0x100 EXP SWAP1 DIV PUSH20 0xFFFFFFFFFFFFFFFFFFFFFFFFFFFFFFFFFFFFFFFF AND PUSH20 0xFFFFFFFFFFFFFFFFFFFFFFFFFFFFFFFFFFFFFFFF AND PUSH32 0xED8889F560326EB138920D842192F0EB3DD22B4F139C87A2C57538E05BAE1278 PUSH1 0x40 MLOAD PUSH1 0x40 MLOAD DUP1 SWAP2 SUB SWAP1 LOG3 POP JUMP JUMPDEST PUSH0 PUSH0 REVERT JUMPDEST PUSH0 PUSH20 0xFFFFFFFFFFFFFFFFFFFFFFFFFFFFFFFFFFFFFFFF DUP3 AND SWAP1 POP SWAP2 SWAP1 POP JUMP JUMPDEST PUSH0 PUSH2 0x5A4 DUP3 PUSH2 0x57B JUMP JUMPDEST SWAP1 POP SWAP2 SWAP1 POP JUMP JUMPDEST PUSH2 0x5B4 DUP2 PUSH2 0x59A JUMP JUMPDEST DUP2 EQ PUSH2 0x5BE JUMPI PUSH0 PUSH0 REVERT JUMPDEST POP JUMP JUMPDEST PUSH0 DUP2 MLOAD SWAP1 POP PUSH2 0x5CF DUP2 PUSH2 0x5AB JUMP JUMPDEST SWAP3 SWAP2 POP POP JUMP JUMPDEST PUSH0 DUP2 SWAP1 POP SWAP2 SWAP1 POP JUMP JUMPDEST PUSH2 0x5E7 DUP2 PUSH2 0x5D5 JUMP JUMPDEST DUP2 EQ PUSH2 0x5F1 JUMPI PUSH0 PUSH0 REVERT JUMPDEST POP JUMP JUMPDEST PUSH0 DUP2 MLOAD SWAP1 POP PUSH2 0x602 DUP2 PUSH2 0x5DE JUMP JUMPDEST SWAP3 SWAP2 POP POP JUMP JUMPDEST PUSH0 DUP2 SWAP1 POP SWAP2 SWAP1 POP JUMP JUMPDEST PUSH2 0x61A DUP2 PUSH2 0x608 JUMP JUMPDEST DUP2 EQ PUSH2 0x624 JUMPI PUSH0 PUSH0 REVERT JUMPDEST POP JUMP JUMPDEST PUSH0 DUP2 MLOAD SWAP1 POP PUSH2 0x635 DUP2 PUSH2 0x611 JUMP JUMPDEST SWAP3 SWAP2 POP POP JUMP JUMPDEST PUSH0 PUSH0 PUSH0 PUSH1 0x60 DUP5 DUP7 SUB SLT ISZERO PUSH2 0x652 JUMPI PUSH2 0x651 PUSH2 0x577 JUMP JUMPDEST JUMPDEST PUSH0 PUSH2 0x65F DUP7 DUP3 DUP8 ADD PUSH2 0x5C1 JUMP JUMPDEST SWAP4 POP POP PUSH1 0x20 PUSH2 0x670 DUP7 DUP3 DUP8 ADD PUSH2 0x5F4 JUMP JUMPDEST SWAP3 POP POP PUSH1 0x40 PUSH2 0x681 DUP7 DUP3 DUP8 ADD PUSH2 0x627 JUMP JUMPDEST SWAP2 POP POP SWAP3 POP SWAP3 POP SWAP3 JUMP JUMPDEST PUSH0 DUP3 DUP3 MSTORE PUSH1 0x20 DUP3 ADD SWAP1 POP SWAP3 SWAP2 POP POP JUMP JUMPDEST PUSH32 0x43616E6E6F7420736574206F776E657220746F207A65726F0000000000000000 PUSH0 DUP3 ADD MSTORE POP JUMP JUMPDEST PUSH0 PUSH2 0x6CF PUSH1 0x18 DUP4 PUSH2 0x68B JUMP JUMPDEST SWAP2 POP PUSH2 0x6DA DUP3 PUSH2 0x69B JUMP JUMPDEST PUSH1 0x20 DUP3 ADD SWAP1 POP SWAP2 SWAP1 POP JUMP JUMPDEST PUSH0 PUSH1 0x20 DUP3 ADD SWAP1 POP DUP2 DUP2 SUB PUSH0 DUP4 ADD MSTORE PUSH2 0x6FC DUP2 PUSH2 0x6C3 JUMP JUMPDEST SWAP1 POP SWAP2 SWAP1 POP JUMP JUMPDEST PUSH32 0x43616E6E6F74207472616E7366657220746F2073656C66000000000000000000 PUSH0 DUP3 ADD MSTORE POP JUMP JUMPDEST PUSH0 PUSH2 0x737 PUSH1 0x17 DUP4 PUSH2 0x68B JUMP JUMPDEST SWAP2 POP PUSH2 0x742 DUP3 PUSH2 0x703 JUMP JUMPDEST PUSH1 0x20 DUP3 ADD SWAP1 POP SWAP2 SWAP1 POP JUMP JUMPDEST PUSH0 PUSH1 0x20 DUP3 ADD SWAP1 POP DUP2 DUP2 SUB PUSH0 DUP4 ADD MSTORE PUSH2 0x764 DUP2 PUSH2 0x72B JUMP JUMPDEST SWAP1 POP SWAP2 SWAP1 POP JUMP JUMPDEST PUSH2 0x4F01 DUP1 PUSH2 0x778 PUSH0 CODECOPY PUSH0 RETURN INVALID PUSH1 0x80 PUSH1 0x40 MSTORE PUSH1 0x4 CALLDATASIZE LT PUSH2 0x165 JUMPI PUSH0 CALLDATALOAD PUSH1 0xE0 SHR DUP1 PUSH4 0x8AC00021 GT PUSH2 0xD0 JUMPI DUP1 PUSH4 0x9870D7FE GT PUSH2 0x89 JUMPI DUP1 PUSH4 0xC6B13A1D GT PUSH2 0x63 JUMPI DUP1 PUSH4 0xC6B13A1D EQ PUSH2 0x520 JUMPI DUP1 PUSH4 0xE046B331 EQ PUSH2 0x548 JUMPI DUP1 PUSH4 0xF26DBAF2 EQ PUSH2 0x570 JUMPI DUP1 PUSH4 0xF2FDE38B EQ PUSH2 0x5AC JUMPI PUSH2 0x165 JUMP JUMPDEST DUP1 PUSH4 0x9870D7FE EQ PUSH2 0x4A4 JUMPI DUP1 PUSH4 0x9ECCACF6 EQ PUSH2 0x4CC JUMPI DUP1 PUSH4 0xB0FB162F EQ PUSH2 0x4F6 JUMPI PUSH2 0x165 JUMP JUMPDEST DUP1 PUSH4 0x8AC00021 EQ PUSH2 0x392 JUMPI DUP1 PUSH4 0x8DA5CB5B EQ PUSH2 0x3BC JUMPI DUP1 PUSH4 0x8EA98117 EQ PUSH2 0x3E6 JUMPI DUP1 PUSH4 0x8FC9E5D6 EQ PUSH2 0x40E JUMPI DUP1 PUSH4 0x916F04FF EQ PUSH2 0x44C JUMPI DUP1 PUSH4 0x91C798AD EQ PUSH2 0x488 JUMPI PUSH2 0x165 JUMP JUMPDEST DUP1 PUSH4 0x2752EA0F GT PUSH2 0x122 JUMPI DUP1 PUSH4 0x2752EA0F EQ PUSH2 0x286 JUMPI DUP1 PUSH4 0x4417F52A EQ PUSH2 0x2C4 JUMPI DUP1 PUSH4 0x61728F39 EQ PUSH2 0x300 JUMPI DUP1 PUSH4 0x6A574857 EQ PUSH2 0x32A JUMPI DUP1 PUSH4 0x6DECAFDD EQ PUSH2 0x354 JUMPI DUP1 PUSH4 0x79BA5097 EQ PUSH2 0x37C JUMPI PUSH2 0x165 JUMP JUMPDEST DUP1 PUSH4 0x1221CE1 EQ PUSH2 0x169 JUMPI DUP1 PUSH4 0x7F90E5D EQ PUSH2 0x191 JUMPI DUP1 PUSH4 0xECD4DB4 EQ PUSH2 0x1BC JUMPI DUP1 PUSH4 0x13E7C9D8 EQ PUSH2 0x1F8 JUMPI DUP1 PUSH4 0x1FE543E3 EQ PUSH2 0x234 JUMPI DUP1 PUSH4 0x24F74697 EQ PUSH2 0x25C JUMPI JUMPDEST PUSH0 PUSH0 REVERT JUMPDEST CALLVALUE DUP1 ISZERO PUSH2 0x174 JUMPI PUSH0 PUSH0 REVERT JUMPDEST POP PUSH2 0x18F PUSH1 0x4 DUP1 CALLDATASIZE SUB DUP2 ADD SWAP1 PUSH2 0x18A SWAP2 SWAP1 PUSH2 0x3339 JUMP JUMPDEST PUSH2 0x5D4 JUMP JUMPDEST STOP JUMPDEST CALLVALUE DUP1 ISZERO PUSH2 0x19C JUMPI PUSH0 PUSH0 REVERT JUMPDEST POP PUSH2 0x1A5 PUSH2 0xC16 JUMP JUMPDEST PUSH1 0x40 MLOAD PUSH2 0x1B3 SWAP3 SWAP2 SWAP1 PUSH2 0x33E2 JUMP JUMPDEST PUSH1 0x40 MLOAD DUP1 SWAP2 SUB SWAP1 RETURN JUMPDEST CALLVALUE DUP1 ISZERO PUSH2 0x1C7 JUMPI PUSH0 PUSH0 REVERT JUMPDEST POP PUSH2 0x1E2 PUSH1 0x4 DUP1 CALLDATASIZE SUB DUP2 ADD SWAP1 PUSH2 0x1DD SWAP2 SWAP1 PUSH2 0x3409 JUMP JUMPDEST PUSH2 0xC33 JUMP JUMPDEST PUSH1 0x40 MLOAD PUSH2 0x1EF SWAP2 SWAP1 PUSH2 0x3507 JUMP JUMPDEST PUSH1 0x40 MLOAD DUP1 SWAP2 SUB SWAP1 RETURN JUMPDEST CALLVALUE DUP1 ISZERO PUSH2 0x203 JUMPI PUSH0 PUSH0 REVERT JUMPDEST POP PUSH2 0x21E PUSH1 0x4 DUP1 CALLDATASIZE SUB DUP2 ADD SWAP1 PUSH2 0x219 SWAP2 SWAP1 PUSH2 0x3581 JUMP JUMPDEST PUSH2 0xCF7 JUMP JUMPDEST PUSH1 0x40 MLOAD PUSH2 0x22B SWAP2 SWAP1 PUSH2 0x35C6 JUMP JUMPDEST PUSH1 0x40 MLOAD DUP1 SWAP2 SUB SWAP1 RETURN JUMPDEST CALLVALUE DUP1 ISZERO PUSH2 0x23F JUMPI PUSH0 PUSH0 REVERT JUMPDEST POP PUSH2 0x25A PUSH1 0x4 DUP1 CALLDATASIZE SUB DUP2 ADD SWAP1 PUSH2 0x255 SWAP2 SWAP1 PUSH2 0x3666 JUMP JUMPDEST PUSH2 0xD14 JUMP JUMPDEST STOP JUMPDEST CALLVALUE DUP1 ISZERO PUSH2 0x267 JUMPI PUSH0 PUSH0 REVERT JUMPDEST POP PUSH2 0x270 PUSH2 0xDD8 JUMP JUMPDEST PUSH1 0x40 MLOAD PUSH2 0x27D SWAP2 SWAP1 PUSH2 0x36E1 JUMP JUMPDEST PUSH1 0x40 MLOAD DUP1 SWAP2 SUB SWAP1 RETURN JUMPDEST CALLVALUE DUP1 ISZERO PUSH2 0x291 JUMPI PUSH0 PUSH0 REVERT JUMPDEST POP PUSH2 0x2AC PUSH1 0x4 DUP1 CALLDATASIZE SUB DUP2 ADD SWAP1 PUSH2 0x2A7 SWAP2 SWAP1 PUSH2 0x3724 JUMP JUMPDEST PUSH2 0xDED JUMP JUMPDEST PUSH1 0x40 MLOAD PUSH2 0x2BB SWAP4 SWAP3 SWAP2 SWAP1 PUSH2 0x374F JUMP JUMPDEST PUSH1 0x40 MLOAD DUP1 SWAP2 SUB SWAP1 RETURN JUMPDEST CALLVALUE DUP1 ISZERO PUSH2 0x2CF JUMPI PUSH0 PUSH0 REVERT JUMPDEST POP PUSH2 0x2EA PUSH1 0x4 DUP1 CALLDATASIZE SUB DUP2 ADD SWAP1 PUSH2 0x2E5 SWAP2 SWAP1 PUSH2 0x3409 JUMP JUMPDEST PUSH2 0xE2B JUMP JUMPDEST PUSH1 0x40 MLOAD PUSH2 0x2F7 SWAP2 SWAP1 PUSH2 0x35C6 JUMP JUMPDEST PUSH1 0x40 MLOAD DUP1 SWAP2 SUB SWAP1 RETURN JUMPDEST CALLVALUE DUP1 ISZERO PUSH2 0x30B JUMPI PUSH0 PUSH0 REVERT JUMPDEST POP PUSH2 0x314 PUSH2 0xE60 JUMP JUMPDEST PUSH1 0x40 MLOAD PUSH2 0x321 SWAP2 SWAP1 PUSH2 0x379C JUMP JUMPDEST PUSH1 0x40 MLOAD DUP1 SWAP2 SUB SWAP1 RETURN JUMPDEST CALLVALUE DUP1 ISZERO PUSH2 0x335 JUMPI PUSH0 PUSH0 REVERT JUMPDEST POP PUSH2 0x33E PUSH2 0xE66 JUMP JUMPDEST PUSH1 0x40 MLOAD PUSH2 0x34B SWAP2 SWAP1 PUSH2 0x396F JUMP JUMPDEST PUSH1 0x40 MLOAD DUP1 SWAP2 SUB SWAP1 RETURN JUMPDEST CALLVALUE DUP1 ISZERO PUSH2 0x35F JUMPI PUSH0 PUSH0 REVERT JUMPDEST POP PUSH2 0x37A PUSH1 0x4 DUP1 CALLDATASIZE SUB DUP2 ADD SWAP1 PUSH2 0x375 SWAP2 SWAP1 PUSH2 0x3409 JUMP JUMPDEST PUSH2 0x1116 JUMP JUMPDEST STOP JUMPDEST CALLVALUE DUP1 ISZERO PUSH2 0x387 JUMPI PUSH0 PUSH0 REVERT JUMPDEST POP PUSH2 0x390 PUSH2 0x12A8 JUMP JUMPDEST STOP JUMPDEST CALLVALUE DUP1 ISZERO PUSH2 0x39D JUMPI PUSH0 PUSH0 REVERT JUMPDEST POP PUSH2 0x3A6 PUSH2 0x1437 JUMP JUMPDEST PUSH1 0x40 MLOAD PUSH2 0x3B3 SWAP2 SWAP1 PUSH2 0x398F JUMP JUMPDEST PUSH1 0x40 MLOAD DUP1 SWAP2 SUB SWAP1 RETURN JUMPDEST CALLVALUE DUP1 ISZERO PUSH2 0x3C7 JUMPI PUSH0 PUSH0 REVERT JUMPDEST POP PUSH2 0x3D0 PUSH2 0x143D JUMP JUMPDEST PUSH1 0x40 MLOAD PUSH2 0x3DD SWAP2 SWAP1 PUSH2 0x39B7 JUMP JUMPDEST PUSH1 0x40 MLOAD DUP1 SWAP2 SUB SWAP1 RETURN JUMPDEST CALLVALUE DUP1 ISZERO PUSH2 0x3F1 JUMPI PUSH0 PUSH0 REVERT JUMPDEST POP PUSH2 0x40C PUSH1 0x4 DUP1 CALLDATASIZE SUB DUP2 ADD SWAP1 PUSH2 0x407 SWAP2 SWAP1 PUSH2 0x3581 JUMP JUMPDEST PUSH2 0x1464 JUMP JUMPDEST STOP JUMPDEST CALLVALUE DUP1 ISZERO PUSH2 0x419 JUMPI PUSH0 PUSH0 REVERT JUMPDEST POP PUSH2 0x434 PUSH1 0x4 DUP1 CALLDATASIZE SUB DUP2 ADD SWAP1 PUSH2 0x42F SWAP2 SWAP1 PUSH2 0x3409 JUMP JUMPDEST PUSH2 0x1641 JUMP JUMPDEST PUSH1 0x40 MLOAD PUSH2 0x443 SWAP4 SWAP3 SWAP2 SWAP1 PUSH2 0x374F JUMP JUMPDEST PUSH1 0x40 MLOAD DUP1 SWAP2 SUB SWAP1 RETURN JUMPDEST CALLVALUE DUP1 ISZERO PUSH2 0x457 JUMPI PUSH0 PUSH0 REVERT JUMPDEST POP PUSH2 0x472 PUSH1 0x4 DUP1 CALLDATASIZE SUB DUP2 ADD SWAP1 PUSH2 0x46D SWAP2 SWAP1 PUSH2 0x39D0 JUMP JUMPDEST PUSH2 0x1697 JUMP JUMPDEST PUSH1 0x40 MLOAD PUSH2 0x47F SWAP2 SWAP1 PUSH2 0x3A43 JUMP JUMPDEST PUSH1 0x40 MLOAD DUP1 SWAP2 SUB SWAP1 RETURN JUMPDEST PUSH2 0x4A2 PUSH1 0x4 DUP1 CALLDATASIZE SUB DUP2 ADD SWAP1 PUSH2 0x49D SWAP2 SWAP1 PUSH2 0x3B23 JUMP JUMPDEST PUSH2 0x1732 JUMP JUMPDEST STOP JUMPDEST CALLVALUE DUP1 ISZERO PUSH2 0x4AF JUMPI PUSH0 PUSH0 REVERT JUMPDEST POP PUSH2 0x4CA PUSH1 0x4 DUP1 CALLDATASIZE SUB DUP2 ADD SWAP1 PUSH2 0x4C5 SWAP2 SWAP1 PUSH2 0x3581 JUMP JUMPDEST PUSH2 0x1B03 JUMP JUMPDEST STOP JUMPDEST CALLVALUE DUP1 ISZERO PUSH2 0x4D7 JUMPI PUSH0 PUSH0 REVERT JUMPDEST POP PUSH2 0x4E0 PUSH2 0x1BE4 JUMP JUMPDEST PUSH1 0x40 MLOAD PUSH2 0x4ED SWAP2 SWAP1 PUSH2 0x3C22 JUMP JUMPDEST PUSH1 0x40 MLOAD DUP1 SWAP2 SUB SWAP1 RETURN JUMPDEST CALLVALUE DUP1 ISZERO PUSH2 0x501 JUMPI PUSH0 PUSH0 REVERT JUMPDEST POP PUSH2 0x50A PUSH2 0x1C09 JUMP JUMPDEST PUSH1 0x40 MLOAD PUSH2 0x517 SWAP2 SWAP1 PUSH2 0x3C57 JUMP JUMPDEST PUSH1 0x40 MLOAD DUP1 SWAP2 SUB SWAP1 RETURN JUMPDEST CALLVALUE DUP1 ISZERO PUSH2 0x52B JUMPI PUSH0 PUSH0 REVERT JUMPDEST POP PUSH2 0x546 PUSH1 0x4 DUP1 CALLDATASIZE SUB DUP2 ADD SWAP1 PUSH2 0x541 SWAP2 SWAP1 PUSH2 0x3C70 JUMP JUMPDEST PUSH2 0x1C1D JUMP JUMPDEST STOP JUMPDEST CALLVALUE DUP1 ISZERO PUSH2 0x553 JUMPI PUSH0 PUSH0 REVERT JUMPDEST POP PUSH2 0x56E PUSH1 0x4 DUP1 CALLDATASIZE SUB DUP2 ADD SWAP1 PUSH2 0x569 SWAP2 SWAP1 PUSH2 0x3D61 JUMP JUMPDEST PUSH2 0x2072 JUMP JUMPDEST STOP JUMPDEST CALLVALUE DUP1 ISZERO PUSH2 0x57B JUMPI PUSH0 PUSH0 REVERT JUMPDEST POP PUSH2 0x596 PUSH1 0x4 DUP1 CALLDATASIZE SUB DUP2 ADD SWAP1 PUSH2 0x591 SWAP2 SWAP1 PUSH2 0x3409 JUMP JUMPDEST PUSH2 0x22D2 JUMP JUMPDEST PUSH1 0x40 MLOAD PUSH2 0x5A3 SWAP2 SWAP1 PUSH2 0x396F JUMP JUMPDEST PUSH1 0x40 MLOAD DUP1 SWAP2 SUB SWAP1 RETURN JUMPDEST CALLVALUE DUP1 ISZERO PUSH2 0x5B7 JUMPI PUSH0 PUSH0 REVERT JUMPDEST POP PUSH2 0x5D2 PUSH1 0x4 DUP1 CALLDATASIZE SUB DUP2 ADD SWAP1 PUSH2 0x5CD SWAP2 SWAP1 PUSH2 0x3581 JUMP JUMPDEST PUSH2 0x253E JUMP JUMPDEST STOP JUMPDEST PUSH0 PUSH1 0x9 PUSH1 0x2 ADD DUP4 PUSH1 0x40 MLOAD PUSH2 0x5E8 SWAP2 SWAP1 PUSH2 0x3E14 JUMP JUMPDEST SWAP1 DUP2 MSTORE PUSH1 0x20 ADD PUSH1 0x40 MLOAD DUP1 SWAP2 SUB SWAP1 KECCAK256 PUSH0 SWAP1 SLOAD SWAP1 PUSH2 0x100 EXP SWAP1 DIV PUSH1 0xFF AND SWAP1 POP PUSH0 PUSH1 0x9 PUSH1 0x1 ADD PUSH0 DUP4 PUSH1 0xFF AND PUSH1 0xFF AND DUP2 MSTORE PUSH1 0x20 ADD SWAP1 DUP2 MSTORE PUSH1 0x20 ADD PUSH0 KECCAK256 SWAP1 POP DUP1 PUSH1 0x2 ADD PUSH1 0x1 SWAP1 SLOAD SWAP1 PUSH2 0x100 EXP SWAP1 DIV PUSH1 0xFF AND ISZERO PUSH2 0x674 JUMPI PUSH1 0x40 MLOAD PUSH32 0x8C379A000000000000000000000000000000000000000000000000000000000 DUP2 MSTORE PUSH1 0x4 ADD PUSH2 0x66B SWAP1 PUSH2 0x3E84 JUMP JUMPDEST PUSH1 0x40 MLOAD DUP1 SWAP2 SUB SWAP1 REVERT JUMPDEST PUSH0 DUP2 PUSH1 0x5 ADD DUP1 SLOAD SWAP1 POP GT PUSH2 0x6BD JUMPI PUSH1 0x40 MLOAD PUSH32 0x8C379A000000000000000000000000000000000000000000000000000000000 DUP2 MSTORE PUSH1 0x4 ADD PUSH2 0x6B4 SWAP1 PUSH2 0x3EEC JUMP JUMPDEST PUSH1 0x40 MLOAD DUP1 SWAP2 SUB SWAP1 REVERT JUMPDEST PUSH0 PUSH1 0xD DUP6 PUSH1 0x40 MLOAD PUSH2 0x6CE SWAP2 SWAP1 PUSH2 0x3E14 JUMP JUMPDEST SWAP1 DUP2 MSTORE PUSH1 0x20 ADD PUSH1 0x40 MLOAD DUP1 SWAP2 SUB SWAP1 KECCAK256 PUSH0 ADD DUP5 PUSH1 0x40 MLOAD PUSH2 0x6EC SWAP2 SWAP1 PUSH2 0x3E14 JUMP JUMPDEST SWAP1 DUP2 MSTORE PUSH1 0x20 ADD PUSH1 0x40 MLOAD DUP1 SWAP2 SUB SWAP1 KECCAK256 SWAP1 POP CALLER PUSH20 0xFFFFFFFFFFFFFFFFFFFFFFFFFFFFFFFFFFFFFFFF AND DUP2 PUSH1 0x1 ADD PUSH0 SWAP1 SLOAD SWAP1 PUSH2 0x100 EXP SWAP1 DIV PUSH20 0xFFFFFFFFFFFFFFFFFFFFFFFFFFFFFFFFFFFFFFFF AND PUSH20 0xFFFFFFFFFFFFFFFFFFFFFFFFFFFFFFFFFFFFFFFF AND EQ PUSH2 0x78D JUMPI PUSH1 0x40 MLOAD PUSH32 0x8C379A000000000000000000000000000000000000000000000000000000000 DUP2 MSTORE PUSH1 0x4 ADD PUSH2 0x784 SWAP1 PUSH2 0x3F54 JUMP JUMPDEST PUSH1 0x40 MLOAD DUP1 SWAP2 SUB SWAP1 REVERT JUMPDEST DUP1 PUSH1 0x1 ADD PUSH1 0x14 SWAP1 SLOAD SWAP1 PUSH2 0x100 EXP SWAP1 DIV PUSH1 0xFF AND ISZERO PUSH2 0x7DF JUMPI PUSH1 0x40 MLOAD PUSH32 0x8C379A000000000000000000000000000000000000000000000000000000000 DUP2 MSTORE PUSH1 0x4 ADD PUSH2 0x7D6 SWAP1 PUSH2 0x3FBC JUMP JUMPDEST PUSH1 0x40 MLOAD DUP1 SWAP2 SUB SWAP1 REVERT JUMPDEST PUSH0 PUSH2 0x8D1 DUP3 PUSH0 ADD DUP1 SLOAD DUP1 PUSH1 0x20 MUL PUSH1 0x20 ADD PUSH1 0x40 MLOAD SWAP1 DUP2 ADD PUSH1 0x40 MSTORE DUP1 SWAP3 SWAP2 SWAP1 DUP2 DUP2 MSTORE PUSH1 0x20 ADD DUP3 DUP1 SLOAD DUP1 ISZERO PUSH2 0x852 JUMPI PUSH1 0x20 MUL DUP3 ADD SWAP2 SWAP1 PUSH0 MSTORE PUSH1 0x20 PUSH0 KECCAK256 SWAP1 PUSH0 SWAP1 JUMPDEST DUP3 DUP3 SWAP1 SLOAD SWAP1 PUSH2 0x100 EXP SWAP1 DIV PUSH1 0xFF AND PUSH1 0xFF AND DUP2 MSTORE PUSH1 0x20 ADD SWAP1 PUSH1 0x1 ADD SWAP1 PUSH1 0x20 DUP3 PUSH0 ADD DIV SWAP3 DUP4 ADD SWAP3 PUSH1 0x1 SUB DUP3 MUL SWAP2 POP DUP1 DUP5 GT PUSH2 0x81C JUMPI SWAP1 POP JUMPDEST POP POP POP POP POP DUP5 PUSH1 0x5 ADD DUP1 SLOAD DUP1 PUSH1 0x20 MUL PUSH1 0x20 ADD PUSH1 0x40 MLOAD SWAP1 DUP2 ADD PUSH1 0x40 MSTORE DUP1 SWAP3 SWAP2 SWAP1 DUP2 DUP2 MSTORE PUSH1 0x20 ADD DUP3 DUP1 SLOAD DUP1 ISZERO PUSH2 0x8C7 JUMPI PUSH1 0x20 MUL DUP3 ADD SWAP2 SWAP1 PUSH0 MSTORE PUSH1 0x20 PUSH0 KECCAK256 SWAP1 PUSH0 SWAP1 JUMPDEST DUP3 DUP3 SWAP1 SLOAD SWAP1 PUSH2 0x100 EXP SWAP1 DIV PUSH1 0xFF AND PUSH1 0xFF AND DUP2 MSTORE PUSH1 0x20 ADD SWAP1 PUSH1 0x1 ADD SWAP1 PUSH1 0x20 DUP3 PUSH0 ADD DIV SWAP3 DUP4 ADD SWAP3 PUSH1 0x1 SUB DUP3 MUL SWAP2 POP DUP1 DUP5 GT PUSH2 0x891 JUMPI SWAP1 POP JUMPDEST POP POP POP POP POP PUSH2 0x2552 JUMP JUMPDEST SWAP1 POP PUSH0 PUSH0 SWAP1 POP PUSH0 PUSH0 SWAP1 POP PUSH1 0x1 DUP6 PUSH1 0x7 ADD PUSH0 SWAP1 SLOAD SWAP1 PUSH2 0x100 EXP SWAP1 DIV PUSH1 0xFF AND PUSH1 0xFF AND SUB PUSH2 0xA58 JUMPI PUSH1 0x5 DUP4 PUSH1 0xFF AND SUB PUSH2 0x96B JUMPI PUSH1 0x1 SWAP2 POP PUSH1 0x64 PUSH1 0xE DUP10 PUSH1 0x40 MLOAD PUSH2 0x917 SWAP2 SWAP1 PUSH2 0x3E14 JUMP JUMPDEST SWAP1 DUP2 MSTORE PUSH1 0x20 ADD PUSH1 0x40 MLOAD DUP1 SWAP2 SUB SWAP1 KECCAK256 PUSH1 0x2 ADD PUSH0 PUSH1 0x1 PUSH1 0xFF AND DUP2 MSTORE PUSH1 0x20 ADD SWAP1 DUP2 MSTORE PUSH1 0x20 ADD PUSH0 KECCAK256 PUSH0 SWAP1 SLOAD SWAP1 PUSH2 0x100 EXP SWAP1 DIV PUSH1 0xFF AND PUSH1 0xFF AND DUP7 PUSH1 0x3 ADD SLOAD PUSH2 0x95A SWAP2 SWAP1 PUSH2 0x4007 JUMP JUMPDEST PUSH2 0x964 SWAP2 SWAP1 PUSH2 0x4075 JUMP JUMPDEST SWAP1 POP PUSH2 0xA53 JUMP JUMPDEST PUSH1 0x4 DUP4 PUSH1 0xFF AND SUB PUSH2 0x9E0 JUMPI PUSH1 0x1 SWAP2 POP PUSH1 0x64 PUSH1 0xE DUP10 PUSH1 0x40 MLOAD PUSH2 0x98C SWAP2 SWAP1 PUSH2 0x3E14 JUMP JUMPDEST SWAP1 DUP2 MSTORE PUSH1 0x20 ADD PUSH1 0x40 MLOAD DUP1 SWAP2 SUB SWAP1 KECCAK256 PUSH1 0x2 ADD PUSH0 PUSH1 0x2 PUSH1 0xFF AND DUP2 MSTORE PUSH1 0x20 ADD SWAP1 DUP2 MSTORE PUSH1 0x20 ADD PUSH0 KECCAK256 PUSH0 SWAP1 SLOAD SWAP1 PUSH2 0x100 EXP SWAP1 DIV PUSH1 0xFF AND PUSH1 0xFF AND DUP7 PUSH1 0x3 ADD SLOAD PUSH2 0x9CF SWAP2 SWAP1 PUSH2 0x4007 JUMP JUMPDEST PUSH2 0x9D9 SWAP2 SWAP1 PUSH2 0x4075 JUMP JUMPDEST SWAP1 POP PUSH2 0xA52 JUMP JUMPDEST PUSH1 0x3 DUP4 PUSH1 0xFF AND SUB PUSH2 0xA51 JUMPI PUSH1 0x1 SWAP2 POP PUSH1 0x64 PUSH1 0xE DUP10 PUSH1 0x40 MLOAD PUSH2 0xA01 SWAP2 SWAP1 PUSH2 0x3E14 JUMP JUMPDEST SWAP1 DUP2 MSTORE PUSH1 0x20 ADD PUSH1 0x40 MLOAD DUP1 SWAP2 SUB SWAP1 KECCAK256 PUSH1 0x2 ADD PUSH0 PUSH1 0x3 PUSH1 0xFF AND DUP2 MSTORE PUSH1 0x20 ADD SWAP1 DUP2 MSTORE PUSH1 0x20 ADD PUSH0 KECCAK256 PUSH0 SWAP1 SLOAD SWAP1 PUSH2 0x100 EXP SWAP1 DIV PUSH1 0xFF AND PUSH1 0xFF AND DUP7 PUSH1 0x3 ADD SLOAD PUSH2 0xA44 SWAP2 SWAP1 PUSH2 0x4007 JUMP JUMPDEST PUSH2 0xA4E SWAP2 SWAP1 PUSH2 0x4075 JUMP JUMPDEST SWAP1 POP JUMPDEST JUMPDEST JUMPDEST PUSH2 0xAE6 JUMP JUMPDEST PUSH1 0x2 DUP6 PUSH1 0x7 ADD PUSH0 SWAP1 SLOAD SWAP1 PUSH2 0x100 EXP SWAP1 DIV PUSH1 0xFF AND PUSH1 0xFF AND SUB PUSH2 0xAE5 JUMPI PUSH1 0x3 DUP4 PUSH1 0xFF AND SUB PUSH2 0xAE4 JUMPI PUSH1 0x1 SWAP2 POP PUSH1 0x64 PUSH1 0xE DUP10 PUSH1 0x40 MLOAD PUSH2 0xA94 SWAP2 SWAP1 PUSH2 0x3E14 JUMP JUMPDEST SWAP1 DUP2 MSTORE PUSH1 0x20 ADD PUSH1 0x40 MLOAD DUP1 SWAP2 SUB SWAP1 KECCAK256 PUSH1 0x2 ADD PUSH0 PUSH1 0x1 PUSH1 0xFF AND DUP2 MSTORE PUSH1 0x20 ADD SWAP1 DUP2 MSTORE PUSH1 0x20 ADD PUSH0 KECCAK256 PUSH0 SWAP1 SLOAD SWAP1 PUSH2 0x100 EXP SWAP1 DIV PUSH1 0xFF AND PUSH1 0xFF AND DUP7 PUSH1 0x3 ADD SLOAD PUSH2 0xAD7 SWAP2 SWAP1 PUSH2 0x4007 JUMP JUMPDEST PUSH2 0xAE1 SWAP2 SWAP1 PUSH2 0x4075 JUMP JUMPDEST SWAP1 POP JUMPDEST JUMPDEST JUMPDEST DUP2 PUSH2 0xB26 JUMPI PUSH1 0x40 MLOAD PUSH32 0x8C379A000000000000000000000000000000000000000000000000000000000 DUP2 MSTORE PUSH1 0x4 ADD PUSH2 0xB1D SWAP1 PUSH2 0x40EF JUMP JUMPDEST PUSH1 0x40 MLOAD DUP1 SWAP2 SUB SWAP1 REVERT JUMPDEST PUSH0 DUP2 GT PUSH2 0xB68 JUMPI PUSH1 0x40 MLOAD PUSH32 0x8C379A000000000000000000000000000000000000000000000000000000000 DUP2 MSTORE PUSH1 0x4 ADD PUSH2 0xB5F SWAP1 PUSH2 0x4157 JUMP JUMPDEST PUSH1 0x40 MLOAD DUP1 SWAP2 SUB SWAP1 REVERT JUMPDEST DUP1 SELFBALANCE LT ISZERO PUSH2 0xBAB JUMPI PUSH1 0x40 MLOAD PUSH32 0x8C379A000000000000000000000000000000000000000000000000000000000 DUP2 MSTORE PUSH1 0x4 ADD PUSH2 0xBA2 SWAP1 PUSH2 0x41E5 JUMP JUMPDEST PUSH1 0x40 MLOAD DUP1 SWAP2 SUB SWAP1 REVERT JUMPDEST PUSH1 0x1 DUP5 PUSH1 0x1 ADD PUSH1 0x14 PUSH2 0x100 EXP DUP2 SLOAD DUP2 PUSH1 0xFF MUL NOT AND SWAP1 DUP4 ISZERO ISZERO MUL OR SWAP1 SSTORE POP CALLER PUSH20 0xFFFFFFFFFFFFFFFFFFFFFFFFFFFFFFFFFFFFFFFF AND PUSH2 0x8FC DUP3 SWAP1 DUP2 ISZERO MUL SWAP1 PUSH1 0x40 MLOAD PUSH0 PUSH1 0x40 MLOAD DUP1 DUP4 SUB DUP2 DUP6 DUP9 DUP9 CALL SWAP4 POP POP POP POP ISZERO DUP1 ISZERO PUSH2 0xC0B JUMPI RETURNDATASIZE PUSH0 PUSH0 RETURNDATACOPY RETURNDATASIZE PUSH0 REVERT JUMPDEST POP POP POP POP POP POP POP POP POP JUMP JUMPDEST PUSH1 0x9 DUP1 PUSH0 ADD SLOAD SWAP1 DUP1 PUSH1 0x3 ADD PUSH0 SWAP1 SLOAD SWAP1 PUSH2 0x100 EXP SWAP1 DIV PUSH1 0xFF AND SWAP1 POP DUP3 JUMP JUMPDEST PUSH1 0x60 PUSH1 0x9 PUSH1 0x1 ADD PUSH0 PUSH1 0x9 PUSH1 0x2 ADD DUP5 PUSH1 0x40 MLOAD PUSH2 0xC4E SWAP2 SWAP1 PUSH2 0x3E14 JUMP JUMPDEST SWAP1 DUP2 MSTORE PUSH1 0x20 ADD PUSH1 0x40 MLOAD DUP1 SWAP2 SUB SWAP1 KECCAK256 PUSH0 SWAP1 SLOAD SWAP1 PUSH2 0x100 EXP SWAP1 DIV PUSH1 0xFF AND PUSH1 0xFF AND PUSH1 0xFF AND DUP2 MSTORE PUSH1 0x20 ADD SWAP1 DUP2 MSTORE PUSH1 0x20 ADD PUSH0 KECCAK256 PUSH1 0x5 ADD DUP1 SLOAD DUP1 PUSH1 0x20 MUL PUSH1 0x20 ADD PUSH1 0x40 MLOAD SWAP1 DUP2 ADD PUSH1 0x40 MSTORE DUP1 SWAP3 SWAP2 SWAP1 DUP2 DUP2 MSTORE PUSH1 0x20 ADD DUP3 DUP1 SLOAD DUP1 ISZERO PUSH2 0xCEB JUMPI PUSH1 0x20 MUL DUP3 ADD SWAP2 SWAP1 PUSH0 MSTORE PUSH1 0x20 PUSH0 KECCAK256 SWAP1 PUSH0 SWAP1 JUMPDEST DUP3 DUP3 SWAP1 SLOAD SWAP1 PUSH2 0x100 EXP SWAP1 DIV PUSH1 0xFF AND PUSH1 0xFF AND DUP2 MSTORE PUSH1 0x20 ADD SWAP1 PUSH1 0x1 ADD SWAP1 PUSH1 0x20 DUP3 PUSH0 ADD DIV SWAP3 DUP4 ADD SWAP3 PUSH1 0x1 SUB DUP3 MUL SWAP2 POP DUP1 DUP5 GT PUSH2 0xCB5 JUMPI SWAP1 POP JUMPDEST POP POP POP POP POP SWAP1 POP SWAP2 SWAP1 POP JUMP JUMPDEST PUSH1 0x3 PUSH1 0x20 MSTORE DUP1 PUSH0 MSTORE PUSH1 0x40 PUSH0 KECCAK256 PUSH0 SWAP2 POP SLOAD SWAP1 PUSH2 0x100 EXP SWAP1 DIV PUSH1 0xFF AND DUP2 JUMP JUMPDEST PUSH1 0x2 PUSH0 SWAP1 SLOAD SWAP1 PUSH2 0x100 EXP SWAP1 DIV PUSH20 0xFFFFFFFFFFFFFFFFFFFFFFFFFFFFFFFFFFFFFFFF AND PUSH20 0xFFFFFFFFFFFFFFFFFFFFFFFFFFFFFFFFFFFFFFFF AND CALLER PUSH20 0xFFFFFFFFFFFFFFFFFFFFFFFFFFFFFFFFFFFFFFFF AND EQ PUSH2 0xDC8 JUMPI CALLER PUSH1 0x2 PUSH0 SWAP1 SLOAD SWAP1 PUSH2 0x100 EXP SWAP1 DIV PUSH20 0xFFFFFFFFFFFFFFFFFFFFFFFFFFFFFFFFFFFFFFFF AND PUSH1 0x40 MLOAD PUSH32 0x1CF993F400000000000000000000000000000000000000000000000000000000 DUP2 MSTORE PUSH1 0x4 ADD PUSH2 0xDBF SWAP3 SWAP2 SWAP1 PUSH2 0x4203 JUMP JUMPDEST PUSH1 0x40 MLOAD DUP1 SWAP2 SUB SWAP1 REVERT JUMPDEST PUSH2 0xDD3 DUP4 DUP4 DUP4 PUSH2 0x2602 JUMP JUMPDEST POP POP POP JUMP JUMPDEST PUSH1 0x6 PUSH0 SWAP1 SLOAD SWAP1 PUSH2 0x100 EXP SWAP1 DIV PUSH4 0xFFFFFFFF AND DUP2 JUMP JUMPDEST PUSH1 0xF PUSH1 0x20 MSTORE DUP1 PUSH0 MSTORE PUSH1 0x40 PUSH0 KECCAK256 PUSH0 SWAP2 POP SWAP1 POP DUP1 PUSH0 ADD PUSH0 SWAP1 SLOAD SWAP1 PUSH2 0x100 EXP SWAP1 DIV PUSH1 0xFF AND SWAP1 DUP1 PUSH0 ADD PUSH1 0x1 SWAP1 SLOAD SWAP1 PUSH2 0x100 EXP SWAP1 DIV PUSH1 0xFF AND SWAP1 DUP1 PUSH1 0x1 ADD SLOAD SWAP1 POP DUP4 JUMP JUMPDEST PUSH1 0x8 DUP2 DUP1 MLOAD PUSH1 0x20 DUP2 ADD DUP3 ADD DUP1 MLOAD DUP5 DUP3 MSTORE PUSH1 0x20 DUP4 ADD PUSH1 0x20 DUP6 ADD KECCAK256 DUP2 DUP4 MSTORE DUP1 SWAP6 POP POP POP POP POP POP PUSH0 SWAP2 POP SLOAD SWAP1 PUSH2 0x100 EXP SWAP1 DIV PUSH1 0xFF AND DUP2 JUMP JUMPDEST PUSH1 0x5 SLOAD DUP2 JUMP JUMPDEST PUSH2 0xE6E PUSH2 0x30BC JUMP JUMPDEST PUSH0 PUSH1 0x9 PUSH1 0x3 ADD PUSH0 SWAP1 SLOAD SWAP1 PUSH2 0x100 EXP SWAP1 DIV PUSH1 0xFF AND PUSH1 0xFF AND GT PUSH2 0xEC4 JUMPI PUSH1 0x40 MLOAD PUSH32 0x8C379A000000000000000000000000000000000000000000000000000000000 DUP2 MSTORE PUSH1 0x4 ADD PUSH2 0xEBB SWAP1 PUSH2 0x4274 JUMP JUMPDEST PUSH1 0x40 MLOAD DUP1 SWAP2 SUB SWAP1 REVERT JUMPDEST PUSH1 0x9 PUSH1 0x1 ADD PUSH0 PUSH1 0x1 PUSH1 0x9 PUSH1 0x3 ADD PUSH0 SWAP1 SLOAD SWAP1 PUSH2 0x100 EXP SWAP1 DIV PUSH1 0xFF AND PUSH2 0xEE8 SWAP2 SWAP1 PUSH2 0x4292 JUMP JUMPDEST PUSH1 0xFF AND PUSH1 0xFF AND DUP2 MSTORE PUSH1 0x20 ADD SWAP1 DUP2 MSTORE PUSH1 0x20 ADD PUSH0 KECCAK256 PUSH1 0x40 MLOAD DUP1 PUSH2 0x120 ADD PUSH1 0x40 MSTORE SWAP1 DUP2 PUSH0 DUP3 ADD DUP1 SLOAD PUSH2 0xF16 SWAP1 PUSH2 0x42F3 JUMP JUMPDEST DUP1 PUSH1 0x1F ADD PUSH1 0x20 DUP1 SWAP2 DIV MUL PUSH1 0x20 ADD PUSH1 0x40 MLOAD SWAP1 DUP2 ADD PUSH1 0x40 MSTORE DUP1 SWAP3 SWAP2 SWAP1 DUP2 DUP2 MSTORE PUSH1 0x20 ADD DUP3 DUP1 SLOAD PUSH2 0xF42 SWAP1 PUSH2 0x42F3 JUMP JUMPDEST DUP1 ISZERO PUSH2 0xF8D JUMPI DUP1 PUSH1 0x1F LT PUSH2 0xF64 JUMPI PUSH2 0x100 DUP1 DUP4 SLOAD DIV MUL DUP4 MSTORE SWAP2 PUSH1 0x20 ADD SWAP2 PUSH2 0xF8D JUMP JUMPDEST DUP3 ADD SWAP2 SWAP1 PUSH0 MSTORE PUSH1 0x20 PUSH0 KECCAK256 SWAP1 JUMPDEST DUP2 SLOAD DUP2 MSTORE SWAP1 PUSH1 0x1 ADD SWAP1 PUSH1 0x20 ADD DUP1 DUP4 GT PUSH2 0xF70 JUMPI DUP3 SWAP1 SUB PUSH1 0x1F AND DUP3 ADD SWAP2 JUMPDEST POP POP POP POP POP DUP2 MSTORE PUSH1 0x20 ADD PUSH1 0x1 DUP3 ADD DUP1 SLOAD PUSH2 0xFA6 SWAP1 PUSH2 0x42F3 JUMP JUMPDEST DUP1 PUSH1 0x1F ADD PUSH1 0x20 DUP1 SWAP2 DIV MUL PUSH1 0x20 ADD PUSH1 0x40 MLOAD SWAP1 DUP2 ADD PUSH1 0x40 MSTORE DUP1 SWAP3 SWAP2 SWAP1 DUP2 DUP2 MSTORE PUSH1 0x20 ADD DUP3 DUP1 SLOAD PUSH2 0xFD2 SWAP1 PUSH2 0x42F3 JUMP JUMPDEST DUP1 ISZERO PUSH2 0x101D JUMPI DUP1 PUSH1 0x1F LT PUSH2 0xFF4 JUMPI PUSH2 0x100 DUP1 DUP4 SLOAD DIV MUL DUP4 MSTORE SWAP2 PUSH1 0x20 ADD SWAP2 PUSH2 0x101D JUMP JUMPDEST DUP3 ADD SWAP2 SWAP1 PUSH0 MSTORE PUSH1 0x20 PUSH0 KECCAK256 SWAP1 JUMPDEST DUP2 SLOAD DUP2 MSTORE SWAP1 PUSH1 0x1 ADD SWAP1 PUSH1 0x20 ADD DUP1 DUP4 GT PUSH2 0x1000 JUMPI DUP3 SWAP1 SUB PUSH1 0x1F AND DUP3 ADD SWAP2 JUMPDEST POP POP POP POP POP DUP2 MSTORE PUSH1 0x20 ADD PUSH1 0x2 DUP3 ADD PUSH0 SWAP1 SLOAD SWAP1 PUSH2 0x100 EXP SWAP1 DIV PUSH1 0xFF AND PUSH1 0xFF AND PUSH1 0xFF AND DUP2 MSTORE PUSH1 0x20 ADD PUSH1 0x2 DUP3 ADD PUSH1 0x1 SWAP1 SLOAD SWAP1 PUSH2 0x100 EXP SWAP1 DIV PUSH1 0xFF AND ISZERO ISZERO ISZERO ISZERO DUP2 MSTORE PUSH1 0x20 ADD PUSH1 0x3 DUP3 ADD SLOAD DUP2 MSTORE PUSH1 0x20 ADD PUSH1 0x4 DUP3 ADD SLOAD DUP2 MSTORE PUSH1 0x20 ADD PUSH1 0x5 DUP3 ADD DUP1 SLOAD DUP1 PUSH1 0x20 MUL PUSH1 0x20 ADD PUSH1 0x40 MLOAD SWAP1 DUP2 ADD PUSH1 0x40 MSTORE DUP1 SWAP3 SWAP2 SWAP1 DUP2 DUP2 MSTORE PUSH1 0x20 ADD DUP3 DUP1 SLOAD DUP1 ISZERO PUSH2 0x10E2 JUMPI PUSH1 0x20 MUL DUP3 ADD SWAP2 SWAP1 PUSH0 MSTORE PUSH1 0x20 PUSH0 KECCAK256 SWAP1 PUSH0 SWAP1 JUMPDEST DUP3 DUP3 SWAP1 SLOAD SWAP1 PUSH2 0x100 EXP SWAP1 DIV PUSH1 0xFF AND PUSH1 0xFF AND DUP2 MSTORE PUSH1 0x20 ADD SWAP1 PUSH1 0x1 ADD SWAP1 PUSH1 0x20 DUP3 PUSH0 ADD DIV SWAP3 DUP4 ADD SWAP3 PUSH1 0x1 SUB DUP3 MUL SWAP2 POP DUP1 DUP5 GT PUSH2 0x10AC JUMPI SWAP1 POP JUMPDEST POP POP POP POP POP DUP2 MSTORE PUSH1 0x20 ADD PUSH1 0x6 DUP3 ADD SLOAD DUP2 MSTORE PUSH1 0x20 ADD PUSH1 0x7 DUP3 ADD PUSH0 SWAP1 SLOAD SWAP1 PUSH2 0x100 EXP SWAP1 DIV PUSH1 0xFF AND PUSH1 0xFF AND PUSH1 0xFF AND DUP2 MSTORE POP POP SWAP1 POP SWAP1 JUMP JUMPDEST PUSH1 0x3 PUSH0 CALLER PUSH20 0xFFFFFFFFFFFFFFFFFFFFFFFFFFFFFFFFFFFFFFFF AND PUSH20 0xFFFFFFFFFFFFFFFFFFFFFFFFFFFFFFFFFFFFFFFF AND DUP2 MSTORE PUSH1 0x20 ADD SWAP1 DUP2 MSTORE PUSH1 0x20 ADD PUSH0 KECCAK256 PUSH0 SWAP1 SLOAD SWAP1 PUSH2 0x100 EXP SWAP1 DIV PUSH1 0xFF AND PUSH2 0x119F JUMPI PUSH1 0x40 MLOAD PUSH32 0x8C379A000000000000000000000000000000000000000000000000000000000 DUP2 MSTORE PUSH1 0x4 ADD PUSH2 0x1196 SWAP1 PUSH2 0x436D JUMP JUMPDEST PUSH1 0x40 MLOAD DUP1 SWAP2 SUB SWAP1 REVERT JUMPDEST PUSH0 PUSH1 0x9 PUSH1 0x2 ADD DUP3 PUSH1 0x40 MLOAD PUSH2 0x11B3 SWAP2 SWAP1 PUSH2 0x3E14 JUMP JUMPDEST SWAP1 DUP2 MSTORE PUSH1 0x20 ADD PUSH1 0x40 MLOAD DUP1 SWAP2 SUB SWAP1 KECCAK256 PUSH0 SWAP1 SLOAD SWAP1 PUSH2 0x100 EXP SWAP1 DIV PUSH1 0xFF AND SWAP1 POP PUSH0 PUSH1 0x9 PUSH1 0x3 ADD PUSH0 SWAP1 SLOAD SWAP1 PUSH2 0x100 EXP SWAP1 DIV PUSH1 0xFF AND PUSH1 0xFF AND EQ DUP1 PUSH2 0x1209 JUMPI POP PUSH1 0x9 PUSH1 0x3 ADD PUSH0 SWAP1 SLOAD SWAP1 PUSH2 0x100 EXP SWAP1 DIV PUSH1 0xFF AND PUSH1 0xFF AND DUP2 PUSH1 0xFF AND LT ISZERO JUMPDEST ISZERO PUSH2 0x1214 JUMPI POP PUSH2 0x12A5 JUMP JUMPDEST PUSH0 PUSH1 0x9 PUSH1 0x1 ADD PUSH0 DUP4 PUSH1 0xFF AND PUSH1 0xFF AND DUP2 MSTORE PUSH1 0x20 ADD SWAP1 DUP2 MSTORE PUSH1 0x20 ADD PUSH0 KECCAK256 SWAP1 POP DUP1 PUSH1 0x2 ADD PUSH1 0x1 SWAP1 SLOAD SWAP1 PUSH2 0x100 EXP SWAP1 DIV PUSH1 0xFF AND DUP1 ISZERO PUSH2 0x1277 JUMPI POP PUSH1 0x8 DUP4 PUSH1 0x40 MLOAD PUSH2 0x125A SWAP2 SWAP1 PUSH2 0x3E14 JUMP JUMPDEST SWAP1 DUP2 MSTORE PUSH1 0x20 ADD PUSH1 0x40 MLOAD DUP1 SWAP2 SUB SWAP1 KECCAK256 PUSH0 SWAP1 SLOAD SWAP1 PUSH2 0x100 EXP SWAP1 DIV PUSH1 0xFF AND ISZERO JUMPDEST ISZERO PUSH2 0x12A2 JUMPI PUSH2 0x1285 DUP4 PUSH2 0x28DC JUMP JUMPDEST PUSH0 DUP2 PUSH1 0x2 ADD PUSH1 0x1 PUSH2 0x100 EXP DUP2 SLOAD DUP2 PUSH1 0xFF MUL NOT AND SWAP1 DUP4 ISZERO ISZERO MUL OR SWAP1 SSTORE POP JUMPDEST POP POP JUMPDEST POP JUMP JUMPDEST PUSH1 0x1 PUSH0 SWAP1 SLOAD SWAP1 PUSH2 0x100 EXP SWAP1 DIV PUSH20 0xFFFFFFFFFFFFFFFFFFFFFFFFFFFFFFFFFFFFFFFF AND PUSH20 0xFFFFFFFFFFFFFFFFFFFFFFFFFFFFFFFFFFFFFFFF AND CALLER PUSH20 0xFFFFFFFFFFFFFFFFFFFFFFFFFFFFFFFFFFFFFFFF AND EQ PUSH2 0x1337 JUMPI PUSH1 0x40 MLOAD PUSH32 0x8C379A000000000000000000000000000000000000000000000000000000000 DUP2 MSTORE PUSH1 0x4 ADD PUSH2 0x132E SWAP1 PUSH2 0x43D5 JUMP JUMPDEST PUSH1 0x40 MLOAD DUP1 SWAP2 SUB SWAP1 REVERT JUMPDEST PUSH0 PUSH0 PUSH0 SWAP1 SLOAD SWAP1 PUSH2 0x100 EXP SWAP1 DIV PUSH20 0xFFFFFFFFFFFFFFFFFFFFFFFFFFFFFFFFFFFFFFFF AND SWAP1 POP CALLER PUSH0 PUSH0 PUSH2 0x100 EXP DUP2 SLOAD DUP2 PUSH20 0xFFFFFFFFFFFFFFFFFFFFFFFFFFFFFFFFFFFFFFFF MUL NOT AND SWAP1 DUP4 PUSH20 0xFFFFFFFFFFFFFFFFFFFFFFFFFFFFFFFFFFFFFFFF AND MUL OR SWAP1 SSTORE POP PUSH0 PUSH1 0x1 PUSH0 PUSH2 0x100 EXP DUP2 SLOAD DUP2 PUSH20 0xFFFFFFFFFFFFFFFFFFFFFFFFFFFFFFFFFFFFFFFF MUL NOT AND SWAP1 DUP4 PUSH20 0xFFFFFFFFFFFFFFFFFFFFFFFFFFFFFFFFFFFFFFFF AND MUL OR SWAP1 SSTORE POP CALLER PUSH20 0xFFFFFFFFFFFFFFFFFFFFFFFFFFFFFFFFFFFFFFFF AND DUP2 PUSH20 0xFFFFFFFFFFFFFFFFFFFFFFFFFFFFFFFFFFFFFFFF AND PUSH32 0x8BE0079C531659141344CD1FD0A4F28419497F9722A3DAAFE3B4186F6B6457E0 PUSH1 0x40 MLOAD PUSH1 0x40 MLOAD DUP1 SWAP2 SUB SWAP1 LOG3 POP JUMP JUMPDEST PUSH1 0x4 SLOAD DUP2 JUMP JUMPDEST PUSH0 PUSH0 PUSH0 SWAP1 SLOAD SWAP1 PUSH2 0x100 EXP SWAP1 DIV PUSH20 0xFFFFFFFFFFFFFFFFFFFFFFFFFFFFFFFFFFFFFFFF AND SWAP1 POP SWAP1 JUMP JUMPDEST PUSH2 0x146C PUSH2 0x143D JUMP JUMPDEST PUSH20 0xFFFFFFFFFFFFFFFFFFFFFFFFFFFFFFFFFFFFFFFF AND CALLER PUSH20 0xFFFFFFFFFFFFFFFFFFFFFFFFFFFFFFFFFFFFFFFF AND EQ ISZERO DUP1 ISZERO PUSH2 0x14F4 JUMPI POP PUSH1 0x2 PUSH0 SWAP1 SLOAD SWAP1 PUSH2 0x100 EXP SWAP1 DIV PUSH20 0xFFFFFFFFFFFFFFFFFFFFFFFFFFFFFFFFFFFFFFFF AND PUSH20 0xFFFFFFFFFFFFFFFFFFFFFFFFFFFFFFFFFFFFFFFF AND CALLER PUSH20 0xFFFFFFFFFFFFFFFFFFFFFFFFFFFFFFFFFFFFFFFF AND EQ ISZERO JUMPDEST ISZERO PUSH2 0x1562 JUMPI CALLER PUSH2 0x1502 PUSH2 0x143D JUMP JUMPDEST PUSH1 0x2 PUSH0 SWAP1 SLOAD SWAP1 PUSH2 0x100 EXP SWAP1 DIV PUSH20 0xFFFFFFFFFFFFFFFFFFFFFFFFFFFFFFFFFFFFFFFF AND PUSH1 0x40 MLOAD PUSH32 0x61DB9C100000000000000000000000000000000000000000000000000000000 DUP2 MSTORE PUSH1 0x4 ADD PUSH2 0x1559 SWAP4 SWAP3 SWAP2 SWAP1 PUSH2 0x43F3 JUMP JUMPDEST PUSH1 0x40 MLOAD DUP1 SWAP2 SUB SWAP1 REVERT JUMPDEST PUSH0 PUSH20 0xFFFFFFFFFFFFFFFFFFFFFFFFFFFFFFFFFFFFFFFF AND DUP2 PUSH20 0xFFFFFFFFFFFFFFFFFFFFFFFFFFFFFFFFFFFFFFFF AND SUB PUSH2 0x15C7 JUMPI PUSH1 0x40 MLOAD PUSH32 0xD92E233D00000000000000000000000000000000000000000000000000000000 DUP2 MSTORE PUSH1 0x4 ADD PUSH1 0x40 MLOAD DUP1 SWAP2 SUB SWAP1 REVERT JUMPDEST DUP1 PUSH1 0x2 PUSH0 PUSH2 0x100 EXP DUP2 SLOAD DUP2 PUSH20 0xFFFFFFFFFFFFFFFFFFFFFFFFFFFFFFFFFFFFFFFF MUL NOT AND SWAP1 DUP4 PUSH20 0xFFFFFFFFFFFFFFFFFFFFFFFFFFFFFFFFFFFFFFFF AND MUL OR SWAP1 SSTORE POP PUSH32 0xD1A6A14209A385A964D036E404CB5CFB71F4000CDB03C9366292430787261BE6 DUP2 PUSH1 0x40 MLOAD PUSH2 0x1636 SWAP2 SWAP1 PUSH2 0x39B7 JUMP JUMPDEST PUSH1 0x40 MLOAD DUP1 SWAP2 SUB SWAP1 LOG1 POP JUMP JUMPDEST PUSH1 0xE DUP2 DUP1 MLOAD PUSH1 0x20 DUP2 ADD DUP3 ADD DUP1 MLOAD DUP5 DUP3 MSTORE PUSH1 0x20 DUP4 ADD PUSH1 0x20 DUP6 ADD KECCAK256 DUP2 DUP4 MSTORE DUP1 SWAP6 POP POP POP POP POP POP PUSH0 SWAP2 POP SWAP1 POP DUP1 PUSH0 ADD PUSH0 SWAP1 SLOAD SWAP1 PUSH2 0x100 EXP SWAP1 DIV PUSH1 0xFF AND SWAP1 DUP1 PUSH0 ADD PUSH1 0x1 SWAP1 SLOAD SWAP1 PUSH2 0x100 EXP SWAP1 DIV PUSH1 0xFF AND SWAP1 DUP1 PUSH1 0x1 ADD SLOAD SWAP1 POP DUP4 JUMP JUMPDEST PUSH1 0x7 PUSH1 0x20 MSTORE DUP1 PUSH0 MSTORE PUSH1 0x40 PUSH0 KECCAK256 PUSH0 SWAP2 POP SWAP1 POP DUP1 SLOAD PUSH2 0x16B3 SWAP1 PUSH2 0x42F3 JUMP JUMPDEST DUP1 PUSH1 0x1F ADD PUSH1 0x20 DUP1 SWAP2 DIV MUL PUSH1 0x20 ADD PUSH1 0x40 MLOAD SWAP1 DUP2 ADD PUSH1 0x40 MSTORE DUP1 SWAP3 SWAP2 SWAP1 DUP2 DUP2 MSTORE PUSH1 0x20 ADD DUP3 DUP1 SLOAD PUSH2 0x16DF SWAP1 PUSH2 0x42F3 JUMP JUMPDEST DUP1 ISZERO PUSH2 0x172A JUMPI DUP1 PUSH1 0x1F LT PUSH2 0x1701 JUMPI PUSH2 0x100 DUP1 DUP4 SLOAD DIV MUL DUP4 MSTORE SWAP2 PUSH1 0x20 ADD SWAP2 PUSH2 0x172A JUMP JUMPDEST DUP3 ADD SWAP2 SWAP1 PUSH0 MSTORE PUSH1 0x20 PUSH0 KECCAK256 SWAP1 JUMPDEST DUP2 SLOAD DUP2 MSTORE SWAP1 PUSH1 0x1 ADD SWAP1 PUSH1 0x20 ADD DUP1 DUP4 GT PUSH2 0x170D JUMPI DUP3 SWAP1 SUB PUSH1 0x1F AND DUP3 ADD SWAP2 JUMPDEST POP POP POP POP POP DUP2 JUMP JUMPDEST PUSH0 PUSH2 0x173C DUP5 PUSH2 0x22D2 JUMP JUMPDEST SWAP1 POP PUSH1 0xE DUP5 PUSH1 0x40 MLOAD PUSH2 0x174E SWAP2 SWAP1 PUSH2 0x3E14 JUMP JUMPDEST SWAP1 DUP2 MSTORE PUSH1 0x20 ADD PUSH1 0x40 MLOAD DUP1 SWAP2 SUB SWAP1 KECCAK256 PUSH1 0x1 ADD SLOAD CALLVALUE EQ PUSH2 0x17A1 JUMPI PUSH1 0x40 MLOAD PUSH32 0x8C379A000000000000000000000000000000000000000000000000000000000 DUP2 MSTORE PUSH1 0x4 ADD PUSH2 0x1798 SWAP1 PUSH2 0x4472 JUMP JUMPDEST PUSH1 0x40 MLOAD DUP1 SWAP2 SUB SWAP1 REVERT JUMPDEST DUP1 PUSH1 0x60 ADD MLOAD PUSH2 0x17E5 JUMPI PUSH1 0x40 MLOAD PUSH32 0x8C379A000000000000000000000000000000000000000000000000000000000 DUP2 MSTORE PUSH1 0x4 ADD PUSH2 0x17DC SWAP1 PUSH2 0x44DA JUMP JUMPDEST PUSH1 0x40 MLOAD DUP1 SWAP2 SUB SWAP1 REVERT JUMPDEST PUSH1 0xE DUP5 PUSH1 0x40 MLOAD PUSH2 0x17F5 SWAP2 SWAP1 PUSH2 0x3E14 JUMP JUMPDEST SWAP1 DUP2 MSTORE PUSH1 0x20 ADD PUSH1 0x40 MLOAD DUP1 SWAP2 SUB SWAP1 KECCAK256 PUSH0 ADD PUSH0 SWAP1 SLOAD SWAP1 PUSH2 0x100 EXP SWAP1 DIV PUSH1 0xFF AND PUSH1 0xFF AND DUP3 MLOAD EQ PUSH2 0x1857 JUMPI PUSH1 0x40 MLOAD PUSH32 0x8C379A000000000000000000000000000000000000000000000000000000000 DUP2 MSTORE PUSH1 0x4 ADD PUSH2 0x184E SWAP1 PUSH2 0x4542 JUMP JUMPDEST PUSH1 0x40 MLOAD DUP1 SWAP2 SUB SWAP1 REVERT JUMPDEST PUSH0 ISZERO ISZERO PUSH2 0x1865 DUP4 DUP5 MLOAD PUSH2 0x2B42 JUMP JUMPDEST ISZERO ISZERO EQ PUSH2 0x18A7 JUMPI PUSH1 0x40 MLOAD PUSH32 0x8C379A000000000000000000000000000000000000000000000000000000000 DUP2 MSTORE PUSH1 0x4 ADD PUSH2 0x189E SWAP1 PUSH2 0x45AA JUMP JUMPDEST PUSH1 0x40 MLOAD DUP1 SWAP2 SUB SWAP1 REVERT JUMPDEST PUSH2 0x384 DUP2 PUSH1 0xE0 ADD MLOAD PUSH2 0x18B9 SWAP2 SWAP1 PUSH2 0x45C8 JUMP JUMPDEST TIMESTAMP GT ISZERO PUSH2 0x18FB JUMPI PUSH1 0x40 MLOAD PUSH32 0x8C379A000000000000000000000000000000000000000000000000000000000 DUP2 MSTORE PUSH1 0x4 ADD PUSH2 0x18F2 SWAP1 PUSH2 0x4645 JUMP JUMPDEST PUSH1 0x40 MLOAD DUP1 SWAP2 SUB SWAP1 REVERT JUMPDEST PUSH0 PUSH1 0x40 MLOAD DUP1 PUSH1 0x60 ADD PUSH1 0x40 MSTORE DUP1 DUP5 DUP2 MSTORE PUSH1 0x20 ADD CALLER PUSH20 0xFFFFFFFFFFFFFFFFFFFFFFFFFFFFFFFFFFFFFFFF AND DUP2 MSTORE PUSH1 0x20 ADD PUSH0 ISZERO ISZERO DUP2 MSTORE POP SWAP1 POP PUSH0 DUP4 PUSH1 0x40 MLOAD PUSH1 0x20 ADD PUSH2 0x1943 SWAP2 SWAP1 PUSH2 0x46EF JUMP JUMPDEST PUSH1 0x40 MLOAD PUSH1 0x20 DUP2 DUP4 SUB SUB DUP2 MSTORE SWAP1 PUSH1 0x40 MSTORE DUP1 MLOAD SWAP1 PUSH1 0x20 ADD KECCAK256 SWAP1 POP PUSH1 0xD DUP7 PUSH1 0x40 MLOAD PUSH2 0x196B SWAP2 SWAP1 PUSH2 0x3E14 JUMP JUMPDEST SWAP1 DUP2 MSTORE PUSH1 0x20 ADD PUSH1 0x40 MLOAD DUP1 SWAP2 SUB SWAP1 KECCAK256 PUSH1 0x1 ADD PUSH0 DUP3 DUP2 MSTORE PUSH1 0x20 ADD SWAP1 DUP2 MSTORE PUSH1 0x20 ADD PUSH0 KECCAK256 PUSH0 DUP2 DUP2 SWAP1 SLOAD SWAP1 PUSH2 0x100 EXP SWAP1 DIV PUSH1 0xFF AND DUP1 SWAP3 SWAP2 SWAP1 PUSH2 0x19A7 SWAP1 PUSH2 0x4705 JUMP JUMPDEST SWAP2 SWAP1 PUSH2 0x100 EXP DUP2 SLOAD DUP2 PUSH1 0xFF MUL NOT AND SWAP1 DUP4 PUSH1 0xFF AND MUL OR SWAP1 SSTORE POP POP DUP2 PUSH1 0xD DUP8 PUSH1 0x40 MLOAD PUSH2 0x19D1 SWAP2 SWAP1 PUSH2 0x3E14 JUMP JUMPDEST SWAP1 DUP2 MSTORE PUSH1 0x20 ADD PUSH1 0x40 MLOAD DUP1 SWAP2 SUB SWAP1 KECCAK256 PUSH0 ADD DUP7 PUSH1 0x40 MLOAD PUSH2 0x19EF SWAP2 SWAP1 PUSH2 0x3E14 JUMP JUMPDEST SWAP1 DUP2 MSTORE PUSH1 0x20 ADD PUSH1 0x40 MLOAD DUP1 SWAP2 SUB SWAP1 KECCAK256 PUSH0 DUP3 ADD MLOAD DUP2 PUSH0 ADD SWAP1 DUP1 MLOAD SWAP1 PUSH1 0x20 ADD SWAP1 PUSH2 0x1A17 SWAP3 SWAP2 SWAP1 PUSH2 0x310A JUMP JUMPDEST POP PUSH1 0x20 DUP3 ADD MLOAD DUP2 PUSH1 0x1 ADD PUSH0 PUSH2 0x100 EXP DUP2 SLOAD DUP2 PUSH20 0xFFFFFFFFFFFFFFFFFFFFFFFFFFFFFFFFFFFFFFFF MUL NOT AND SWAP1 DUP4 PUSH20 0xFFFFFFFFFFFFFFFFFFFFFFFFFFFFFFFFFFFFFFFF AND MUL OR SWAP1 SSTORE POP PUSH1 0x40 DUP3 ADD MLOAD DUP2 PUSH1 0x1 ADD PUSH1 0x14 PUSH2 0x100 EXP DUP2 SLOAD DUP2 PUSH1 0xFF MUL NOT AND SWAP1 DUP4 ISZERO ISZERO MUL OR SWAP1 SSTORE POP SWAP1 POP POP CALLVALUE PUSH1 0x9 PUSH1 0x1 ADD PUSH0 PUSH1 0x9 PUSH1 0x2 ADD DUP10 PUSH1 0x40 MLOAD PUSH2 0x1A9B SWAP2 SWAP1 PUSH2 0x3E14 JUMP JUMPDEST SWAP1 DUP2 MSTORE PUSH1 0x20 ADD PUSH1 0x40 MLOAD DUP1 SWAP2 SUB SWAP1 KECCAK256 PUSH0 SWAP1 SLOAD SWAP1 PUSH2 0x100 EXP SWAP1 DIV PUSH1 0xFF AND PUSH1 0xFF AND PUSH1 0xFF AND DUP2 MSTORE PUSH1 0x20 ADD SWAP1 DUP2 MSTORE PUSH1 0x20 ADD PUSH0 KECCAK256 PUSH1 0x3 ADD PUSH0 DUP3 DUP3 SLOAD PUSH2 0x1ADA SWAP2 SWAP1 PUSH2 0x472D JUMP JUMPDEST SWAP3 POP POP DUP2 SWAP1 SSTORE POP CALLVALUE PUSH1 0x9 PUSH0 ADD PUSH0 DUP3 DUP3 SLOAD PUSH2 0x1AF4 SWAP2 SWAP1 PUSH2 0x472D JUMP JUMPDEST SWAP3 POP POP DUP2 SWAP1 SSTORE POP POP POP POP POP POP POP JUMP JUMPDEST PUSH1 0x3 PUSH0 CALLER PUSH20 0xFFFFFFFFFFFFFFFFFFFFFFFFFFFFFFFFFFFFFFFF AND PUSH20 0xFFFFFFFFFFFFFFFFFFFFFFFFFFFFFFFFFFFFFFFF AND DUP2 MSTORE PUSH1 0x20 ADD SWAP1 DUP2 MSTORE PUSH1 0x20 ADD PUSH0 KECCAK256 PUSH0 SWAP1 SLOAD SWAP1 PUSH2 0x100 EXP SWAP1 DIV PUSH1 0xFF AND PUSH2 0x1B8C JUMPI PUSH1 0x40 MLOAD PUSH32 0x8C379A000000000000000000000000000000000000000000000000000000000 DUP2 MSTORE PUSH1 0x4 ADD PUSH2 0x1B83 SWAP1 PUSH2 0x436D JUMP JUMPDEST PUSH1 0x40 MLOAD DUP1 SWAP2 SUB SWAP1 REVERT JUMPDEST PUSH1 0x1 PUSH1 0x3 PUSH0 DUP4 PUSH20 0xFFFFFFFFFFFFFFFFFFFFFFFFFFFFFFFFFFFFFFFF AND PUSH20 0xFFFFFFFFFFFFFFFFFFFFFFFFFFFFFFFFFFFFFFFF AND DUP2 MSTORE PUSH1 0x20 ADD SWAP1 DUP2 MSTORE PUSH1 0x20 ADD PUSH0 KECCAK256 PUSH0 PUSH2 0x100 EXP DUP2 SLOAD DUP2 PUSH1 0xFF MUL NOT AND SWAP1 DUP4 ISZERO ISZERO MUL OR SWAP1 SSTORE POP POP JUMP JUMPDEST PUSH1 0x2 PUSH0 SWAP1 SLOAD SWAP1 PUSH2 0x100 EXP SWAP1 DIV PUSH20 0xFFFFFFFFFFFFFFFFFFFFFFFFFFFFFFFFFFFFFFFF AND DUP2 JUMP JUMPDEST PUSH1 0x6 PUSH1 0x4 SWAP1 SLOAD SWAP1 PUSH2 0x100 EXP SWAP1 DIV PUSH2 0xFFFF AND DUP2 JUMP JUMPDEST PUSH1 0x3 PUSH0 CALLER PUSH20 0xFFFFFFFFFFFFFFFFFFFFFFFFFFFFFFFFFFFFFFFF AND PUSH20 0xFFFFFFFFFFFFFFFFFFFFFFFFFFFFFFFFFFFFFFFF AND DUP2 MSTORE PUSH1 0x20 ADD SWAP1 DUP2 MSTORE PUSH1 0x20 ADD PUSH0 KECCAK256 PUSH0 SWAP1 SLOAD SWAP1 PUSH2 0x100 EXP SWAP1 DIV PUSH1 0xFF AND PUSH2 0x1CA6 JUMPI PUSH1 0x40 MLOAD PUSH32 0x8C379A000000000000000000000000000000000000000000000000000000000 DUP2 MSTORE PUSH1 0x4 ADD PUSH2 0x1C9D SWAP1 PUSH2 0x436D JUMP JUMPDEST PUSH1 0x40 MLOAD DUP1 SWAP2 SUB SWAP1 REVERT JUMPDEST PUSH2 0x1CAF DUP4 PUSH2 0x1116 JUMP JUMPDEST PUSH1 0x60 PUSH0 PUSH1 0x40 MLOAD DUP1 PUSH2 0x120 ADD PUSH1 0x40 MSTORE DUP1 DUP7 DUP2 MSTORE PUSH1 0x20 ADD DUP8 DUP2 MSTORE PUSH1 0x20 ADD PUSH1 0x9 PUSH1 0x3 ADD PUSH0 SWAP1 SLOAD SWAP1 PUSH2 0x100 EXP SWAP1 DIV PUSH1 0xFF AND PUSH1 0xFF AND DUP2 MSTORE PUSH1 0x20 ADD PUSH1 0x1 ISZERO ISZERO DUP2 MSTORE PUSH1 0x20 ADD PUSH0 DUP2 MSTORE PUSH1 0x20 ADD PUSH0 DUP2 MSTORE PUSH1 0x20 ADD DUP4 DUP2 MSTORE PUSH1 0x20 ADD DUP6 DUP2 MSTORE PUSH1 0x20 ADD DUP5 PUSH1 0xFF AND DUP2 MSTORE POP SWAP1 POP DUP1 PUSH1 0x9 PUSH1 0x1 ADD PUSH0 PUSH1 0x9 PUSH1 0x3 ADD PUSH0 SWAP1 SLOAD SWAP1 PUSH2 0x100 EXP SWAP1 DIV PUSH1 0xFF AND PUSH1 0xFF AND PUSH1 0xFF AND DUP2 MSTORE PUSH1 0x20 ADD SWAP1 DUP2 MSTORE PUSH1 0x20 ADD PUSH0 KECCAK256 PUSH0 DUP3 ADD MLOAD DUP2 PUSH0 ADD SWAP1 DUP2 PUSH2 0x1D4D SWAP2 SWAP1 PUSH2 0x48F7 JUMP JUMPDEST POP PUSH1 0x20 DUP3 ADD MLOAD DUP2 PUSH1 0x1 ADD SWAP1 DUP2 PUSH2 0x1D63 SWAP2 SWAP1 PUSH2 0x48F7 JUMP JUMPDEST POP PUSH1 0x40 DUP3 ADD MLOAD DUP2 PUSH1 0x2 ADD PUSH0 PUSH2 0x100 EXP DUP2 SLOAD DUP2 PUSH1 0xFF MUL NOT AND SWAP1 DUP4 PUSH1 0xFF AND MUL OR SWAP1 SSTORE POP PUSH1 0x60 DUP3 ADD MLOAD DUP2 PUSH1 0x2 ADD PUSH1 0x1 PUSH2 0x100 EXP DUP2 SLOAD DUP2 PUSH1 0xFF MUL NOT AND SWAP1 DUP4 ISZERO ISZERO MUL OR SWAP1 SSTORE POP PUSH1 0x80 DUP3 ADD MLOAD DUP2 PUSH1 0x3 ADD SSTORE PUSH1 0xA0 DUP3 ADD MLOAD DUP2 PUSH1 0x4 ADD SSTORE PUSH1 0xC0 DUP3 ADD MLOAD DUP2 PUSH1 0x5 ADD SWAP1 DUP1 MLOAD SWAP1 PUSH1 0x20 ADD SWAP1 PUSH2 0x1DD4 SWAP3 SWAP2 SWAP1 PUSH2 0x310A JUMP JUMPDEST POP PUSH1 0xE0 DUP3 ADD MLOAD DUP2 PUSH1 0x6 ADD SSTORE PUSH2 0x100 DUP3 ADD MLOAD DUP2 PUSH1 0x7 ADD PUSH0 PUSH2 0x100 EXP DUP2 SLOAD DUP2 PUSH1 0xFF MUL NOT AND SWAP1 DUP4 PUSH1 0xFF AND MUL OR SWAP1 SSTORE POP SWAP1 POP POP PUSH1 0x9 PUSH1 0x3 ADD PUSH0 SWAP1 SLOAD SWAP1 PUSH2 0x100 EXP SWAP1 DIV PUSH1 0xFF AND PUSH1 0x9 PUSH1 0x2 ADD DUP8 PUSH1 0x40 MLOAD PUSH2 0x1E28 SWAP2 SWAP1 PUSH2 0x3E14 JUMP JUMPDEST SWAP1 DUP2 MSTORE PUSH1 0x20 ADD PUSH1 0x40 MLOAD DUP1 SWAP2 SUB SWAP1 KECCAK256 PUSH0 PUSH2 0x100 EXP DUP2 SLOAD DUP2 PUSH1 0xFF MUL NOT AND SWAP1 DUP4 PUSH1 0xFF AND MUL OR SWAP1 SSTORE POP PUSH1 0xF PUSH0 DUP5 PUSH1 0xFF AND PUSH1 0xFF AND DUP2 MSTORE PUSH1 0x20 ADD SWAP1 DUP2 MSTORE PUSH1 0x20 ADD PUSH0 KECCAK256 PUSH0 ADD PUSH0 SWAP1 SLOAD SWAP1 PUSH2 0x100 EXP SWAP1 DIV PUSH1 0xFF AND PUSH1 0xE DUP8 PUSH1 0x40 MLOAD PUSH2 0x1E83 SWAP2 SWAP1 PUSH2 0x3E14 JUMP JUMPDEST SWAP1 DUP2 MSTORE PUSH1 0x20 ADD PUSH1 0x40 MLOAD DUP1 SWAP2 SUB SWAP1 KECCAK256 PUSH0 ADD PUSH0 PUSH2 0x100 EXP DUP2 SLOAD DUP2 PUSH1 0xFF MUL NOT AND SWAP1 DUP4 PUSH1 0xFF AND MUL OR SWAP1 SSTORE POP PUSH1 0xF PUSH0 DUP5 PUSH1 0xFF AND PUSH1 0xFF AND DUP2 MSTORE PUSH1 0x20 ADD SWAP1 DUP2 MSTORE PUSH1 0x20 ADD PUSH0 KECCAK256 PUSH0 ADD PUSH1 0x1 SWAP1 SLOAD SWAP1 PUSH2 0x100 EXP SWAP1 DIV PUSH1 0xFF AND PUSH1 0xE DUP8 PUSH1 0x40 MLOAD PUSH2 0x1EE1 SWAP2 SWAP1 PUSH2 0x3E14 JUMP JUMPDEST SWAP1 DUP2 MSTORE PUSH1 0x20 ADD PUSH1 0x40 MLOAD DUP1 SWAP2 SUB SWAP1 KECCAK256 PUSH0 ADD PUSH1 0x1 PUSH2 0x100 EXP DUP2 SLOAD DUP2 PUSH1 0xFF MUL NOT AND SWAP1 DUP4 PUSH1 0xFF AND MUL OR SWAP1 SSTORE POP PUSH1 0xF PUSH0 DUP5 PUSH1 0xFF AND PUSH1 0xFF AND DUP2 MSTORE PUSH1 0x20 ADD SWAP1 DUP2 MSTORE PUSH1 0x20 ADD PUSH0 KECCAK256 PUSH1 0x1 ADD SLOAD PUSH1 0xE DUP8 PUSH1 0x40 MLOAD PUSH2 0x1F34 SWAP2 SWAP1 PUSH2 0x3E14 JUMP JUMPDEST SWAP1 DUP2 MSTORE PUSH1 0x20 ADD PUSH1 0x40 MLOAD DUP1 SWAP2 SUB SWAP1 KECCAK256 PUSH1 0x1 ADD DUP2 SWAP1 SSTORE POP PUSH0 PUSH0 SWAP1 POP JUMPDEST PUSH0 PUSH1 0xF PUSH0 DUP7 PUSH1 0xFF AND PUSH1 0xFF AND DUP2 MSTORE PUSH1 0x20 ADD SWAP1 DUP2 MSTORE PUSH1 0x20 ADD PUSH0 KECCAK256 PUSH1 0x2 ADD PUSH0 DUP4 PUSH1 0xFF AND PUSH1 0xFF AND DUP2 MSTORE PUSH1 0x20 ADD SWAP1 DUP2 MSTORE PUSH1 0x20 ADD PUSH0 KECCAK256 PUSH0 SWAP1 SLOAD SWAP1 PUSH2 0x100 EXP SWAP1 DIV PUSH1 0xFF AND PUSH1 0xFF AND EQ PUSH2 0x202F JUMPI PUSH1 0xF PUSH0 DUP6 PUSH1 0xFF AND PUSH1 0xFF AND DUP2 MSTORE PUSH1 0x20 ADD SWAP1 DUP2 MSTORE PUSH1 0x20 ADD PUSH0 KECCAK256 PUSH1 0x2 ADD PUSH0 DUP3 PUSH1 0xFF AND PUSH1 0xFF AND DUP2 MSTORE PUSH1 0x20 ADD SWAP1 DUP2 MSTORE PUSH1 0x20 ADD PUSH0 KECCAK256 PUSH0 SWAP1 SLOAD SWAP1 PUSH2 0x100 EXP SWAP1 DIV PUSH1 0xFF AND PUSH1 0xE DUP9 PUSH1 0x40 MLOAD PUSH2 0x1FDF SWAP2 SWAP1 PUSH2 0x3E14 JUMP JUMPDEST SWAP1 DUP2 MSTORE PUSH1 0x20 ADD PUSH1 0x40 MLOAD DUP1 SWAP2 SUB SWAP1 KECCAK256 PUSH1 0x2 ADD PUSH0 DUP4 PUSH1 0xFF AND PUSH1 0xFF AND DUP2 MSTORE PUSH1 0x20 ADD SWAP1 DUP2 MSTORE PUSH1 0x20 ADD PUSH0 KECCAK256 PUSH0 PUSH2 0x100 EXP DUP2 SLOAD DUP2 PUSH1 0xFF MUL NOT AND SWAP1 DUP4 PUSH1 0xFF AND MUL OR SWAP1 SSTORE POP DUP1 DUP1 PUSH2 0x2027 SWAP1 PUSH2 0x4705 JUMP JUMPDEST SWAP2 POP POP PUSH2 0x1F4E JUMP JUMPDEST PUSH1 0x9 PUSH1 0x3 ADD PUSH0 DUP2 DUP2 SWAP1 SLOAD SWAP1 PUSH2 0x100 EXP SWAP1 DIV PUSH1 0xFF AND DUP1 SWAP3 SWAP2 SWAP1 PUSH2 0x2050 SWAP1 PUSH2 0x4705 JUMP JUMPDEST SWAP2 SWAP1 PUSH2 0x100 EXP DUP2 SLOAD DUP2 PUSH1 0xFF MUL NOT AND SWAP1 DUP4 PUSH1 0xFF AND MUL OR SWAP1 SSTORE POP POP POP POP POP POP POP POP POP JUMP JUMPDEST PUSH1 0x3 PUSH0 CALLER PUSH20 0xFFFFFFFFFFFFFFFFFFFFFFFFFFFFFFFFFFFFFFFF AND PUSH20 0xFFFFFFFFFFFFFFFFFFFFFFFFFFFFFFFFFFFFFFFF AND DUP2 MSTORE PUSH1 0x20 ADD SWAP1 DUP2 MSTORE PUSH1 0x20 ADD PUSH0 KECCAK256 PUSH0 SWAP1 SLOAD SWAP1 PUSH2 0x100 EXP SWAP1 DIV PUSH1 0xFF AND PUSH2 0x20FB JUMPI PUSH1 0x40 MLOAD PUSH32 0x8C379A000000000000000000000000000000000000000000000000000000000 DUP2 MSTORE PUSH1 0x4 ADD PUSH2 0x20F2 SWAP1 PUSH2 0x436D JUMP JUMPDEST PUSH1 0x40 MLOAD DUP1 SWAP2 SUB SWAP1 REVERT JUMPDEST PUSH0 PUSH1 0x9 PUSH1 0x2 ADD DUP5 PUSH1 0x40 MLOAD PUSH2 0x210F SWAP2 SWAP1 PUSH2 0x3E14 JUMP JUMPDEST SWAP1 DUP2 MSTORE PUSH1 0x20 ADD PUSH1 0x40 MLOAD DUP1 SWAP2 SUB SWAP1 KECCAK256 PUSH0 SWAP1 SLOAD SWAP1 PUSH2 0x100 EXP SWAP1 DIV PUSH1 0xFF AND SWAP1 POP PUSH1 0x9 PUSH1 0x3 ADD PUSH0 SWAP1 SLOAD SWAP1 PUSH2 0x100 EXP SWAP1 DIV PUSH1 0xFF AND PUSH1 0xFF AND DUP2 PUSH1 0xFF AND LT PUSH2 0x2185 JUMPI PUSH1 0x40 MLOAD PUSH32 0x8C379A000000000000000000000000000000000000000000000000000000000 DUP2 MSTORE PUSH1 0x4 ADD PUSH2 0x217C SWAP1 PUSH2 0x4A10 JUMP JUMPDEST PUSH1 0x40 MLOAD DUP1 SWAP2 SUB SWAP1 REVERT JUMPDEST PUSH0 PUSH1 0x9 PUSH1 0x1 ADD PUSH0 DUP4 PUSH1 0xFF AND PUSH1 0xFF AND DUP2 MSTORE PUSH1 0x20 ADD SWAP1 DUP2 MSTORE PUSH1 0x20 ADD PUSH0 KECCAK256 SWAP1 POP PUSH0 DUP2 PUSH1 0x2 ADD PUSH1 0x1 PUSH2 0x100 EXP DUP2 SLOAD DUP2 PUSH1 0xFF MUL NOT AND SWAP1 DUP4 ISZERO ISZERO MUL OR SWAP1 SSTORE POP PUSH1 0xE DUP6 PUSH1 0x40 MLOAD PUSH2 0x21CE SWAP2 SWAP1 PUSH2 0x3E14 JUMP JUMPDEST SWAP1 DUP2 MSTORE PUSH1 0x20 ADD PUSH1 0x40 MLOAD DUP1 SWAP2 SUB SWAP1 KECCAK256 PUSH0 ADD PUSH0 SWAP1 SLOAD SWAP1 PUSH2 0x100 EXP SWAP1 DIV PUSH1 0xFF AND PUSH1 0xFF AND DUP5 DUP5 SWAP1 POP EQ PUSH2 0x2232 JUMPI PUSH1 0x40 MLOAD PUSH32 0x8C379A000000000000000000000000000000000000000000000000000000000 DUP2 MSTORE PUSH1 0x4 ADD PUSH2 0x2229 SWAP1 PUSH2 0x4A78 JUMP JUMPDEST PUSH1 0x40 MLOAD DUP1 SWAP2 SUB SWAP1 REVERT JUMPDEST DUP1 PUSH1 0x5 ADD PUSH0 PUSH2 0x2241 SWAP2 SWAP1 PUSH2 0x31AC JUMP JUMPDEST PUSH0 PUSH0 SWAP1 POP JUMPDEST DUP5 DUP5 SWAP1 POP DUP2 LT ISZERO PUSH2 0x22CA JUMPI DUP2 PUSH1 0x5 ADD DUP6 DUP6 DUP4 DUP2 DUP2 LT PUSH2 0x2268 JUMPI PUSH2 0x2267 PUSH2 0x4A96 JUMP JUMPDEST JUMPDEST SWAP1 POP PUSH1 0x20 MUL ADD PUSH1 0x20 DUP2 ADD SWAP1 PUSH2 0x227D SWAP2 SWAP1 PUSH2 0x3724 JUMP JUMPDEST SWAP1 DUP1 PUSH1 0x1 DUP2 SLOAD ADD DUP1 DUP3 SSTORE DUP1 SWAP2 POP POP PUSH1 0x1 SWAP1 SUB SWAP1 PUSH0 MSTORE PUSH1 0x20 PUSH0 KECCAK256 SWAP1 PUSH1 0x20 SWAP2 DUP3 DUP3 DIV ADD SWAP2 SWAP1 MOD SWAP1 SWAP2 SWAP1 SWAP2 SWAP1 SWAP2 PUSH2 0x100 EXP DUP2 SLOAD DUP2 PUSH1 0xFF MUL NOT AND SWAP1 DUP4 PUSH1 0xFF AND MUL OR SWAP1 SSTORE POP DUP1 DUP1 PUSH1 0x1 ADD SWAP2 POP POP PUSH2 0x2246 JUMP JUMPDEST POP POP POP POP POP POP JUMP JUMPDEST PUSH2 0x22DA PUSH2 0x30BC JUMP JUMPDEST PUSH1 0x9 PUSH1 0x1 ADD PUSH0 PUSH1 0x9 PUSH1 0x2 ADD DUP5 PUSH1 0x40 MLOAD PUSH2 0x22F3 SWAP2 SWAP1 PUSH2 0x3E14 JUMP JUMPDEST SWAP1 DUP2 MSTORE PUSH1 0x20 ADD PUSH1 0x40 MLOAD DUP1 SWAP2 SUB SWAP1 KECCAK256 PUSH0 SWAP1 SLOAD SWAP1 PUSH2 0x100 EXP SWAP1 DIV PUSH1 0xFF AND PUSH1 0xFF AND PUSH1 0xFF AND DUP2 MSTORE PUSH1 0x20 ADD SWAP1 DUP2 MSTORE PUSH1 0x20 ADD PUSH0 KECCAK256 PUSH1 0x40 MLOAD DUP1 PUSH2 0x120 ADD PUSH1 0x40 MSTORE SWAP1 DUP2 PUSH0 DUP3 ADD DUP1 SLOAD PUSH2 0x233C SWAP1 PUSH2 0x42F3 JUMP JUMPDEST DUP1 PUSH1 0x1F ADD PUSH1 0x20 DUP1 SWAP2 DIV MUL PUSH1 0x20 ADD PUSH1 0x40 MLOAD SWAP1 DUP2 ADD PUSH1 0x40 MSTORE DUP1 SWAP3 SWAP2 SWAP1 DUP2 DUP2 MSTORE PUSH1 0x20 ADD DUP3 DUP1 SLOAD PUSH2 0x2368 SWAP1 PUSH2 0x42F3 JUMP JUMPDEST DUP1 ISZERO PUSH2 0x23B3 JUMPI DUP1 PUSH1 0x1F LT PUSH2 0x238A JUMPI PUSH2 0x100 DUP1 DUP4 SLOAD DIV MUL DUP4 MSTORE SWAP2 PUSH1 0x20 ADD SWAP2 PUSH2 0x23B3 JUMP JUMPDEST DUP3 ADD SWAP2 SWAP1 PUSH0 MSTORE PUSH1 0x20 PUSH0 KECCAK256 SWAP1 JUMPDEST DUP2 SLOAD DUP2 MSTORE SWAP1 PUSH1 0x1 ADD SWAP1 PUSH1 0x20 ADD DUP1 DUP4 GT PUSH2 0x2396 JUMPI DUP3 SWAP1 SUB PUSH1 0x1F AND DUP3 ADD SWAP2 JUMPDEST POP POP POP POP POP DUP2 MSTORE PUSH1 0x20 ADD PUSH1 0x1 DUP3 ADD DUP1 SLOAD PUSH2 0x23CC SWAP1 PUSH2 0x42F3 JUMP JUMPDEST DUP1 PUSH1 0x1F ADD PUSH1 0x20 DUP1 SWAP2 DIV MUL PUSH1 0x20 ADD PUSH1 0x40 MLOAD SWAP1 DUP2 ADD PUSH1 0x40 MSTORE DUP1 SWAP3 SWAP2 SWAP1 DUP2 DUP2 MSTORE PUSH1 0x20 ADD DUP3 DUP1 SLOAD PUSH2 0x23F8 SWAP1 PUSH2 0x42F3 JUMP JUMPDEST DUP1 ISZERO PUSH2 0x2443 JUMPI DUP1 PUSH1 0x1F LT PUSH2 0x241A JUMPI PUSH2 0x100 DUP1 DUP4 SLOAD DIV MUL DUP4 MSTORE SWAP2 PUSH1 0x20 ADD SWAP2 PUSH2 0x2443 JUMP JUMPDEST DUP3 ADD SWAP2 SWAP1 PUSH0 MSTORE PUSH1 0x20 PUSH0 KECCAK256 SWAP1 JUMPDEST DUP2 SLOAD DUP2 MSTORE SWAP1 PUSH1 0x1 ADD SWAP1 PUSH1 0x20 ADD DUP1 DUP4 GT PUSH2 0x2426 JUMPI DUP3 SWAP1 SUB PUSH1 0x1F AND DUP3 ADD SWAP2 JUMPDEST POP POP POP POP POP DUP2 MSTORE PUSH1 0x20 ADD PUSH1 0x2 DUP3 ADD PUSH0 SWAP1 SLOAD SWAP1 PUSH2 0x100 EXP SWAP1 DIV PUSH1 0xFF AND PUSH1 0xFF AND PUSH1 0xFF AND DUP2 MSTORE PUSH1 0x20 ADD PUSH1 0x2 DUP3 ADD PUSH1 0x1 SWAP1 SLOAD SWAP1 PUSH2 0x100 EXP SWAP1 DIV PUSH1 0xFF AND ISZERO ISZERO ISZERO ISZERO DUP2 MSTORE PUSH1 0x20 ADD PUSH1 0x3 DUP3 ADD SLOAD DUP2 MSTORE PUSH1 0x20 ADD PUSH1 0x4 DUP3 ADD SLOAD DUP2 MSTORE PUSH1 0x20 ADD PUSH1 0x5 DUP3 ADD DUP1 SLOAD DUP1 PUSH1 0x20 MUL PUSH1 0x20 ADD PUSH1 0x40 MLOAD SWAP1 DUP2 ADD PUSH1 0x40 MSTORE DUP1 SWAP3 SWAP2 SWAP1 DUP2 DUP2 MSTORE PUSH1 0x20 ADD DUP3 DUP1 SLOAD DUP1 ISZERO PUSH2 0x2508 JUMPI PUSH1 0x20 MUL DUP3 ADD SWAP2 SWAP1 PUSH0 MSTORE PUSH1 0x20 PUSH0 KECCAK256 SWAP1 PUSH0 SWAP1 JUMPDEST DUP3 DUP3 SWAP1 SLOAD SWAP1 PUSH2 0x100 EXP SWAP1 DIV PUSH1 0xFF AND PUSH1 0xFF AND DUP2 MSTORE PUSH1 0x20 ADD SWAP1 PUSH1 0x1 ADD SWAP1 PUSH1 0x20 DUP3 PUSH0 ADD DIV SWAP3 DUP4 ADD SWAP3 PUSH1 0x1 SUB DUP3 MUL SWAP2 POP DUP1 DUP5 GT PUSH2 0x24D2 JUMPI SWAP1 POP JUMPDEST POP POP POP POP POP DUP2 MSTORE PUSH1 0x20 ADD PUSH1 0x6 DUP3 ADD SLOAD DUP2 MSTORE PUSH1 0x20 ADD PUSH1 0x7 DUP3 ADD PUSH0 SWAP1 SLOAD SWAP1 PUSH2 0x100 EXP SWAP1 DIV PUSH1 0xFF AND PUSH1 0xFF AND PUSH1 0xFF AND DUP2 MSTORE POP POP SWAP1 POP SWAP2 SWAP1 POP JUMP JUMPDEST PUSH2 0x2546 PUSH2 0x2C25 JUMP JUMPDEST PUSH2 0x254F DUP2 PUSH2 0x2CB5 JUMP JUMPDEST POP JUMP JUMPDEST PUSH0 PUSH0 PUSH0 PUSH0 SWAP1 POP JUMPDEST DUP5 MLOAD DUP2 PUSH1 0xFF AND LT ISZERO PUSH2 0x25F7 JUMPI PUSH0 PUSH0 SWAP1 POP JUMPDEST DUP5 MLOAD DUP2 PUSH1 0xFF AND LT ISZERO PUSH2 0x25E3 JUMPI DUP5 DUP2 PUSH1 0xFF AND DUP2 MLOAD DUP2 LT PUSH2 0x258C JUMPI PUSH2 0x258B PUSH2 0x4A96 JUMP JUMPDEST JUMPDEST PUSH1 0x20 MUL PUSH1 0x20 ADD ADD MLOAD PUSH1 0xFF AND DUP7 DUP4 PUSH1 0xFF AND DUP2 MLOAD DUP2 LT PUSH2 0x25AD JUMPI PUSH2 0x25AC PUSH2 0x4A96 JUMP JUMPDEST JUMPDEST PUSH1 0x20 MUL PUSH1 0x20 ADD ADD MLOAD PUSH1 0xFF AND SUB PUSH2 0x25D0 JUMPI DUP3 DUP1 PUSH2 0x25C8 SWAP1 PUSH2 0x4705 JUMP JUMPDEST SWAP4 POP POP PUSH2 0x25E3 JUMP JUMPDEST DUP1 DUP1 PUSH2 0x25DB SWAP1 PUSH2 0x4705 JUMP JUMPDEST SWAP2 POP POP PUSH2 0x256A JUMP JUMPDEST POP DUP1 DUP1 PUSH2 0x25EF SWAP1 PUSH2 0x4705 JUMP JUMPDEST SWAP2 POP POP PUSH2 0x2559 JUMP JUMPDEST POP DUP1 SWAP2 POP POP SWAP3 SWAP2 POP POP JUMP JUMPDEST PUSH0 PUSH1 0x7 PUSH0 DUP6 DUP2 MSTORE PUSH1 0x20 ADD SWAP1 DUP2 MSTORE PUSH1 0x20 ADD PUSH0 KECCAK256 DUP1 SLOAD PUSH2 0x261F SWAP1 PUSH2 0x42F3 JUMP JUMPDEST DUP1 PUSH1 0x1F ADD PUSH1 0x20 DUP1 SWAP2 DIV MUL PUSH1 0x20 ADD PUSH1 0x40 MLOAD SWAP1 DUP2 ADD PUSH1 0x40 MSTORE DUP1 SWAP3 SWAP2 SWAP1 DUP2 DUP2 MSTORE PUSH1 0x20 ADD DUP3 DUP1 SLOAD PUSH2 0x264B SWAP1 PUSH2 0x42F3 JUMP JUMPDEST DUP1 ISZERO PUSH2 0x2696 JUMPI DUP1 PUSH1 0x1F LT PUSH2 0x266D JUMPI PUSH2 0x100 DUP1 DUP4 SLOAD DIV MUL DUP4 MSTORE SWAP2 PUSH1 0x20 ADD SWAP2 PUSH2 0x2696 JUMP JUMPDEST DUP3 ADD SWAP2 SWAP1 PUSH0 MSTORE PUSH1 0x20 PUSH0 KECCAK256 SWAP1 JUMPDEST DUP2 SLOAD DUP2 MSTORE SWAP1 PUSH1 0x1 ADD SWAP1 PUSH1 0x20 ADD DUP1 DUP4 GT PUSH2 0x2679 JUMPI DUP3 SWAP1 SUB PUSH1 0x1F AND DUP3 ADD SWAP2 JUMPDEST POP POP POP POP POP SWAP1 POP PUSH0 DUP2 MLOAD SUB PUSH2 0x26E0 JUMPI PUSH1 0x40 MLOAD PUSH32 0x8C379A000000000000000000000000000000000000000000000000000000000 DUP2 MSTORE PUSH1 0x4 ADD PUSH2 0x26D7 SWAP1 PUSH2 0x4B0D JUMP JUMPDEST PUSH1 0x40 MLOAD DUP1 SWAP2 SUB SWAP1 REVERT JUMPDEST PUSH0 PUSH1 0x9 PUSH1 0x2 ADD DUP3 PUSH1 0x40 MLOAD PUSH2 0x26F4 SWAP2 SWAP1 PUSH2 0x3E14 JUMP JUMPDEST SWAP1 DUP2 MSTORE PUSH1 0x20 ADD PUSH1 0x40 MLOAD DUP1 SWAP2 SUB SWAP1 KECCAK256 PUSH0 SWAP1 SLOAD SWAP1 PUSH2 0x100 EXP SWAP1 DIV PUSH1 0xFF AND SWAP1 POP PUSH0 PUSH1 0x9 PUSH1 0x1 ADD PUSH0 DUP4 PUSH1 0xFF AND PUSH1 0xFF AND DUP2 MSTORE PUSH1 0x20 ADD SWAP1 DUP2 MSTORE PUSH1 0x20 ADD PUSH0 KECCAK256 SWAP1 POP PUSH0 PUSH1 0xE DUP5 PUSH1 0x40 MLOAD PUSH2 0x273F SWAP2 SWAP1 PUSH2 0x3E14 JUMP JUMPDEST SWAP1 DUP2 MSTORE PUSH1 0x20 ADD PUSH1 0x40 MLOAD DUP1 SWAP2 SUB SWAP1 KECCAK256 PUSH0 ADD PUSH0 SWAP1 SLOAD SWAP1 PUSH2 0x100 EXP SWAP1 DIV PUSH1 0xFF AND SWAP1 POP PUSH0 PUSH1 0xE DUP6 PUSH1 0x40 MLOAD PUSH2 0x276F SWAP2 SWAP1 PUSH2 0x3E14 JUMP JUMPDEST SWAP1 DUP2 MSTORE PUSH1 0x20 ADD PUSH1 0x40 MLOAD DUP1 SWAP2 SUB SWAP1 KECCAK256 PUSH0 ADD PUSH1 0x1 SWAP1 SLOAD SWAP1 PUSH2 0x100 EXP SWAP1 DIV PUSH1 0xFF AND SWAP1 POP PUSH0 DUP3 PUSH1 0xFF AND PUSH8 0xFFFFFFFFFFFFFFFF DUP2 GT ISZERO PUSH2 0x27AD JUMPI PUSH2 0x27AC PUSH2 0x3215 JUMP JUMPDEST JUMPDEST PUSH1 0x40 MLOAD SWAP1 DUP1 DUP3 MSTORE DUP1 PUSH1 0x20 MUL PUSH1 0x20 ADD DUP3 ADD PUSH1 0x40 MSTORE DUP1 ISZERO PUSH2 0x27DB JUMPI DUP2 PUSH1 0x20 ADD PUSH1 0x20 DUP3 MUL DUP1 CALLDATASIZE DUP4 CALLDATACOPY DUP1 DUP3 ADD SWAP2 POP POP SWAP1 POP JUMPDEST POP SWAP1 POP PUSH0 DUP9 DUP9 PUSH0 DUP2 DUP2 LT PUSH2 0x27F2 JUMPI PUSH2 0x27F1 PUSH2 0x4A96 JUMP JUMPDEST JUMPDEST SWAP1 POP PUSH1 0x20 MUL ADD CALLDATALOAD SWAP1 POP PUSH0 PUSH0 SWAP1 POP JUMPDEST DUP5 PUSH1 0xFF AND DUP2 PUSH1 0xFF AND LT ISZERO PUSH2 0x289F JUMPI PUSH0 JUMPDEST PUSH1 0x1 DUP6 PUSH1 0xFF AND DUP5 DUP5 PUSH1 0x40 MLOAD PUSH1 0x20 ADD PUSH2 0x2829 SWAP3 SWAP2 SWAP1 PUSH2 0x33E2 JUMP JUMPDEST PUSH1 0x40 MLOAD PUSH1 0x20 DUP2 DUP4 SUB SUB DUP2 MSTORE SWAP1 PUSH1 0x40 MSTORE DUP1 MLOAD SWAP1 PUSH1 0x20 ADD KECCAK256 PUSH0 SHR PUSH2 0x284B SWAP2 SWAP1 PUSH2 0x4B2B JUMP JUMPDEST PUSH2 0x2855 SWAP2 SWAP1 PUSH2 0x4B5B JUMP JUMPDEST SWAP1 POP PUSH2 0x2862 DUP5 DUP4 DUP4 PUSH2 0x2DE0 JUMP JUMPDEST PUSH2 0x2810 JUMPI DUP1 DUP5 DUP4 PUSH1 0xFF AND DUP2 MLOAD DUP2 LT PUSH2 0x287D JUMPI PUSH2 0x287C PUSH2 0x4A96 JUMP JUMPDEST JUMPDEST PUSH1 0x20 MUL PUSH1 0x20 ADD ADD SWAP1 PUSH1 0xFF AND SWAP1 DUP2 PUSH1 0xFF AND DUP2 MSTORE POP POP POP DUP1 DUP1 PUSH1 0x1 ADD SWAP2 POP POP PUSH2 0x2800 JUMP JUMPDEST POP PUSH2 0x28B7 DUP3 PUSH0 PUSH1 0x1 DUP8 PUSH2 0x28B2 SWAP2 SWAP1 PUSH2 0x4292 JUMP JUMPDEST PUSH2 0x2E41 JUMP JUMPDEST DUP2 DUP6 PUSH1 0x5 ADD SWAP1 DUP1 MLOAD SWAP1 PUSH1 0x20 ADD SWAP1 PUSH2 0x28CF SWAP3 SWAP2 SWAP1 PUSH2 0x310A JUMP JUMPDEST POP POP POP POP POP POP POP POP POP POP POP JUMP JUMPDEST PUSH1 0x8 DUP2 PUSH1 0x40 MLOAD PUSH2 0x28EC SWAP2 SWAP1 PUSH2 0x3E14 JUMP JUMPDEST SWAP1 DUP2 MSTORE PUSH1 0x20 ADD PUSH1 0x40 MLOAD DUP1 SWAP2 SUB SWAP1 KECCAK256 PUSH0 SWAP1 SLOAD SWAP1 PUSH2 0x100 EXP SWAP1 DIV PUSH1 0xFF AND ISZERO PUSH2 0x2947 JUMPI PUSH1 0x40 MLOAD PUSH32 0x8C379A000000000000000000000000000000000000000000000000000000000 DUP2 MSTORE PUSH1 0x4 ADD PUSH2 0x293E SWAP1 PUSH2 0x4BD9 JUMP JUMPDEST PUSH1 0x40 MLOAD DUP1 SWAP2 SUB SWAP1 REVERT JUMPDEST PUSH0 PUSH1 0x9 PUSH1 0x2 ADD DUP3 PUSH1 0x40 MLOAD PUSH2 0x295B SWAP2 SWAP1 PUSH2 0x3E14 JUMP JUMPDEST SWAP1 DUP2 MSTORE PUSH1 0x20 ADD PUSH1 0x40 MLOAD DUP1 SWAP2 SUB SWAP1 KECCAK256 PUSH0 SWAP1 SLOAD SWAP1 PUSH2 0x100 EXP SWAP1 DIV PUSH1 0xFF AND SWAP1 POP PUSH1 0x9 PUSH1 0x3 ADD PUSH0 SWAP1 SLOAD SWAP1 PUSH2 0x100 EXP SWAP1 DIV PUSH1 0xFF AND PUSH1 0xFF AND DUP2 PUSH1 0xFF AND LT PUSH2 0x29D1 JUMPI PUSH1 0x40 MLOAD PUSH32 0x8C379A000000000000000000000000000000000000000000000000000000000 DUP2 MSTORE PUSH1 0x4 ADD PUSH2 0x29C8 SWAP1 PUSH2 0x4C41 JUMP JUMPDEST PUSH1 0x40 MLOAD DUP1 SWAP2 SUB SWAP1 REVERT JUMPDEST PUSH0 PUSH1 0x2 PUSH0 SWAP1 SLOAD SWAP1 PUSH2 0x100 EXP SWAP1 DIV PUSH20 0xFFFFFFFFFFFFFFFFFFFFFFFFFFFFFFFFFFFFFFFF AND PUSH20 0xFFFFFFFFFFFFFFFFFFFFFFFFFFFFFFFFFFFFFFFF AND PUSH4 0x9B1C385E PUSH1 0x40 MLOAD DUP1 PUSH1 0xC0 ADD PUSH1 0x40 MSTORE DUP1 PUSH1 0x5 SLOAD DUP2 MSTORE PUSH1 0x20 ADD PUSH1 0x4 SLOAD DUP2 MSTORE PUSH1 0x20 ADD PUSH1 0x6 PUSH1 0x4 SWAP1 SLOAD SWAP1 PUSH2 0x100 EXP SWAP1 DIV PUSH2 0xFFFF AND PUSH2 0xFFFF AND DUP2 MSTORE PUSH1 0x20 ADD PUSH1 0x6 PUSH0 SWAP1 SLOAD SWAP1 PUSH2 0x100 EXP SWAP1 DIV PUSH4 0xFFFFFFFF AND PUSH4 0xFFFFFFFF AND DUP2 MSTORE PUSH1 0x20 ADD PUSH1 0x1 PUSH4 0xFFFFFFFF AND DUP2 MSTORE PUSH1 0x20 ADD PUSH2 0x2A87 PUSH1 0x40 MLOAD DUP1 PUSH1 0x20 ADD PUSH1 0x40 MSTORE DUP1 PUSH0 ISZERO ISZERO DUP2 MSTORE POP PUSH2 0x3024 JUMP JUMPDEST DUP2 MSTORE POP PUSH1 0x40 MLOAD DUP3 PUSH4 0xFFFFFFFF AND PUSH1 0xE0 SHL DUP2 MSTORE PUSH1 0x4 ADD PUSH2 0x2AA6 SWAP2 SWAP1 PUSH2 0x4D12 JUMP JUMPDEST PUSH1 0x20 PUSH1 0x40 MLOAD DUP1 DUP4 SUB DUP2 PUSH0 DUP8 GAS CALL ISZERO DUP1 ISZERO PUSH2 0x2AC2 JUMPI RETURNDATASIZE PUSH0 PUSH0 RETURNDATACOPY RETURNDATASIZE PUSH0 REVERT JUMPDEST POP POP POP POP PUSH1 0x40 MLOAD RETURNDATASIZE PUSH1 0x1F NOT PUSH1 0x1F DUP3 ADD AND DUP3 ADD DUP1 PUSH1 0x40 MSTORE POP DUP2 ADD SWAP1 PUSH2 0x2AE6 SWAP2 SWAP1 PUSH2 0x4D46 JUMP JUMPDEST SWAP1 POP DUP3 PUSH1 0x7 PUSH0 DUP4 DUP2 MSTORE PUSH1 0x20 ADD SWAP1 DUP2 MSTORE PUSH1 0x20 ADD PUSH0 KECCAK256 SWAP1 DUP2 PUSH2 0x2B06 SWAP2 SWAP1 PUSH2 0x48F7 JUMP JUMPDEST POP PUSH1 0x1 PUSH1 0x8 DUP5 PUSH1 0x40 MLOAD PUSH2 0x2B19 SWAP2 SWAP1 PUSH2 0x3E14 JUMP JUMPDEST SWAP1 DUP2 MSTORE PUSH1 0x20 ADD PUSH1 0x40 MLOAD DUP1 SWAP2 SUB SWAP1 KECCAK256 PUSH0 PUSH2 0x100 EXP DUP2 SLOAD DUP2 PUSH1 0xFF MUL NOT AND SWAP1 DUP4 ISZERO ISZERO MUL OR SWAP1 SSTORE POP POP POP POP JUMP JUMPDEST PUSH0 PUSH0 PUSH0 SWAP1 POP JUMPDEST PUSH1 0x1 DUP4 PUSH2 0x2B55 SWAP2 SWAP1 PUSH2 0x4292 JUMP JUMPDEST PUSH1 0xFF AND DUP2 PUSH1 0xFF AND LT ISZERO PUSH2 0x2C1A JUMPI PUSH0 PUSH1 0x1 DUP3 PUSH2 0x2B70 SWAP2 SWAP1 PUSH2 0x4B5B JUMP JUMPDEST SWAP1 POP JUMPDEST DUP4 PUSH1 0xFF AND DUP2 PUSH1 0xFF AND LT ISZERO PUSH2 0x2C0C JUMPI DUP5 DUP2 PUSH1 0xFF AND DUP2 MLOAD DUP2 LT PUSH2 0x2B97 JUMPI PUSH2 0x2B96 PUSH2 0x4A96 JUMP JUMPDEST JUMPDEST PUSH1 0x20 MUL PUSH1 0x20 ADD ADD MLOAD PUSH1 0xFF AND DUP6 DUP4 PUSH1 0xFF AND DUP2 MLOAD DUP2 LT PUSH2 0x2BB8 JUMPI PUSH2 0x2BB7 PUSH2 0x4A96 JUMP JUMPDEST JUMPDEST PUSH1 0x20 MUL PUSH1 0x20 ADD ADD MLOAD PUSH1 0xFF AND EQ DUP1 ISZERO PUSH2 0x2BEF JUMPI POP PUSH0 DUP6 DUP3 PUSH1 0xFF AND DUP2 MLOAD DUP2 LT PUSH2 0x2BE2 JUMPI PUSH2 0x2BE1 PUSH2 0x4A96 JUMP JUMPDEST JUMPDEST PUSH1 0x20 MUL PUSH1 0x20 ADD ADD MLOAD PUSH1 0xFF AND GT JUMPDEST ISZERO PUSH2 0x2BFF JUMPI PUSH1 0x1 SWAP3 POP POP POP PUSH2 0x2C1F JUMP JUMPDEST DUP1 DUP1 PUSH1 0x1 ADD SWAP2 POP POP PUSH2 0x2B73 JUMP JUMPDEST POP DUP1 DUP1 PUSH1 0x1 ADD SWAP2 POP POP PUSH2 0x2B48 JUMP JUMPDEST POP PUSH0 SWAP1 POP JUMPDEST SWAP3 SWAP2 POP POP JUMP JUMPDEST PUSH0 PUSH0 SWAP1 SLOAD SWAP1 PUSH2 0x100 EXP SWAP1 DIV PUSH20 0xFFFFFFFFFFFFFFFFFFFFFFFFFFFFFFFFFFFFFFFF AND PUSH20 0xFFFFFFFFFFFFFFFFFFFFFFFFFFFFFFFFFFFFFFFF AND CALLER PUSH20 0xFFFFFFFFFFFFFFFFFFFFFFFFFFFFFFFFFFFFFFFF AND EQ PUSH2 0x2CB3 JUMPI PUSH1 0x40 MLOAD PUSH32 0x8C379A000000000000000000000000000000000000000000000000000000000 DUP2 MSTORE PUSH1 0x4 ADD PUSH2 0x2CAA SWAP1 PUSH2 0x4DBB JUMP JUMPDEST PUSH1 0x40 MLOAD DUP1 SWAP2 SUB SWAP1 REVERT JUMPDEST JUMP JUMPDEST CALLER PUSH20 0xFFFFFFFFFFFFFFFFFFFFFFFFFFFFFFFFFFFFFFFF AND DUP2 PUSH20 0xFFFFFFFFFFFFFFFFFFFFFFFFFFFFFFFFFFFFFFFF AND SUB PUSH2 0x2D23 JUMPI PUSH1 0x40 MLOAD PUSH32 0x8C379A000000000000000000000000000000000000000000000000000000000 DUP2 MSTORE PUSH1 0x4 ADD PUSH2 0x2D1A SWAP1 PUSH2 0x4E23 JUMP JUMPDEST PUSH1 0x40 MLOAD DUP1 SWAP2 SUB SWAP1 REVERT JUMPDEST DUP1 PUSH1 0x1 PUSH0 PUSH2 0x100 EXP DUP2 SLOAD DUP2 PUSH20 0xFFFFFFFFFFFFFFFFFFFFFFFFFFFFFFFFFFFFFFFF MUL NOT AND SWAP1 DUP4 PUSH20 0xFFFFFFFFFFFFFFFFFFFFFFFFFFFFFFFFFFFFFFFF AND MUL OR SWAP1 SSTORE POP DUP1 PUSH20 0xFFFFFFFFFFFFFFFFFFFFFFFFFFFFFFFFFFFFFFFF AND PUSH0 PUSH0 SWAP1 SLOAD SWAP1 PUSH2 0x100 EXP SWAP1 DIV PUSH20 0xFFFFFFFFFFFFFFFFFFFFFFFFFFFFFFFFFFFFFFFF AND PUSH20 0xFFFFFFFFFFFFFFFFFFFFFFFFFFFFFFFFFFFFFFFF AND PUSH32 0xED8889F560326EB138920D842192F0EB3DD22B4F139C87A2C57538E05BAE1278 PUSH1 0x40 MLOAD PUSH1 0x40 MLOAD DUP1 SWAP2 SUB SWAP1 LOG3 POP JUMP JUMPDEST PUSH0 PUSH0 PUSH0 SWAP1 POP JUMPDEST DUP4 PUSH1 0xFF AND DUP2 PUSH1 0xFF AND LT ISZERO PUSH2 0x2E35 JUMPI DUP3 PUSH1 0xFF AND DUP6 DUP3 PUSH1 0xFF AND DUP2 MLOAD DUP2 LT PUSH2 0x2E0E JUMPI PUSH2 0x2E0D PUSH2 0x4A96 JUMP JUMPDEST JUMPDEST PUSH1 0x20 MUL PUSH1 0x20 ADD ADD MLOAD PUSH1 0xFF AND SUB PUSH2 0x2E28 JUMPI PUSH1 0x1 SWAP2 POP POP PUSH2 0x2E3A JUMP JUMPDEST DUP1 DUP1 PUSH1 0x1 ADD SWAP2 POP POP PUSH2 0x2DE6 JUMP JUMPDEST POP PUSH0 SWAP1 POP JUMPDEST SWAP4 SWAP3 POP POP POP JUMP JUMPDEST PUSH0 DUP3 SWAP1 POP PUSH0 DUP3 SWAP1 POP DUP1 PUSH1 0xFF AND DUP3 PUSH1 0xFF AND SUB PUSH2 0x2E5D JUMPI POP POP PUSH2 0x301F JUMP JUMPDEST PUSH0 DUP6 PUSH1 0x2 DUP7 DUP7 PUSH2 0x2E6D SWAP2 SWAP1 PUSH2 0x4292 JUMP JUMPDEST PUSH2 0x2E77 SWAP2 SWAP1 PUSH2 0x4E41 JUMP JUMPDEST DUP7 PUSH2 0x2E82 SWAP2 SWAP1 PUSH2 0x4B5B JUMP JUMPDEST PUSH1 0xFF AND DUP2 MLOAD DUP2 LT PUSH2 0x2E96 JUMPI PUSH2 0x2E95 PUSH2 0x4A96 JUMP JUMPDEST JUMPDEST PUSH1 0x20 MUL PUSH1 0x20 ADD ADD MLOAD SWAP1 POP JUMPDEST DUP2 PUSH1 0xFF AND DUP4 PUSH1 0xFF AND GT PUSH2 0x2FE7 JUMPI JUMPDEST DUP1 PUSH1 0xFF AND DUP7 DUP5 PUSH1 0xFF AND DUP2 MLOAD DUP2 LT PUSH2 0x2EC9 JUMPI PUSH2 0x2EC8 PUSH2 0x4A96 JUMP JUMPDEST JUMPDEST PUSH1 0x20 MUL PUSH1 0x20 ADD ADD MLOAD PUSH1 0xFF AND LT ISZERO PUSH2 0x2EED JUMPI DUP3 DUP1 PUSH2 0x2EE5 SWAP1 PUSH2 0x4705 JUMP JUMPDEST SWAP4 POP POP PUSH2 0x2EAF JUMP JUMPDEST JUMPDEST DUP6 DUP3 PUSH1 0xFF AND DUP2 MLOAD DUP2 LT PUSH2 0x2F04 JUMPI PUSH2 0x2F03 PUSH2 0x4A96 JUMP JUMPDEST JUMPDEST PUSH1 0x20 MUL PUSH1 0x20 ADD ADD MLOAD PUSH1 0xFF AND DUP2 PUSH1 0xFF AND LT ISZERO PUSH2 0x2F2C JUMPI DUP2 DUP1 PUSH2 0x2F24 SWAP1 PUSH2 0x4E71 JUMP JUMPDEST SWAP3 POP POP PUSH2 0x2EEE JUMP JUMPDEST DUP2 PUSH1 0xFF AND DUP4 PUSH1 0xFF AND GT PUSH2 0x2FE2 JUMPI DUP6 DUP3 PUSH1 0xFF AND DUP2 MLOAD DUP2 LT PUSH2 0x2F4F JUMPI PUSH2 0x2F4E PUSH2 0x4A96 JUMP JUMPDEST JUMPDEST PUSH1 0x20 MUL PUSH1 0x20 ADD ADD MLOAD DUP7 DUP5 PUSH1 0xFF AND DUP2 MLOAD DUP2 LT PUSH2 0x2F6D JUMPI PUSH2 0x2F6C PUSH2 0x4A96 JUMP JUMPDEST JUMPDEST PUSH1 0x20 MUL PUSH1 0x20 ADD ADD MLOAD DUP8 DUP6 PUSH1 0xFF AND DUP2 MLOAD DUP2 LT PUSH2 0x2F8B JUMPI PUSH2 0x2F8A PUSH2 0x4A96 JUMP JUMPDEST JUMPDEST PUSH1 0x20 MUL PUSH1 0x20 ADD ADD DUP9 DUP6 PUSH1 0xFF AND DUP2 MLOAD DUP2 LT PUSH2 0x2FA8 JUMPI PUSH2 0x2FA7 PUSH2 0x4A96 JUMP JUMPDEST JUMPDEST PUSH1 0x20 MUL PUSH1 0x20 ADD ADD DUP3 PUSH1 0xFF AND PUSH1 0xFF AND DUP2 MSTORE POP DUP3 PUSH1 0xFF AND PUSH1 0xFF AND DUP2 MSTORE POP POP POP DUP3 DUP1 PUSH2 0x2FD0 SWAP1 PUSH2 0x4705 JUMP JUMPDEST SWAP4 POP POP DUP2 DUP1 PUSH2 0x2FDE SWAP1 PUSH2 0x4E71 JUMP JUMPDEST SWAP3 POP POP JUMPDEST PUSH2 0x2EA1 JUMP JUMPDEST DUP2 PUSH1 0xFF AND DUP6 PUSH1 0xFF AND LT ISZERO PUSH2 0x3001 JUMPI PUSH2 0x3000 DUP7 DUP7 DUP5 PUSH2 0x2E41 JUMP JUMPDEST JUMPDEST DUP4 PUSH1 0xFF AND DUP4 PUSH1 0xFF AND LT ISZERO PUSH2 0x301B JUMPI PUSH2 0x301A DUP7 DUP5 DUP7 PUSH2 0x2E41 JUMP JUMPDEST JUMPDEST POP POP POP JUMPDEST POP POP POP JUMP JUMPDEST PUSH1 0x60 PUSH32 0x92FD13387C7FE7BEFBC38D303D6468778FB9731BC4583F17D92989C6FCFDEAAA DUP3 PUSH1 0x40 MLOAD PUSH1 0x24 ADD PUSH2 0x3058 SWAP2 SWAP1 PUSH2 0x4EB2 JUMP JUMPDEST PUSH1 0x40 MLOAD PUSH1 0x20 DUP2 DUP4 SUB SUB DUP2 MSTORE SWAP1 PUSH1 0x40 MSTORE SWAP1 PUSH28 0xFFFFFFFFFFFFFFFFFFFFFFFFFFFFFFFFFFFFFFFFFFFFFFFFFFFFFFFF NOT AND PUSH1 0x20 DUP3 ADD DUP1 MLOAD PUSH28 0xFFFFFFFFFFFFFFFFFFFFFFFFFFFFFFFFFFFFFFFFFFFFFFFFFFFFFFFF DUP4 DUP2 DUP4 AND OR DUP4 MSTORE POP POP POP POP SWAP1 POP SWAP2 SWAP1 POP JUMP JUMPDEST PUSH1 0x40 MLOAD DUP1 PUSH2 0x120 ADD PUSH1 0x40 MSTORE DUP1 PUSH1 0x60 DUP2 MSTORE PUSH1 0x20 ADD PUSH1 0x60 DUP2 MSTORE PUSH1 0x20 ADD PUSH0 PUSH1 0xFF AND DUP2 MSTORE PUSH1 0x20 ADD PUSH0 ISZERO ISZERO DUP2 MSTORE PUSH1 0x20 ADD PUSH0 DUP2 MSTORE PUSH1 0x20 ADD PUSH0 DUP2 MSTORE PUSH1 0x20 ADD PUSH1 0x60 DUP2 MSTORE PUSH1 0x20 ADD PUSH0 DUP2 MSTORE PUSH1 0x20 ADD PUSH0 PUSH1 0xFF AND DUP2 MSTORE POP SWAP1 JUMP JUMPDEST DUP3 DUP1 SLOAD DUP3 DUP3 SSTORE SWAP1 PUSH0 MSTORE PUSH1 0x20 PUSH0 KECCAK256 SWAP1 PUSH1 0x1F ADD PUSH1 0x20 SWAP1 DIV DUP2 ADD SWAP3 DUP3 ISZERO PUSH2 0x319B JUMPI SWAP2 PUSH1 0x20 MUL DUP3 ADD PUSH0 JUMPDEST DUP4 DUP3 GT ISZERO PUSH2 0x316D JUMPI DUP4 MLOAD DUP4 DUP3 PUSH2 0x100 EXP DUP2 SLOAD DUP2 PUSH1 0xFF MUL NOT AND SWAP1 DUP4 PUSH1 0xFF AND MUL OR SWAP1 SSTORE POP SWAP3 PUSH1 0x20 ADD SWAP3 PUSH1 0x1 ADD PUSH1 0x20 DUP2 PUSH0 ADD DIV SWAP3 DUP4 ADD SWAP3 PUSH1 0x1 SUB MUL PUSH2 0x3130 JUMP JUMPDEST DUP1 ISZERO PUSH2 0x3199 JUMPI DUP3 DUP2 PUSH2 0x100 EXP DUP2 SLOAD SWAP1 PUSH1 0xFF MUL NOT AND SWAP1 SSTORE PUSH1 0x1 ADD PUSH1 0x20 DUP2 PUSH0 ADD DIV SWAP3 DUP4 ADD SWAP3 PUSH1 0x1 SUB MUL PUSH2 0x316D JUMP JUMPDEST POP JUMPDEST POP SWAP1 POP PUSH2 0x31A8 SWAP2 SWAP1 PUSH2 0x31D1 JUMP JUMPDEST POP SWAP1 JUMP JUMPDEST POP DUP1 SLOAD PUSH0 DUP3 SSTORE PUSH1 0x1F ADD PUSH1 0x20 SWAP1 DIV SWAP1 PUSH0 MSTORE PUSH1 0x20 PUSH0 KECCAK256 SWAP1 DUP2 ADD SWAP1 PUSH2 0x31CE SWAP2 SWAP1 PUSH2 0x31D1 JUMP JUMPDEST POP JUMP JUMPDEST JUMPDEST DUP1 DUP3 GT ISZERO PUSH2 0x31E8 JUMPI PUSH0 DUP2 PUSH0 SWAP1 SSTORE POP PUSH1 0x1 ADD PUSH2 0x31D2 JUMP JUMPDEST POP SWAP1 JUMP JUMPDEST PUSH0 PUSH1 0x40 MLOAD SWAP1 POP SWAP1 JUMP JUMPDEST PUSH0 PUSH0 REVERT JUMPDEST PUSH0 PUSH0 REVERT JUMPDEST PUSH0 PUSH0 REVERT JUMPDEST PUSH0 PUSH0 REVERT JUMPDEST PUSH0 PUSH1 0x1F NOT PUSH1 0x1F DUP4 ADD AND SWAP1 POP SWAP2 SWAP1 POP JUMP JUMPDEST PUSH32 0x4E487B7100000000000000000000000000000000000000000000000000000000 PUSH0 MSTORE PUSH1 0x41 PUSH1 0x4 MSTORE PUSH1 0x24 PUSH0 REVERT JUMPDEST PUSH2 0x324B DUP3 PUSH2 0x3205 JUMP JUMPDEST DUP2 ADD DUP2 DUP2 LT PUSH8 0xFFFFFFFFFFFFFFFF DUP3 GT OR ISZERO PUSH2 0x326A JUMPI PUSH2 0x3269 PUSH2 0x3215 JUMP JUMPDEST JUMPDEST DUP1 PUSH1 0x40 MSTORE POP POP POP JUMP JUMPDEST PUSH0 PUSH2 0x327C PUSH2 0x31EC JUMP JUMPDEST SWAP1 POP PUSH2 0x3288 DUP3 DUP3 PUSH2 0x3242 JUMP JUMPDEST SWAP2 SWAP1 POP JUMP JUMPDEST PUSH0 PUSH8 0xFFFFFFFFFFFFFFFF DUP3 GT ISZERO PUSH2 0x32A7 JUMPI PUSH2 0x32A6 PUSH2 0x3215 JUMP JUMPDEST JUMPDEST PUSH2 0x32B0 DUP3 PUSH2 0x3205 JUMP JUMPDEST SWAP1 POP PUSH1 0x20 DUP2 ADD SWAP1 POP SWAP2 SWAP1 POP JUMP JUMPDEST DUP3 DUP2 DUP4 CALLDATACOPY PUSH0 DUP4 DUP4 ADD MSTORE POP POP POP JUMP JUMPDEST PUSH0 PUSH2 0x32DD PUSH2 0x32D8 DUP5 PUSH2 0x328D JUMP JUMPDEST PUSH2 0x3273 JUMP JUMPDEST SWAP1 POP DUP3 DUP2 MSTORE PUSH1 0x20 DUP2 ADD DUP5 DUP5 DUP5 ADD GT ISZERO PUSH2 0x32F9 JUMPI PUSH2 0x32F8 PUSH2 0x3201 JUMP JUMPDEST JUMPDEST PUSH2 0x3304 DUP5 DUP3 DUP6 PUSH2 0x32BD JUMP JUMPDEST POP SWAP4 SWAP3 POP POP POP JUMP JUMPDEST PUSH0 DUP3 PUSH1 0x1F DUP4 ADD SLT PUSH2 0x3320 JUMPI PUSH2 0x331F PUSH2 0x31FD JUMP JUMPDEST JUMPDEST DUP2 CALLDATALOAD PUSH2 0x3330 DUP5 DUP3 PUSH1 0x20 DUP7 ADD PUSH2 0x32CB JUMP JUMPDEST SWAP2 POP POP SWAP3 SWAP2 POP POP JUMP JUMPDEST PUSH0 PUSH0 PUSH1 0x40 DUP4 DUP6 SUB SLT ISZERO PUSH2 0x334F JUMPI PUSH2 0x334E PUSH2 0x31F5 JUMP JUMPDEST JUMPDEST PUSH0 DUP4 ADD CALLDATALOAD PUSH8 0xFFFFFFFFFFFFFFFF DUP2 GT ISZERO PUSH2 0x336C JUMPI PUSH2 0x336B PUSH2 0x31F9 JUMP JUMPDEST JUMPDEST PUSH2 0x3378 DUP6 DUP3 DUP7 ADD PUSH2 0x330C JUMP JUMPDEST SWAP3 POP POP PUSH1 0x20 DUP4 ADD CALLDATALOAD PUSH8 0xFFFFFFFFFFFFFFFF DUP2 GT ISZERO PUSH2 0x3399 JUMPI PUSH2 0x3398 PUSH2 0x31F9 JUMP JUMPDEST JUMPDEST PUSH2 0x33A5 DUP6 DUP3 DUP7 ADD PUSH2 0x330C JUMP JUMPDEST SWAP2 POP POP SWAP3 POP SWAP3 SWAP1 POP JUMP JUMPDEST PUSH0 DUP2 SWAP1 POP SWAP2 SWAP1 POP JUMP JUMPDEST PUSH2 0x33C1 DUP2 PUSH2 0x33AF JUMP JUMPDEST DUP3 MSTORE POP POP JUMP JUMPDEST PUSH0 PUSH1 0xFF DUP3 AND SWAP1 POP SWAP2 SWAP1 POP JUMP JUMPDEST PUSH2 0x33DC DUP2 PUSH2 0x33C7 JUMP JUMPDEST DUP3 MSTORE POP POP JUMP JUMPDEST PUSH0 PUSH1 0x40 DUP3 ADD SWAP1 POP PUSH2 0x33F5 PUSH0 DUP4 ADD DUP6 PUSH2 0x33B8 JUMP JUMPDEST PUSH2 0x3402 PUSH1 0x20 DUP4 ADD DUP5 PUSH2 0x33D3 JUMP JUMPDEST SWAP4 SWAP3 POP POP POP JUMP JUMPDEST PUSH0 PUSH1 0x20 DUP3 DUP5 SUB SLT ISZERO PUSH2 0x341E JUMPI PUSH2 0x341D PUSH2 0x31F5 JUMP JUMPDEST JUMPDEST PUSH0 DUP3 ADD CALLDATALOAD PUSH8 0xFFFFFFFFFFFFFFFF DUP2 GT ISZERO PUSH2 0x343B JUMPI PUSH2 0x343A PUSH2 0x31F9 JUMP JUMPDEST JUMPDEST PUSH2 0x3447 DUP5 DUP3 DUP6 ADD PUSH2 0x330C JUMP JUMPDEST SWAP2 POP POP SWAP3 SWAP2 POP POP JUMP JUMPDEST PUSH0 DUP2 MLOAD SWAP1 POP SWAP2 SWAP1 POP JUMP JUMPDEST PUSH0 DUP3 DUP3 MSTORE PUSH1 0x20 DUP3 ADD SWAP1 POP SWAP3 SWAP2 POP POP JUMP JUMPDEST PUSH0 DUP2 SWAP1 POP PUSH1 0x20 DUP3 ADD SWAP1 POP SWAP2 SWAP1 POP JUMP JUMPDEST PUSH2 0x3482 DUP2 PUSH2 0x33C7 JUMP JUMPDEST DUP3 MSTORE POP POP JUMP JUMPDEST PUSH0 PUSH2 0x3493 DUP4 DUP4 PUSH2 0x3479 JUMP JUMPDEST PUSH1 0x20 DUP4 ADD SWAP1 POP SWAP3 SWAP2 POP POP JUMP JUMPDEST PUSH0 PUSH1 0x20 DUP3 ADD SWAP1 POP SWAP2 SWAP1 POP JUMP JUMPDEST PUSH0 PUSH2 0x34B5 DUP3 PUSH2 0x3450 JUMP JUMPDEST PUSH2 0x34BF DUP2 DUP6 PUSH2 0x345A JUMP JUMPDEST SWAP4 POP PUSH2 0x34CA DUP4 PUSH2 0x346A JUMP JUMPDEST DUP1 PUSH0 JUMPDEST DUP4 DUP2 LT ISZERO PUSH2 0x34FA JUMPI DUP2 MLOAD PUSH2 0x34E1 DUP9 DUP3 PUSH2 0x3488 JUMP JUMPDEST SWAP8 POP PUSH2 0x34EC DUP4 PUSH2 0x349F JUMP JUMPDEST SWAP3 POP POP PUSH1 0x1 DUP2 ADD SWAP1 POP PUSH2 0x34CD JUMP JUMPDEST POP DUP6 SWAP4 POP POP POP POP SWAP3 SWAP2 POP POP JUMP JUMPDEST PUSH0 PUSH1 0x20 DUP3 ADD SWAP1 POP DUP2 DUP2 SUB PUSH0 DUP4 ADD MSTORE PUSH2 0x351F DUP2 DUP5 PUSH2 0x34AB JUMP JUMPDEST SWAP1 POP SWAP3 SWAP2 POP POP JUMP JUMPDEST PUSH0 PUSH20 0xFFFFFFFFFFFFFFFFFFFFFFFFFFFFFFFFFFFFFFFF DUP3 AND SWAP1 POP SWAP2 SWAP1 POP JUMP JUMPDEST PUSH0 PUSH2 0x3550 DUP3 PUSH2 0x3527 JUMP JUMPDEST SWAP1 POP SWAP2 SWAP1 POP JUMP JUMPDEST PUSH2 0x3560 DUP2 PUSH2 0x3546 JUMP JUMPDEST DUP2 EQ PUSH2 0x356A JUMPI PUSH0 PUSH0 REVERT JUMPDEST POP JUMP JUMPDEST PUSH0 DUP2 CALLDATALOAD SWAP1 POP PUSH2 0x357B DUP2 PUSH2 0x3557 JUMP JUMPDEST SWAP3 SWAP2 POP POP JUMP JUMPDEST PUSH0 PUSH1 0x20 DUP3 DUP5 SUB SLT ISZERO PUSH2 0x3596 JUMPI PUSH2 0x3595 PUSH2 0x31F5 JUMP JUMPDEST JUMPDEST PUSH0 PUSH2 0x35A3 DUP5 DUP3 DUP6 ADD PUSH2 0x356D JUMP JUMPDEST SWAP2 POP POP SWAP3 SWAP2 POP POP JUMP JUMPDEST PUSH0 DUP2 ISZERO ISZERO SWAP1 POP SWAP2 SWAP1 POP JUMP JUMPDEST PUSH2 0x35C0 DUP2 PUSH2 0x35AC JUMP JUMPDEST DUP3 MSTORE POP POP JUMP JUMPDEST PUSH0 PUSH1 0x20 DUP3 ADD SWAP1 POP PUSH2 0x35D9 PUSH0 DUP4 ADD DUP5 PUSH2 0x35B7 JUMP JUMPDEST SWAP3 SWAP2 POP POP JUMP JUMPDEST PUSH2 0x35E8 DUP2 PUSH2 0x33AF JUMP JUMPDEST DUP2 EQ PUSH2 0x35F2 JUMPI PUSH0 PUSH0 REVERT JUMPDEST POP JUMP JUMPDEST PUSH0 DUP2 CALLDATALOAD SWAP1 POP PUSH2 0x3603 DUP2 PUSH2 0x35DF JUMP JUMPDEST SWAP3 SWAP2 POP POP JUMP JUMPDEST PUSH0 PUSH0 REVERT JUMPDEST PUSH0 PUSH0 REVERT JUMPDEST PUSH0 PUSH0 DUP4 PUSH1 0x1F DUP5 ADD SLT PUSH2 0x3626 JUMPI PUSH2 0x3625 PUSH2 0x31FD JUMP JUMPDEST JUMPDEST DUP3 CALLDATALOAD SWAP1 POP PUSH8 0xFFFFFFFFFFFFFFFF DUP2 GT ISZERO PUSH2 0x3643 JUMPI PUSH2 0x3642 PUSH2 0x3609 JUMP JUMPDEST JUMPDEST PUSH1 0x20 DUP4 ADD SWAP2 POP DUP4 PUSH1 0x20 DUP3 MUL DUP4 ADD GT ISZERO PUSH2 0x365F JUMPI PUSH2 0x365E PUSH2 0x360D JUMP JUMPDEST JUMPDEST SWAP3 POP SWAP3 SWAP1 POP JUMP JUMPDEST PUSH0 PUSH0 PUSH0 PUSH1 0x40 DUP5 DUP7 SUB SLT ISZERO PUSH2 0x367D JUMPI PUSH2 0x367C PUSH2 0x31F5 JUMP JUMPDEST JUMPDEST PUSH0 PUSH2 0x368A DUP7 DUP3 DUP8 ADD PUSH2 0x35F5 JUMP JUMPDEST SWAP4 POP POP PUSH1 0x20 DUP5 ADD CALLDATALOAD PUSH8 0xFFFFFFFFFFFFFFFF DUP2 GT ISZERO PUSH2 0x36AB JUMPI PUSH2 0x36AA PUSH2 0x31F9 JUMP JUMPDEST JUMPDEST PUSH2 0x36B7 DUP7 DUP3 DUP8 ADD PUSH2 0x3611 JUMP JUMPDEST SWAP3 POP SWAP3 POP POP SWAP3 POP SWAP3 POP SWAP3 JUMP JUMPDEST PUSH0 PUSH4 0xFFFFFFFF DUP3 AND SWAP1 POP SWAP2 SWAP1 POP JUMP JUMPDEST PUSH2 0x36DB DUP2 PUSH2 0x36C3 JUMP JUMPDEST DUP3 MSTORE POP POP JUMP JUMPDEST PUSH0 PUSH1 0x20 DUP3 ADD SWAP1 POP PUSH2 0x36F4 PUSH0 DUP4 ADD DUP5 PUSH2 0x36D2 JUMP JUMPDEST SWAP3 SWAP2 POP POP JUMP JUMPDEST PUSH2 0x3703 DUP2 PUSH2 0x33C7 JUMP JUMPDEST DUP2 EQ PUSH2 0x370D JUMPI PUSH0 PUSH0 REVERT JUMPDEST POP JUMP JUMPDEST PUSH0 DUP2 CALLDATALOAD SWAP1 POP PUSH2 0x371E DUP2 PUSH2 0x36FA JUMP JUMPDEST SWAP3 SWAP2 POP POP JUMP JUMPDEST PUSH0 PUSH1 0x20 DUP3 DUP5 SUB SLT ISZERO PUSH2 0x3739 JUMPI PUSH2 0x3738 PUSH2 0x31F5 JUMP JUMPDEST JUMPDEST PUSH0 PUSH2 0x3746 DUP5 DUP3 DUP6 ADD PUSH2 0x3710 JUMP JUMPDEST SWAP2 POP POP SWAP3 SWAP2 POP POP JUMP JUMPDEST PUSH0 PUSH1 0x60 DUP3 ADD SWAP1 POP PUSH2 0x3762 PUSH0 DUP4 ADD DUP7 PUSH2 0x33D3 JUMP JUMPDEST PUSH2 0x376F PUSH1 0x20 DUP4 ADD DUP6 PUSH2 0x33D3 JUMP JUMPDEST PUSH2 0x377C PUSH1 0x40 DUP4 ADD DUP5 PUSH2 0x33B8 JUMP JUMPDEST SWAP5 SWAP4 POP POP POP POP JUMP JUMPDEST PUSH0 DUP2 SWAP1 POP SWAP2 SWAP1 POP JUMP JUMPDEST PUSH2 0x3796 DUP2 PUSH2 0x3784 JUMP JUMPDEST DUP3 MSTORE POP POP JUMP JUMPDEST PUSH0 PUSH1 0x20 DUP3 ADD SWAP1 POP PUSH2 0x37AF PUSH0 DUP4 ADD DUP5 PUSH2 0x378D JUMP JUMPDEST SWAP3 SWAP2 POP POP JUMP JUMPDEST PUSH0 DUP2 MLOAD SWAP1 POP SWAP2 SWAP1 POP JUMP JUMPDEST PUSH0 DUP3 DUP3 MSTORE PUSH1 0x20 DUP3 ADD SWAP1 POP SWAP3 SWAP2 POP POP JUMP JUMPDEST DUP3 DUP2 DUP4 MCOPY PUSH0 DUP4 DUP4 ADD MSTORE POP POP POP JUMP JUMPDEST PUSH0 PUSH2 0x37E7 DUP3 PUSH2 0x37B5 JUMP JUMPDEST PUSH2 0x37F1 DUP2 DUP6 PUSH2 0x37BF JUMP JUMPDEST SWAP4 POP PUSH2 0x3801 DUP2 DUP6 PUSH1 0x20 DUP7 ADD PUSH2 0x37CF JUMP JUMPDEST PUSH2 0x380A DUP2 PUSH2 0x3205 JUMP JUMPDEST DUP5 ADD SWAP2 POP POP SWAP3 SWAP2 POP POP JUMP JUMPDEST PUSH2 0x381E DUP2 PUSH2 0x35AC JUMP JUMPDEST DUP3 MSTORE POP POP JUMP JUMPDEST PUSH2 0x382D DUP2 PUSH2 0x33AF JUMP JUMPDEST DUP3 MSTORE POP POP JUMP JUMPDEST PUSH0 DUP3 DUP3 MSTORE PUSH1 0x20 DUP3 ADD SWAP1 POP SWAP3 SWAP2 POP POP JUMP JUMPDEST PUSH0 PUSH2 0x384D DUP3 PUSH2 0x3450 JUMP JUMPDEST PUSH2 0x3857 DUP2 DUP6 PUSH2 0x3833 JUMP JUMPDEST SWAP4 POP PUSH2 0x3862 DUP4 PUSH2 0x346A JUMP JUMPDEST DUP1 PUSH0 JUMPDEST DUP4 DUP2 LT ISZERO PUSH2 0x3892 JUMPI DUP2 MLOAD PUSH2 0x3879 DUP9 DUP3 PUSH2 0x3488 JUMP JUMPDEST SWAP8 POP PUSH2 0x3884 DUP4 PUSH2 0x349F JUMP JUMPDEST SWAP3 POP POP PUSH1 0x1 DUP2 ADD SWAP1 POP PUSH2 0x3865 JUMP JUMPDEST POP DUP6 SWAP4 POP POP POP POP SWAP3 SWAP2 POP POP JUMP JUMPDEST PUSH0 PUSH2 0x120 DUP4 ADD PUSH0 DUP4 ADD MLOAD DUP5 DUP3 SUB PUSH0 DUP7 ADD MSTORE PUSH2 0x38BA DUP3 DUP3 PUSH2 0x37DD JUMP JUMPDEST SWAP2 POP POP PUSH1 0x20 DUP4 ADD MLOAD DUP5 DUP3 SUB PUSH1 0x20 DUP7 ADD MSTORE PUSH2 0x38D4 DUP3 DUP3 PUSH2 0x37DD JUMP JUMPDEST SWAP2 POP POP PUSH1 0x40 DUP4 ADD MLOAD PUSH2 0x38E9 PUSH1 0x40 DUP7 ADD DUP3 PUSH2 0x3479 JUMP JUMPDEST POP PUSH1 0x60 DUP4 ADD MLOAD PUSH2 0x38FC PUSH1 0x60 DUP7 ADD DUP3 PUSH2 0x3815 JUMP JUMPDEST POP PUSH1 0x80 DUP4 ADD MLOAD PUSH2 0x390F PUSH1 0x80 DUP7 ADD DUP3 PUSH2 0x3824 JUMP JUMPDEST POP PUSH1 0xA0 DUP4 ADD MLOAD PUSH2 0x3922 PUSH1 0xA0 DUP7 ADD DUP3 PUSH2 0x3824 JUMP JUMPDEST POP PUSH1 0xC0 DUP4 ADD MLOAD DUP5 DUP3 SUB PUSH1 0xC0 DUP7 ADD MSTORE PUSH2 0x393A DUP3 DUP3 PUSH2 0x3843 JUMP JUMPDEST SWAP2 POP POP PUSH1 0xE0 DUP4 ADD MLOAD PUSH2 0x394F PUSH1 0xE0 DUP7 ADD DUP3 PUSH2 0x3824 JUMP JUMPDEST POP PUSH2 0x100 DUP4 ADD MLOAD PUSH2 0x3964 PUSH2 0x100 DUP7 ADD DUP3 PUSH2 0x3479 JUMP JUMPDEST POP DUP1 SWAP2 POP POP SWAP3 SWAP2 POP POP JUMP JUMPDEST PUSH0 PUSH1 0x20 DUP3 ADD SWAP1 POP DUP2 DUP2 SUB PUSH0 DUP4 ADD MSTORE PUSH2 0x3987 DUP2 DUP5 PUSH2 0x389F JUMP JUMPDEST SWAP1 POP SWAP3 SWAP2 POP POP JUMP JUMPDEST PUSH0 PUSH1 0x20 DUP3 ADD SWAP1 POP PUSH2 0x39A2 PUSH0 DUP4 ADD DUP5 PUSH2 0x33B8 JUMP JUMPDEST SWAP3 SWAP2 POP POP JUMP JUMPDEST PUSH2 0x39B1 DUP2 PUSH2 0x3546 JUMP JUMPDEST DUP3 MSTORE POP POP JUMP JUMPDEST PUSH0 PUSH1 0x20 DUP3 ADD SWAP1 POP PUSH2 0x39CA PUSH0 DUP4 ADD DUP5 PUSH2 0x39A8 JUMP JUMPDEST SWAP3 SWAP2 POP POP JUMP JUMPDEST PUSH0 PUSH1 0x20 DUP3 DUP5 SUB SLT ISZERO PUSH2 0x39E5 JUMPI PUSH2 0x39E4 PUSH2 0x31F5 JUMP JUMPDEST JUMPDEST PUSH0 PUSH2 0x39F2 DUP5 DUP3 DUP6 ADD PUSH2 0x35F5 JUMP JUMPDEST SWAP2 POP POP SWAP3 SWAP2 POP POP JUMP JUMPDEST PUSH0 DUP3 DUP3 MSTORE PUSH1 0x20 DUP3 ADD SWAP1 POP SWAP3 SWAP2 POP POP JUMP JUMPDEST PUSH0 PUSH2 0x3A15 DUP3 PUSH2 0x37B5 JUMP JUMPDEST PUSH2 0x3A1F DUP2 DUP6 PUSH2 0x39FB JUMP JUMPDEST SWAP4 POP PUSH2 0x3A2F DUP2 DUP6 PUSH1 0x20 DUP7 ADD PUSH2 0x37CF JUMP JUMPDEST PUSH2 0x3A38 DUP2 PUSH2 0x3205 JUMP JUMPDEST DUP5 ADD SWAP2 POP POP SWAP3 SWAP2 POP POP JUMP JUMPDEST PUSH0 PUSH1 0x20 DUP3 ADD SWAP1 POP DUP2 DUP2 SUB PUSH0 DUP4 ADD MSTORE PUSH2 0x3A5B DUP2 DUP5 PUSH2 0x3A0B JUMP JUMPDEST SWAP1 POP SWAP3 SWAP2 POP POP JUMP JUMPDEST PUSH0 PUSH8 0xFFFFFFFFFFFFFFFF DUP3 GT ISZERO PUSH2 0x3A7D JUMPI PUSH2 0x3A7C PUSH2 0x3215 JUMP JUMPDEST JUMPDEST PUSH1 0x20 DUP3 MUL SWAP1 POP PUSH1 0x20 DUP2 ADD SWAP1 POP SWAP2 SWAP1 POP JUMP JUMPDEST PUSH0 PUSH2 0x3AA0 PUSH2 0x3A9B DUP5 PUSH2 0x3A63 JUMP JUMPDEST PUSH2 0x3273 JUMP JUMPDEST SWAP1 POP DUP1 DUP4 DUP3 MSTORE PUSH1 0x20 DUP3 ADD SWAP1 POP PUSH1 0x20 DUP5 MUL DUP4 ADD DUP6 DUP2 GT ISZERO PUSH2 0x3AC3 JUMPI PUSH2 0x3AC2 PUSH2 0x360D JUMP JUMPDEST JUMPDEST DUP4 JUMPDEST DUP2 DUP2 LT ISZERO PUSH2 0x3AEC JUMPI DUP1 PUSH2 0x3AD8 DUP9 DUP3 PUSH2 0x3710 JUMP JUMPDEST DUP5 MSTORE PUSH1 0x20 DUP5 ADD SWAP4 POP POP PUSH1 0x20 DUP2 ADD SWAP1 POP PUSH2 0x3AC5 JUMP JUMPDEST POP POP POP SWAP4 SWAP3 POP POP POP JUMP JUMPDEST PUSH0 DUP3 PUSH1 0x1F DUP4 ADD SLT PUSH2 0x3B0A JUMPI PUSH2 0x3B09 PUSH2 0x31FD JUMP JUMPDEST JUMPDEST DUP2 CALLDATALOAD PUSH2 0x3B1A DUP5 DUP3 PUSH1 0x20 DUP7 ADD PUSH2 0x3A8E JUMP JUMPDEST SWAP2 POP POP SWAP3 SWAP2 POP POP JUMP JUMPDEST PUSH0 PUSH0 PUSH0 PUSH1 0x60 DUP5 DUP7 SUB SLT ISZERO PUSH2 0x3B3A JUMPI PUSH2 0x3B39 PUSH2 0x31F5 JUMP JUMPDEST JUMPDEST PUSH0 DUP5 ADD CALLDATALOAD PUSH8 0xFFFFFFFFFFFFFFFF DUP2 GT ISZERO PUSH2 0x3B57 JUMPI PUSH2 0x3B56 PUSH2 0x31F9 JUMP JUMPDEST JUMPDEST PUSH2 0x3B63 DUP7 DUP3 DUP8 ADD PUSH2 0x330C JUMP JUMPDEST SWAP4 POP POP PUSH1 0x20 DUP5 ADD CALLDATALOAD PUSH8 0xFFFFFFFFFFFFFFFF DUP2 GT ISZERO PUSH2 0x3B84 JUMPI PUSH2 0x3B83 PUSH2 0x31F9 JUMP JUMPDEST JUMPDEST PUSH2 0x3B90 DUP7 DUP3 DUP8 ADD PUSH2 0x330C JUMP JUMPDEST SWAP3 POP POP PUSH1 0x40 DUP5 ADD CALLDATALOAD PUSH8 0xFFFFFFFFFFFFFFFF DUP2 GT ISZERO PUSH2 0x3BB1 JUMPI PUSH2 0x3BB0 PUSH2 0x31F9 JUMP JUMPDEST JUMPDEST PUSH2 0x3BBD DUP7 DUP3 DUP8 ADD PUSH2 0x3AF6 JUMP JUMPDEST SWAP2 POP POP SWAP3 POP SWAP3 POP SWAP3 JUMP JUMPDEST PUSH0 DUP2 SWAP1 POP SWAP2 SWAP1 POP JUMP JUMPDEST PUSH0 PUSH2 0x3BEA PUSH2 0x3BE5 PUSH2 0x3BE0 DUP5 PUSH2 0x3527 JUMP JUMPDEST PUSH2 0x3BC7 JUMP JUMPDEST PUSH2 0x3527 JUMP JUMPDEST SWAP1 POP SWAP2 SWAP1 POP JUMP JUMPDEST PUSH0 PUSH2 0x3BFB DUP3 PUSH2 0x3BD0 JUMP JUMPDEST SWAP1 POP SWAP2 SWAP1 POP JUMP JUMPDEST PUSH0 PUSH2 0x3C0C DUP3 PUSH2 0x3BF1 JUMP JUMPDEST SWAP1 POP SWAP2 SWAP1 POP JUMP JUMPDEST PUSH2 0x3C1C DUP2 PUSH2 0x3C02 JUMP JUMPDEST DUP3 MSTORE POP POP JUMP JUMPDEST PUSH0 PUSH1 0x20 DUP3 ADD SWAP1 POP PUSH2 0x3C35 PUSH0 DUP4 ADD DUP5 PUSH2 0x3C13 JUMP JUMPDEST SWAP3 SWAP2 POP POP JUMP JUMPDEST PUSH0 PUSH2 0xFFFF DUP3 AND SWAP1 POP SWAP2 SWAP1 POP JUMP JUMPDEST PUSH2 0x3C51 DUP2 PUSH2 0x3C3B JUMP JUMPDEST DUP3 MSTORE POP POP JUMP JUMPDEST PUSH0 PUSH1 0x20 DUP3 ADD SWAP1 POP PUSH2 0x3C6A PUSH0 DUP4 ADD DUP5 PUSH2 0x3C48 JUMP JUMPDEST SWAP3 SWAP2 POP POP JUMP JUMPDEST PUSH0 PUSH0 PUSH0 PUSH0 PUSH1 0x80 DUP6 DUP8 SUB SLT ISZERO PUSH2 0x3C88 JUMPI PUSH2 0x3C87 PUSH2 0x31F5 JUMP JUMPDEST JUMPDEST PUSH0 DUP6 ADD CALLDATALOAD PUSH8 0xFFFFFFFFFFFFFFFF DUP2 GT ISZERO PUSH2 0x3CA5 JUMPI PUSH2 0x3CA4 PUSH2 0x31F9 JUMP JUMPDEST JUMPDEST PUSH2 0x3CB1 DUP8 DUP3 DUP9 ADD PUSH2 0x330C JUMP JUMPDEST SWAP5 POP POP PUSH1 0x20 DUP6 ADD CALLDATALOAD PUSH8 0xFFFFFFFFFFFFFFFF DUP2 GT ISZERO PUSH2 0x3CD2 JUMPI PUSH2 0x3CD1 PUSH2 0x31F9 JUMP JUMPDEST JUMPDEST PUSH2 0x3CDE DUP8 DUP3 DUP9 ADD PUSH2 0x330C JUMP JUMPDEST SWAP4 POP POP PUSH1 0x40 PUSH2 0x3CEF DUP8 DUP3 DUP9 ADD PUSH2 0x35F5 JUMP JUMPDEST SWAP3 POP POP PUSH1 0x60 PUSH2 0x3D00 DUP8 DUP3 DUP9 ADD PUSH2 0x3710 JUMP JUMPDEST SWAP2 POP POP SWAP3 SWAP6 SWAP2 SWAP5 POP SWAP3 POP JUMP JUMPDEST PUSH0 PUSH0 DUP4 PUSH1 0x1F DUP5 ADD SLT PUSH2 0x3D21 JUMPI PUSH2 0x3D20 PUSH2 0x31FD JUMP JUMPDEST JUMPDEST DUP3 CALLDATALOAD SWAP1 POP PUSH8 0xFFFFFFFFFFFFFFFF DUP2 GT ISZERO PUSH2 0x3D3E JUMPI PUSH2 0x3D3D PUSH2 0x3609 JUMP JUMPDEST JUMPDEST PUSH1 0x20 DUP4 ADD SWAP2 POP DUP4 PUSH1 0x20 DUP3 MUL DUP4 ADD GT ISZERO PUSH2 0x3D5A JUMPI PUSH2 0x3D59 PUSH2 0x360D JUMP JUMPDEST JUMPDEST SWAP3 POP SWAP3 SWAP1 POP JUMP JUMPDEST PUSH0 PUSH0 PUSH0 PUSH1 0x40 DUP5 DUP7 SUB SLT ISZERO PUSH2 0x3D78 JUMPI PUSH2 0x3D77 PUSH2 0x31F5 JUMP JUMPDEST JUMPDEST PUSH0 DUP5 ADD CALLDATALOAD PUSH8 0xFFFFFFFFFFFFFFFF DUP2 GT ISZERO PUSH2 0x3D95 JUMPI PUSH2 0x3D94 PUSH2 0x31F9 JUMP JUMPDEST JUMPDEST PUSH2 0x3DA1 DUP7 DUP3 DUP8 ADD PUSH2 0x330C JUMP JUMPDEST SWAP4 POP POP PUSH1 0x20 DUP5 ADD CALLDATALOAD PUSH8 0xFFFFFFFFFFFFFFFF DUP2 GT ISZERO PUSH2 0x3DC2 JUMPI PUSH2 0x3DC1 PUSH2 0x31F9 JUMP JUMPDEST JUMPDEST PUSH2 0x3DCE DUP7 DUP3 DUP8 ADD PUSH2 0x3D0C JUMP JUMPDEST SWAP3 POP SWAP3 POP POP SWAP3 POP SWAP3 POP SWAP3 JUMP JUMPDEST PUSH0 DUP2 SWAP1 POP SWAP3 SWAP2 POP POP JUMP JUMPDEST PUSH0 PUSH2 0x3DEE DUP3 PUSH2 0x37B5 JUMP JUMPDEST PUSH2 0x3DF8 DUP2 DUP6 PUSH2 0x3DDA JUMP JUMPDEST SWAP4 POP PUSH2 0x3E08 DUP2 DUP6 PUSH1 0x20 DUP7 ADD PUSH2 0x37CF JUMP JUMPDEST DUP1 DUP5 ADD SWAP2 POP POP SWAP3 SWAP2 POP POP JUMP JUMPDEST PUSH0 PUSH2 0x3E1F DUP3 DUP5 PUSH2 0x3DE4 JUMP JUMPDEST SWAP2 POP DUP2 SWAP1 POP SWAP3 SWAP2 POP POP JUMP JUMPDEST PUSH0 DUP3 DUP3 MSTORE PUSH1 0x20 DUP3 ADD SWAP1 POP SWAP3 SWAP2 POP POP JUMP JUMPDEST PUSH32 0x4C6F7474657279206973207374696C6C20616374697665000000000000000000 PUSH0 DUP3 ADD MSTORE POP JUMP JUMPDEST PUSH0 PUSH2 0x3E6E PUSH1 0x17 DUP4 PUSH2 0x3E2A JUMP JUMPDEST SWAP2 POP PUSH2 0x3E79 DUP3 PUSH2 0x3E3A JUMP JUMPDEST PUSH1 0x20 DUP3 ADD SWAP1 POP SWAP2 SWAP1 POP JUMP JUMPDEST PUSH0 PUSH1 0x20 DUP3 ADD SWAP1 POP DUP2 DUP2 SUB PUSH0 DUP4 ADD MSTORE PUSH2 0x3E9B DUP2 PUSH2 0x3E62 JUMP JUMPDEST SWAP1 POP SWAP2 SWAP1 POP JUMP JUMPDEST PUSH32 0x526573756C74206E6F7420726561647920796574000000000000000000000000 PUSH0 DUP3 ADD MSTORE POP JUMP JUMPDEST PUSH0 PUSH2 0x3ED6 PUSH1 0x14 DUP4 PUSH2 0x3E2A JUMP JUMPDEST SWAP2 POP PUSH2 0x3EE1 DUP3 PUSH2 0x3EA2 JUMP JUMPDEST PUSH1 0x20 DUP3 ADD SWAP1 POP SWAP2 SWAP1 POP JUMP JUMPDEST PUSH0 PUSH1 0x20 DUP3 ADD SWAP1 POP DUP2 DUP2 SUB PUSH0 DUP4 ADD MSTORE PUSH2 0x3F03 DUP2 PUSH2 0x3ECA JUMP JUMPDEST SWAP1 POP SWAP2 SWAP1 POP JUMP JUMPDEST PUSH32 0x596F7520617265206E6F7420746865207469636B6574206F776E657200000000 PUSH0 DUP3 ADD MSTORE POP JUMP JUMPDEST PUSH0 PUSH2 0x3F3E PUSH1 0x1C DUP4 PUSH2 0x3E2A JUMP JUMPDEST SWAP2 POP PUSH2 0x3F49 DUP3 PUSH2 0x3F0A JUMP JUMPDEST PUSH1 0x20 DUP3 ADD SWAP1 POP SWAP2 SWAP1 POP JUMP JUMPDEST PUSH0 PUSH1 0x20 DUP3 ADD SWAP1 POP DUP2 DUP2 SUB PUSH0 DUP4 ADD MSTORE PUSH2 0x3F6B DUP2 PUSH2 0x3F32 JUMP JUMPDEST SWAP1 POP SWAP2 SWAP1 POP JUMP JUMPDEST PUSH32 0x52657761726420616C726561647920636C61696D656400000000000000000000 PUSH0 DUP3 ADD MSTORE POP JUMP JUMPDEST PUSH0 PUSH2 0x3FA6 PUSH1 0x16 DUP4 PUSH2 0x3E2A JUMP JUMPDEST SWAP2 POP PUSH2 0x3FB1 DUP3 PUSH2 0x3F72 JUMP JUMPDEST PUSH1 0x20 DUP3 ADD SWAP1 POP SWAP2 SWAP1 POP JUMP JUMPDEST PUSH0 PUSH1 0x20 DUP3 ADD SWAP1 POP DUP2 DUP2 SUB PUSH0 DUP4 ADD MSTORE PUSH2 0x3FD3 DUP2 PUSH2 0x3F9A JUMP JUMPDEST SWAP1 POP SWAP2 SWAP1 POP JUMP JUMPDEST PUSH32 0x4E487B7100000000000000000000000000000000000000000000000000000000 PUSH0 MSTORE PUSH1 0x11 PUSH1 0x4 MSTORE PUSH1 0x24 PUSH0 REVERT JUMPDEST PUSH0 PUSH2 0x4011 DUP3 PUSH2 0x33AF JUMP JUMPDEST SWAP2 POP PUSH2 0x401C DUP4 PUSH2 0x33AF JUMP JUMPDEST SWAP3 POP DUP3 DUP3 MUL PUSH2 0x402A DUP2 PUSH2 0x33AF JUMP JUMPDEST SWAP2 POP DUP3 DUP3 DIV DUP5 EQ DUP4 ISZERO OR PUSH2 0x4041 JUMPI PUSH2 0x4040 PUSH2 0x3FDA JUMP JUMPDEST JUMPDEST POP SWAP3 SWAP2 POP POP JUMP JUMPDEST PUSH32 0x4E487B7100000000000000000000000000000000000000000000000000000000 PUSH0 MSTORE PUSH1 0x12 PUSH1 0x4 MSTORE PUSH1 0x24 PUSH0 REVERT JUMPDEST PUSH0 PUSH2 0x407F DUP3 PUSH2 0x33AF JUMP JUMPDEST SWAP2 POP PUSH2 0x408A DUP4 PUSH2 0x33AF JUMP JUMPDEST SWAP3 POP DUP3 PUSH2 0x409A JUMPI PUSH2 0x4099 PUSH2 0x4048 JUMP JUMPDEST JUMPDEST DUP3 DUP3 DIV SWAP1 POP SWAP3 SWAP2 POP POP JUMP JUMPDEST PUSH32 0x536F7272792C2074686973207469636B657420646964206E6F742077696E0000 PUSH0 DUP3 ADD MSTORE POP JUMP JUMPDEST PUSH0 PUSH2 0x40D9 PUSH1 0x1E DUP4 PUSH2 0x3E2A JUMP JUMPDEST SWAP2 POP PUSH2 0x40E4 DUP3 PUSH2 0x40A5 JUMP JUMPDEST PUSH1 0x20 DUP3 ADD SWAP1 POP SWAP2 SWAP1 POP JUMP JUMPDEST PUSH0 PUSH1 0x20 DUP3 ADD SWAP1 POP DUP2 DUP2 SUB PUSH0 DUP4 ADD MSTORE PUSH2 0x4106 DUP2 PUSH2 0x40CD JUMP JUMPDEST SWAP1 POP SWAP2 SWAP1 POP JUMP JUMPDEST PUSH32 0x52657761726420616D6F756E74206973207A65726F0000000000000000000000 PUSH0 DUP3 ADD MSTORE POP JUMP JUMPDEST PUSH0 PUSH2 0x4141 PUSH1 0x15 DUP4 PUSH2 0x3E2A JUMP JUMPDEST SWAP2 POP PUSH2 0x414C DUP3 PUSH2 0x410D JUMP JUMPDEST PUSH1 0x20 DUP3 ADD SWAP1 POP SWAP2 SWAP1 POP JUMP JUMPDEST PUSH0 PUSH1 0x20 DUP3 ADD SWAP1 POP DUP2 DUP2 SUB PUSH0 DUP4 ADD MSTORE PUSH2 0x416E DUP2 PUSH2 0x4135 JUMP JUMPDEST SWAP1 POP SWAP2 SWAP1 POP JUMP JUMPDEST PUSH32 0x436F6E74726163742068617320696E73756666696369656E742062616C616E63 PUSH0 DUP3 ADD MSTORE PUSH32 0x6500000000000000000000000000000000000000000000000000000000000000 PUSH1 0x20 DUP3 ADD MSTORE POP JUMP JUMPDEST PUSH0 PUSH2 0x41CF PUSH1 0x21 DUP4 PUSH2 0x3E2A JUMP JUMPDEST SWAP2 POP PUSH2 0x41DA DUP3 PUSH2 0x4175 JUMP JUMPDEST PUSH1 0x40 DUP3 ADD SWAP1 POP SWAP2 SWAP1 POP JUMP JUMPDEST PUSH0 PUSH1 0x20 DUP3 ADD SWAP1 POP DUP2 DUP2 SUB PUSH0 DUP4 ADD MSTORE PUSH2 0x41FC DUP2 PUSH2 0x41C3 JUMP JUMPDEST SWAP1 POP SWAP2 SWAP1 POP JUMP JUMPDEST PUSH0 PUSH1 0x40 DUP3 ADD SWAP1 POP PUSH2 0x4216 PUSH0 DUP4 ADD DUP6 PUSH2 0x39A8 JUMP JUMPDEST PUSH2 0x4223 PUSH1 0x20 DUP4 ADD DUP5 PUSH2 0x39A8 JUMP JUMPDEST SWAP4 SWAP3 POP POP POP JUMP JUMPDEST PUSH32 0x4E6F206C6F747465727900000000000000000000000000000000000000000000 PUSH0 DUP3 ADD MSTORE POP JUMP JUMPDEST PUSH0 PUSH2 0x425E PUSH1 0xA DUP4 PUSH2 0x3E2A JUMP JUMPDEST SWAP2 POP PUSH2 0x4269 DUP3 PUSH2 0x422A JUMP JUMPDEST PUSH1 0x20 DUP3 ADD SWAP1 POP SWAP2 SWAP1 POP JUMP JUMPDEST PUSH0 PUSH1 0x20 DUP3 ADD SWAP1 POP DUP2 DUP2 SUB PUSH0 DUP4 ADD MSTORE PUSH2 0x428B DUP2 PUSH2 0x4252 JUMP JUMPDEST SWAP1 POP SWAP2 SWAP1 POP JUMP JUMPDEST PUSH0 PUSH2 0x429C DUP3 PUSH2 0x33C7 JUMP JUMPDEST SWAP2 POP PUSH2 0x42A7 DUP4 PUSH2 0x33C7 JUMP JUMPDEST SWAP3 POP DUP3 DUP3 SUB SWAP1 POP PUSH1 0xFF DUP2 GT ISZERO PUSH2 0x42C0 JUMPI PUSH2 0x42BF PUSH2 0x3FDA JUMP JUMPDEST JUMPDEST SWAP3 SWAP2 POP POP JUMP JUMPDEST PUSH32 0x4E487B7100000000000000000000000000000000000000000000000000000000 PUSH0 MSTORE PUSH1 0x22 PUSH1 0x4 MSTORE PUSH1 0x24 PUSH0 REVERT JUMPDEST PUSH0 PUSH1 0x2 DUP3 DIV SWAP1 POP PUSH1 0x1 DUP3 AND DUP1 PUSH2 0x430A JUMPI PUSH1 0x7F DUP3 AND SWAP2 POP JUMPDEST PUSH1 0x20 DUP3 LT DUP2 SUB PUSH2 0x431D JUMPI PUSH2 0x431C PUSH2 0x42C6 JUMP JUMPDEST JUMPDEST POP SWAP2 SWAP1 POP JUMP JUMPDEST PUSH32 0x5065726D697373696F6E20726571756972656400000000000000000000000000 PUSH0 DUP3 ADD MSTORE POP JUMP JUMPDEST PUSH0 PUSH2 0x4357 PUSH1 0x13 DUP4 PUSH2 0x3E2A JUMP JUMPDEST SWAP2 POP PUSH2 0x4362 DUP3 PUSH2 0x4323 JUMP JUMPDEST PUSH1 0x20 DUP3 ADD SWAP1 POP SWAP2 SWAP1 POP JUMP JUMPDEST PUSH0 PUSH1 0x20 DUP3 ADD SWAP1 POP DUP2 DUP2 SUB PUSH0 DUP4 ADD MSTORE PUSH2 0x4384 DUP2 PUSH2 0x434B JUMP JUMPDEST SWAP1 POP SWAP2 SWAP1 POP JUMP JUMPDEST PUSH32 0x4D7573742062652070726F706F736564206F776E657200000000000000000000 PUSH0 DUP3 ADD MSTORE POP JUMP JUMPDEST PUSH0 PUSH2 0x43BF PUSH1 0x16 DUP4 PUSH2 0x3E2A JUMP JUMPDEST SWAP2 POP PUSH2 0x43CA DUP3 PUSH2 0x438B JUMP JUMPDEST PUSH1 0x20 DUP3 ADD SWAP1 POP SWAP2 SWAP1 POP JUMP JUMPDEST PUSH0 PUSH1 0x20 DUP3 ADD SWAP1 POP DUP2 DUP2 SUB PUSH0 DUP4 ADD MSTORE PUSH2 0x43EC DUP2 PUSH2 0x43B3 JUMP JUMPDEST SWAP1 POP SWAP2 SWAP1 POP JUMP JUMPDEST PUSH0 PUSH1 0x60 DUP3 ADD SWAP1 POP PUSH2 0x4406 PUSH0 DUP4 ADD DUP7 PUSH2 0x39A8 JUMP JUMPDEST PUSH2 0x4413 PUSH1 0x20 DUP4 ADD DUP6 PUSH2 0x39A8 JUMP JUMPDEST PUSH2 0x4420 PUSH1 0x40 DUP4 ADD DUP5 PUSH2 0x39A8 JUMP JUMPDEST SWAP5 SWAP4 POP POP POP POP JUMP JUMPDEST PUSH32 0x57726F6E67207072696365000000000000000000000000000000000000000000 PUSH0 DUP3 ADD MSTORE POP JUMP JUMPDEST PUSH0 PUSH2 0x445C PUSH1 0xB DUP4 PUSH2 0x3E2A JUMP JUMPDEST SWAP2 POP PUSH2 0x4467 DUP3 PUSH2 0x4428 JUMP JUMPDEST PUSH1 0x20 DUP3 ADD SWAP1 POP SWAP2 SWAP1 POP JUMP JUMPDEST PUSH0 PUSH1 0x20 DUP3 ADD SWAP1 POP DUP2 DUP2 SUB PUSH0 DUP4 ADD MSTORE PUSH2 0x4489 DUP2 PUSH2 0x4450 JUMP JUMPDEST SWAP1 POP SWAP2 SWAP1 POP JUMP JUMPDEST PUSH32 0x4C6F747465727920696E61637469766500000000000000000000000000000000 PUSH0 DUP3 ADD MSTORE POP JUMP JUMPDEST PUSH0 PUSH2 0x44C4 PUSH1 0x10 DUP4 PUSH2 0x3E2A JUMP JUMPDEST SWAP2 POP PUSH2 0x44CF DUP3 PUSH2 0x4490 JUMP JUMPDEST PUSH1 0x20 DUP3 ADD SWAP1 POP SWAP2 SWAP1 POP JUMP JUMPDEST PUSH0 PUSH1 0x20 DUP3 ADD SWAP1 POP DUP2 DUP2 SUB PUSH0 DUP4 ADD MSTORE PUSH2 0x44F1 DUP2 PUSH2 0x44B8 JUMP JUMPDEST SWAP1 POP SWAP2 SWAP1 POP JUMP JUMPDEST PUSH32 0x496E76616C6964206E756D626572730000000000000000000000000000000000 PUSH0 DUP3 ADD MSTORE POP JUMP JUMPDEST PUSH0 PUSH2 0x452C PUSH1 0xF DUP4 PUSH2 0x3E2A JUMP JUMPDEST SWAP2 POP PUSH2 0x4537 DUP3 PUSH2 0x44F8 JUMP JUMPDEST PUSH1 0x20 DUP3 ADD SWAP1 POP SWAP2 SWAP1 POP JUMP JUMPDEST PUSH0 PUSH1 0x20 DUP3 ADD SWAP1 POP DUP2 DUP2 SUB PUSH0 DUP4 ADD MSTORE PUSH2 0x4559 DUP2 PUSH2 0x4520 JUMP JUMPDEST SWAP1 POP SWAP2 SWAP1 POP JUMP JUMPDEST PUSH32 0x4475706C696361746564206E756D626572730000000000000000000000000000 PUSH0 DUP3 ADD MSTORE POP JUMP JUMPDEST PUSH0 PUSH2 0x4594 PUSH1 0x12 DUP4 PUSH2 0x3E2A JUMP JUMPDEST SWAP2 POP PUSH2 0x459F DUP3 PUSH2 0x4560 JUMP JUMPDEST PUSH1 0x20 DUP3 ADD SWAP1 POP SWAP2 SWAP1 POP JUMP JUMPDEST PUSH0 PUSH1 0x20 DUP3 ADD SWAP1 POP DUP2 DUP2 SUB PUSH0 DUP4 ADD MSTORE PUSH2 0x45C1 DUP2 PUSH2 0x4588 JUMP JUMPDEST SWAP1 POP SWAP2 SWAP1 POP JUMP JUMPDEST PUSH0 PUSH2 0x45D2 DUP3 PUSH2 0x33AF JUMP JUMPDEST SWAP2 POP PUSH2 0x45DD DUP4 PUSH2 0x33AF JUMP JUMPDEST SWAP3 POP DUP3 DUP3 SUB SWAP1 POP DUP2 DUP2 GT ISZERO PUSH2 0x45F5 JUMPI PUSH2 0x45F4 PUSH2 0x3FDA JUMP JUMPDEST JUMPDEST SWAP3 SWAP2 POP POP JUMP JUMPDEST PUSH32 0x4C6F747465727920636C6F736564000000000000000000000000000000000000 PUSH0 DUP3 ADD MSTORE POP JUMP JUMPDEST PUSH0 PUSH2 0x462F PUSH1 0xE DUP4 PUSH2 0x3E2A JUMP JUMPDEST SWAP2 POP PUSH2 0x463A DUP3 PUSH2 0x45FB JUMP JUMPDEST PUSH1 0x20 DUP3 ADD SWAP1 POP SWAP2 SWAP1 POP JUMP JUMPDEST PUSH0 PUSH1 0x20 DUP3 ADD SWAP1 POP DUP2 DUP2 SUB PUSH0 DUP4 ADD MSTORE PUSH2 0x465C DUP2 PUSH2 0x4623 JUMP JUMPDEST SWAP1 POP SWAP2 SWAP1 POP JUMP JUMPDEST PUSH0 DUP2 SWAP1 POP SWAP3 SWAP2 POP POP JUMP JUMPDEST PUSH2 0x4676 DUP2 PUSH2 0x33C7 JUMP JUMPDEST DUP3 MSTORE POP POP JUMP JUMPDEST PUSH0 PUSH2 0x4687 DUP4 DUP4 PUSH2 0x466D JUMP JUMPDEST PUSH1 0x20 DUP4 ADD SWAP1 POP SWAP3 SWAP2 POP POP JUMP JUMPDEST PUSH0 PUSH2 0x469D DUP3 PUSH2 0x3450 JUMP JUMPDEST PUSH2 0x46A7 DUP2 DUP6 PUSH2 0x4663 JUMP JUMPDEST SWAP4 POP PUSH2 0x46B2 DUP4 PUSH2 0x346A JUMP JUMPDEST DUP1 PUSH0 JUMPDEST DUP4 DUP2 LT ISZERO PUSH2 0x46E2 JUMPI DUP2 MLOAD PUSH2 0x46C9 DUP9 DUP3 PUSH2 0x467C JUMP JUMPDEST SWAP8 POP PUSH2 0x46D4 DUP4 PUSH2 0x349F JUMP JUMPDEST SWAP3 POP POP PUSH1 0x1 DUP2 ADD SWAP1 POP PUSH2 0x46B5 JUMP JUMPDEST POP DUP6 SWAP4 POP POP POP POP SWAP3 SWAP2 POP POP JUMP JUMPDEST PUSH0 PUSH2 0x46FA DUP3 DUP5 PUSH2 0x4693 JUMP JUMPDEST SWAP2 POP DUP2 SWAP1 POP SWAP3 SWAP2 POP POP JUMP JUMPDEST PUSH0 PUSH2 0x470F DUP3 PUSH2 0x33C7 JUMP JUMPDEST SWAP2 POP PUSH1 0xFF DUP3 SUB PUSH2 0x4722 JUMPI PUSH2 0x4721 PUSH2 0x3FDA JUMP JUMPDEST JUMPDEST PUSH1 0x1 DUP3 ADD SWAP1 POP SWAP2 SWAP1 POP JUMP JUMPDEST PUSH0 PUSH2 0x4737 DUP3 PUSH2 0x33AF JUMP JUMPDEST SWAP2 POP PUSH2 0x4742 DUP4 PUSH2 0x33AF JUMP JUMPDEST SWAP3 POP DUP3 DUP3 ADD SWAP1 POP DUP1 DUP3 GT ISZERO PUSH2 0x475A JUMPI PUSH2 0x4759 PUSH2 0x3FDA JUMP JUMPDEST JUMPDEST SWAP3 SWAP2 POP POP JUMP JUMPDEST PUSH0 DUP2 SWAP1 POP DUP2 PUSH0 MSTORE PUSH1 0x20 PUSH0 KECCAK256 SWAP1 POP SWAP2 SWAP1 POP JUMP JUMPDEST PUSH0 PUSH1 0x20 PUSH1 0x1F DUP4 ADD DIV SWAP1 POP SWAP2 SWAP1 POP JUMP JUMPDEST PUSH0 DUP3 DUP3 SHL SWAP1 POP SWAP3 SWAP2 POP POP JUMP JUMPDEST PUSH0 PUSH1 0x8 DUP4 MUL PUSH2 0x47BC PUSH32 0xFFFFFFFFFFFFFFFFFFFFFFFFFFFFFFFFFFFFFFFFFFFFFFFFFFFFFFFFFFFFFFFF DUP3 PUSH2 0x4781 JUMP JUMPDEST PUSH2 0x47C6 DUP7 DUP4 PUSH2 0x4781 JUMP JUMPDEST SWAP6 POP DUP1 NOT DUP5 AND SWAP4 POP DUP1 DUP7 AND DUP5 OR SWAP3 POP POP POP SWAP4 SWAP3 POP POP POP JUMP JUMPDEST PUSH0 PUSH2 0x47F8 PUSH2 0x47F3 PUSH2 0x47EE DUP5 PUSH2 0x33AF JUMP JUMPDEST PUSH2 0x3BC7 JUMP JUMPDEST PUSH2 0x33AF JUMP JUMPDEST SWAP1 POP SWAP2 SWAP1 POP JUMP JUMPDEST PUSH0 DUP2 SWAP1 POP SWAP2 SWAP1 POP JUMP JUMPDEST PUSH2 0x4811 DUP4 PUSH2 0x47DE JUMP JUMPDEST PUSH2 0x4825 PUSH2 0x481D DUP3 PUSH2 0x47FF JUMP JUMPDEST DUP5 DUP5 SLOAD PUSH2 0x478D JUMP JUMPDEST DUP3 SSTORE POP POP POP POP JUMP JUMPDEST PUSH0 PUSH0 SWAP1 POP SWAP1 JUMP JUMPDEST PUSH2 0x483C PUSH2 0x482D JUMP JUMPDEST PUSH2 0x4847 DUP2 DUP5 DUP5 PUSH2 0x4808 JUMP JUMPDEST POP POP POP JUMP JUMPDEST JUMPDEST DUP2 DUP2 LT ISZERO PUSH2 0x486A JUMPI PUSH2 0x485F PUSH0 DUP3 PUSH2 0x4834 JUMP JUMPDEST PUSH1 0x1 DUP2 ADD SWAP1 POP PUSH2 0x484D JUMP JUMPDEST POP POP JUMP JUMPDEST PUSH1 0x1F DUP3 GT ISZERO PUSH2 0x48AF JUMPI PUSH2 0x4880 DUP2 PUSH2 0x4760 JUMP JUMPDEST PUSH2 0x4889 DUP5 PUSH2 0x4772 JUMP JUMPDEST DUP2 ADD PUSH1 0x20 DUP6 LT ISZERO PUSH2 0x4898 JUMPI DUP2 SWAP1 POP JUMPDEST PUSH2 0x48AC PUSH2 0x48A4 DUP6 PUSH2 0x4772 JUMP JUMPDEST DUP4 ADD DUP3 PUSH2 0x484C JUMP JUMPDEST POP POP JUMPDEST POP POP POP JUMP JUMPDEST PUSH0 DUP3 DUP3 SHR SWAP1 POP SWAP3 SWAP2 POP POP JUMP JUMPDEST PUSH0 PUSH2 0x48CF PUSH0 NOT DUP5 PUSH1 0x8 MUL PUSH2 0x48B4 JUMP JUMPDEST NOT DUP1 DUP4 AND SWAP2 POP POP SWAP3 SWAP2 POP POP JUMP JUMPDEST PUSH0 PUSH2 0x48E7 DUP4 DUP4 PUSH2 0x48C0 JUMP JUMPDEST SWAP2 POP DUP3 PUSH1 0x2 MUL DUP3 OR SWAP1 POP SWAP3 SWAP2 POP POP JUMP JUMPDEST PUSH2 0x4900 DUP3 PUSH2 0x37B5 JUMP JUMPDEST PUSH8 0xFFFFFFFFFFFFFFFF DUP2 GT ISZERO PUSH2 0x4919 JUMPI PUSH2 0x4918 PUSH2 0x3215 JUMP JUMPDEST JUMPDEST PUSH2 0x4923 DUP3 SLOAD PUSH2 0x42F3 JUMP JUMPDEST PUSH2 0x492E DUP3 DUP3 DUP6 PUSH2 0x486E JUMP JUMPDEST PUSH0 PUSH1 0x20 SWAP1 POP PUSH1 0x1F DUP4 GT PUSH1 0x1 DUP2 EQ PUSH2 0x495F JUMPI PUSH0 DUP5 ISZERO PUSH2 0x494D JUMPI DUP3 DUP8 ADD MLOAD SWAP1 POP JUMPDEST PUSH2 0x4957 DUP6 DUP3 PUSH2 0x48DC JUMP JUMPDEST DUP7 SSTORE POP PUSH2 0x49BE JUMP JUMPDEST PUSH1 0x1F NOT DUP5 AND PUSH2 0x496D DUP7 PUSH2 0x4760 JUMP JUMPDEST PUSH0 JUMPDEST DUP3 DUP2 LT ISZERO PUSH2 0x4994 JUMPI DUP5 DUP10 ADD MLOAD DUP3 SSTORE PUSH1 0x1 DUP3 ADD SWAP2 POP PUSH1 0x20 DUP6 ADD SWAP5 POP PUSH1 0x20 DUP2 ADD SWAP1 POP PUSH2 0x496F JUMP JUMPDEST DUP7 DUP4 LT ISZERO PUSH2 0x49B1 JUMPI DUP5 DUP10 ADD MLOAD PUSH2 0x49AD PUSH1 0x1F DUP10 AND DUP3 PUSH2 0x48C0 JUMP JUMPDEST DUP4 SSTORE POP JUMPDEST PUSH1 0x1 PUSH1 0x2 DUP9 MUL ADD DUP9 SSTORE POP POP POP JUMPDEST POP POP POP POP POP POP JUMP JUMPDEST PUSH32 0x496E76616C6964206C6F74746572792069640000000000000000000000000000 PUSH0 DUP3 ADD MSTORE POP JUMP JUMPDEST PUSH0 PUSH2 0x49FA PUSH1 0x12 DUP4 PUSH2 0x3E2A JUMP JUMPDEST SWAP2 POP PUSH2 0x4A05 DUP3 PUSH2 0x49C6 JUMP JUMPDEST PUSH1 0x20 DUP3 ADD SWAP1 POP SWAP2 SWAP1 POP JUMP JUMPDEST PUSH0 PUSH1 0x20 DUP3 ADD SWAP1 POP DUP2 DUP2 SUB PUSH0 DUP4 ADD MSTORE PUSH2 0x4A27 DUP2 PUSH2 0x49EE JUMP JUMPDEST SWAP1 POP SWAP2 SWAP1 POP JUMP JUMPDEST PUSH32 0x496E76616C696420726573756C74206C656E6774680000000000000000000000 PUSH0 DUP3 ADD MSTORE POP JUMP JUMPDEST PUSH0 PUSH2 0x4A62 PUSH1 0x15 DUP4 PUSH2 0x3E2A JUMP JUMPDEST SWAP2 POP PUSH2 0x4A6D DUP3 PUSH2 0x4A2E JUMP JUMPDEST PUSH1 0x20 DUP3 ADD SWAP1 POP SWAP2 SWAP1 POP JUMP JUMPDEST PUSH0 PUSH1 0x20 DUP3 ADD SWAP1 POP DUP2 DUP2 SUB PUSH0 DUP4 ADD MSTORE PUSH2 0x4A8F DUP2 PUSH2 0x4A56 JUMP JUMPDEST SWAP1 POP SWAP2 SWAP1 POP JUMP JUMPDEST PUSH32 0x4E487B7100000000000000000000000000000000000000000000000000000000 PUSH0 MSTORE PUSH1 0x32 PUSH1 0x4 MSTORE PUSH1 0x24 PUSH0 REVERT JUMPDEST PUSH32 0x556E6B6E6F776E20726571756573740000000000000000000000000000000000 PUSH0 DUP3 ADD MSTORE POP JUMP JUMPDEST PUSH0 PUSH2 0x4AF7 PUSH1 0xF DUP4 PUSH2 0x3E2A JUMP JUMPDEST SWAP2 POP PUSH2 0x4B02 DUP3 PUSH2 0x4AC3 JUMP JUMPDEST PUSH1 0x20 DUP3 ADD SWAP1 POP SWAP2 SWAP1 POP JUMP JUMPDEST PUSH0 PUSH1 0x20 DUP3 ADD SWAP1 POP DUP2 DUP2 SUB PUSH0 DUP4 ADD MSTORE PUSH2 0x4B24 DUP2 PUSH2 0x4AEB JUMP JUMPDEST SWAP1 POP SWAP2 SWAP1 POP JUMP JUMPDEST PUSH0 PUSH2 0x4B35 DUP3 PUSH2 0x33AF JUMP JUMPDEST SWAP2 POP PUSH2 0x4B40 DUP4 PUSH2 0x33AF JUMP JUMPDEST SWAP3 POP DUP3 PUSH2 0x4B50 JUMPI PUSH2 0x4B4F PUSH2 0x4048 JUMP JUMPDEST JUMPDEST DUP3 DUP3 MOD SWAP1 POP SWAP3 SWAP2 POP POP JUMP JUMPDEST PUSH0 PUSH2 0x4B65 DUP3 PUSH2 0x33C7 JUMP JUMPDEST SWAP2 POP PUSH2 0x4B70 DUP4 PUSH2 0x33C7 JUMP JUMPDEST SWAP3 POP DUP3 DUP3 ADD SWAP1 POP PUSH1 0xFF DUP2 GT ISZERO PUSH2 0x4B89 JUMPI PUSH2 0x4B88 PUSH2 0x3FDA JUMP JUMPDEST JUMPDEST SWAP3 SWAP2 POP POP JUMP JUMPDEST PUSH32 0x416C726561647920726571756573746564000000000000000000000000000000 PUSH0 DUP3 ADD MSTORE POP JUMP JUMPDEST PUSH0 PUSH2 0x4BC3 PUSH1 0x11 DUP4 PUSH2 0x3E2A JUMP JUMPDEST SWAP2 POP PUSH2 0x4BCE DUP3 PUSH2 0x4B8F JUMP JUMPDEST PUSH1 0x20 DUP3 ADD SWAP1 POP SWAP2 SWAP1 POP JUMP JUMPDEST PUSH0 PUSH1 0x20 DUP3 ADD SWAP1 POP DUP2 DUP2 SUB PUSH0 DUP4 ADD MSTORE PUSH2 0x4BF0 DUP2 PUSH2 0x4BB7 JUMP JUMPDEST SWAP1 POP SWAP2 SWAP1 POP JUMP JUMPDEST PUSH32 0x496E76616C6964206C6F74746572790000000000000000000000000000000000 PUSH0 DUP3 ADD MSTORE POP JUMP JUMPDEST PUSH0 PUSH2 0x4C2B PUSH1 0xF DUP4 PUSH2 0x3E2A JUMP JUMPDEST SWAP2 POP PUSH2 0x4C36 DUP3 PUSH2 0x4BF7 JUMP JUMPDEST PUSH1 0x20 DUP3 ADD SWAP1 POP SWAP2 SWAP1 POP JUMP JUMPDEST PUSH0 PUSH1 0x20 DUP3 ADD SWAP1 POP DUP2 DUP2 SUB PUSH0 DUP4 ADD MSTORE PUSH2 0x4C58 DUP2 PUSH2 0x4C1F JUMP JUMPDEST SWAP1 POP SWAP2 SWAP1 POP JUMP JUMPDEST PUSH2 0x4C68 DUP2 PUSH2 0x3784 JUMP JUMPDEST DUP3 MSTORE POP POP JUMP JUMPDEST PUSH2 0x4C77 DUP2 PUSH2 0x3C3B JUMP JUMPDEST DUP3 MSTORE POP POP JUMP JUMPDEST PUSH2 0x4C86 DUP2 PUSH2 0x36C3 JUMP JUMPDEST DUP3 MSTORE POP POP JUMP JUMPDEST PUSH0 PUSH1 0xC0 DUP4 ADD PUSH0 DUP4 ADD MLOAD PUSH2 0x4CA1 PUSH0 DUP7 ADD DUP3 PUSH2 0x4C5F JUMP JUMPDEST POP PUSH1 0x20 DUP4 ADD MLOAD PUSH2 0x4CB4 PUSH1 0x20 DUP7 ADD DUP3 PUSH2 0x3824 JUMP JUMPDEST POP PUSH1 0x40 DUP4 ADD MLOAD PUSH2 0x4CC7 PUSH1 0x40 DUP7 ADD DUP3 PUSH2 0x4C6E JUMP JUMPDEST POP PUSH1 0x60 DUP4 ADD MLOAD PUSH2 0x4CDA PUSH1 0x60 DUP7 ADD DUP3 PUSH2 0x4C7D JUMP JUMPDEST POP PUSH1 0x80 DUP4 ADD MLOAD PUSH2 0x4CED PUSH1 0x80 DUP7 ADD DUP3 PUSH2 0x4C7D JUMP JUMPDEST POP PUSH1 0xA0 DUP4 ADD MLOAD DUP5 DUP3 SUB PUSH1 0xA0 DUP7 ADD MSTORE PUSH2 0x4D05 DUP3 DUP3 PUSH2 0x37DD JUMP JUMPDEST SWAP2 POP POP DUP1 SWAP2 POP POP SWAP3 SWAP2 POP POP JUMP JUMPDEST PUSH0 PUSH1 0x20 DUP3 ADD SWAP1 POP DUP2 DUP2 SUB PUSH0 DUP4 ADD MSTORE PUSH2 0x4D2A DUP2 DUP5 PUSH2 0x4C8C JUMP JUMPDEST SWAP1 POP SWAP3 SWAP2 POP POP JUMP JUMPDEST PUSH0 DUP2 MLOAD SWAP1 POP PUSH2 0x4D40 DUP2 PUSH2 0x35DF JUMP JUMPDEST SWAP3 SWAP2 POP POP JUMP JUMPDEST PUSH0 PUSH1 0x20 DUP3 DUP5 SUB SLT ISZERO PUSH2 0x4D5B JUMPI PUSH2 0x4D5A PUSH2 0x31F5 JUMP JUMPDEST JUMPDEST PUSH0 PUSH2 0x4D68 DUP5 DUP3 DUP6 ADD PUSH2 0x4D32 JUMP JUMPDEST SWAP2 POP POP SWAP3 SWAP2 POP POP JUMP JUMPDEST PUSH32 0x4F6E6C792063616C6C61626C65206279206F776E657200000000000000000000 PUSH0 DUP3 ADD MSTORE POP JUMP JUMPDEST PUSH0 PUSH2 0x4DA5 PUSH1 0x16 DUP4 PUSH2 0x3E2A JUMP JUMPDEST SWAP2 POP PUSH2 0x4DB0 DUP3 PUSH2 0x4D71 JUMP JUMPDEST PUSH1 0x20 DUP3 ADD SWAP1 POP SWAP2 SWAP1 POP JUMP JUMPDEST PUSH0 PUSH1 0x20 DUP3 ADD SWAP1 POP DUP2 DUP2 SUB PUSH0 DUP4 ADD MSTORE PUSH2 0x4DD2 DUP2 PUSH2 0x4D99 JUMP JUMPDEST SWAP1 POP SWAP2 SWAP1 POP JUMP JUMPDEST PUSH32 0x43616E6E6F74207472616E7366657220746F2073656C66000000000000000000 PUSH0 DUP3 ADD MSTORE POP JUMP JUMPDEST PUSH0 PUSH2 0x4E0D PUSH1 0x17 DUP4 PUSH2 0x3E2A JUMP JUMPDEST SWAP2 POP PUSH2 0x4E18 DUP3 PUSH2 0x4DD9 JUMP JUMPDEST PUSH1 0x20 DUP3 ADD SWAP1 POP SWAP2 SWAP1 POP JUMP JUMPDEST PUSH0 PUSH1 0x20 DUP3 ADD SWAP1 POP DUP2 DUP2 SUB PUSH0 DUP4 ADD MSTORE PUSH2 0x4E3A DUP2 PUSH2 0x4E01 JUMP JUMPDEST SWAP1 POP SWAP2 SWAP1 POP JUMP JUMPDEST PUSH0 PUSH2 0x4E4B DUP3 PUSH2 0x33C7 JUMP JUMPDEST SWAP2 POP PUSH2 0x4E56 DUP4 PUSH2 0x33C7 JUMP JUMPDEST SWAP3 POP DUP3 PUSH2 0x4E66 JUMPI PUSH2 0x4E65 PUSH2 0x4048 JUMP JUMPDEST JUMPDEST DUP3 DUP3 DIV SWAP1 POP SWAP3 SWAP2 POP POP JUMP JUMPDEST PUSH0 PUSH2 0x4E7B DUP3 PUSH2 0x33C7 JUMP JUMPDEST SWAP2 POP PUSH0 DUP3 SUB PUSH2 0x4E8D JUMPI PUSH2 0x4E8C PUSH2 0x3FDA JUMP JUMPDEST JUMPDEST PUSH1 0x1 DUP3 SUB SWAP1 POP SWAP2 SWAP1 POP JUMP JUMPDEST PUSH1 0x20 DUP3 ADD PUSH0 DUP3 ADD MLOAD PUSH2 0x4EAC PUSH0 DUP6 ADD DUP3 PUSH2 0x3815 JUMP JUMPDEST POP POP POP POP JUMP JUMPDEST PUSH0 PUSH1 0x20 DUP3 ADD SWAP1 POP PUSH2 0x4EC5 PUSH0 DUP4 ADD DUP5 PUSH2 0x4E98 JUMP JUMPDEST SWAP3 SWAP2 POP POP JUMP INVALID LOG2 PUSH5 0x6970667358 0x22 SLT KECCAK256 CODESIZE 0xD9 DUP4 TSTORE EOFCREATE 0x32 SWAP10 0xCA PUSH15 0x1E1DBBFA4262D9447794D1DE8AED0 CALLER LOG1 ORIGIN DUP7 SGT 0x2E 0x25 POP PUSH5 0x736F6C6343 STOP ADDMOD 0x1F STOP CALLER "
		},
		"gasEstimates": {
			"creation": {
				"codeDepositCost": "4045000",
				"executionCost": "infinite",
				"totalCost": "infinite"
			},
			"external": {
				"acceptOwnership()": "54664",
				"activeNewLottery(bytes,bytes,uint256,uint8)": "infinite",
				"addOperator(address)": "27087",
				"buyTicket(bytes,bytes,uint8[])": "infinite",
				"callbackGasLimit()": "2600",
				"claimReward(bytes,bytes)": "infinite",
				"getLatestLottery()": "infinite",
				"getLotteryInfo(bytes)": "infinite",
				"getLotteryResult(bytes)": "infinite",
				"inactiveLottery(bytes)": "infinite",
				"keyHash()": "2492",
				"lotteries()": "4736",
				"lotteryRandomRequested(bytes)": "infinite",
				"lotterySettings(bytes)": "infinite",
				"operators(address)": "2923",
				"owner()": "2559",
				"rawFulfillRandomWords(uint256,uint256[])": "infinite",
				"requestConfirmations()": "2606",
				"requestIdToLotteryId(uint256)": "infinite",
				"s_subscriptionId()": "2448",
				"s_vrfCoordinator()": "infinite",
				"setCoordinator(address)": "infinite",
				"setResultForTesting(bytes,uint8[])": "infinite",
				"settingDefault(uint8)": "infinite",
				"transferOwnership(address)": "30759"
			},
			"internal": {
				"_containsPrefix(uint8[] memory,uint8,uint8)": "infinite",
				"_requestRandomWordsForLottery(bytes memory)": "infinite",
				"checkDuplicate(uint8[] memory,uint8)": "infinite",
				"compare2Arrays(uint8[] memory,uint8[] memory)": "infinite",
				"fulfillRandomWords(uint256,uint256[] calldata)": "infinite",
				"quickSort(uint8[] memory,uint8,uint8)": "infinite"
			}
		},
		"methodIdentifiers": {
			"acceptOwnership()": "79ba5097",
			"activeNewLottery(bytes,bytes,uint256,uint8)": "c6b13a1d",
			"addOperator(address)": "9870d7fe",
			"buyTicket(bytes,bytes,uint8[])": "91c798ad",
			"callbackGasLimit()": "24f74697",
			"claimReward(bytes,bytes)": "01221ce1",
			"getLatestLottery()": "6a574857",
			"getLotteryInfo(bytes)": "f26dbaf2",
			"getLotteryResult(bytes)": "0ecd4db4",
			"inactiveLottery(bytes)": "6decafdd",
			"keyHash()": "61728f39",
			"lotteries()": "07f90e5d",
			"lotteryRandomRequested(bytes)": "4417f52a",
			"lotterySettings(bytes)": "8fc9e5d6",
			"operators(address)": "13e7c9d8",
			"owner()": "8da5cb5b",
			"rawFulfillRandomWords(uint256,uint256[])": "1fe543e3",
			"requestConfirmations()": "b0fb162f",
			"requestIdToLotteryId(uint256)": "916f04ff",
			"s_subscriptionId()": "8ac00021",
			"s_vrfCoordinator()": "9eccacf6",
			"setCoordinator(address)": "8ea98117",
			"setResultForTesting(bytes,uint8[])": "e046b331",
			"settingDefault(uint8)": "2752ea0f",
			"transferOwnership(address)": "f2fde38b"
		}
	},
	"abi": [
		{
			"inputs": [
				{
					"internalType": "address",
					"name": "vrfCoordinator",
					"type": "address"
				},
				{
					"internalType": "bytes32",
					"name": "_keyHash",
					"type": "bytes32"
				},
				{
					"internalType": "uint256",
					"name": "_subscriptionId",
					"type": "uint256"
				}
			],
			"stateMutability": "nonpayable",
			"type": "constructor"
		},
		{
			"inputs": [
				{
					"internalType": "address",
					"name": "have",
					"type": "address"
				},
				{
					"internalType": "address",
					"name": "want",
					"type": "address"
				}
			],
			"name": "OnlyCoordinatorCanFulfill",
			"type": "error"
		},
		{
			"inputs": [
				{
					"internalType": "address",
					"name": "have",
					"type": "address"
				},
				{
					"internalType": "address",
					"name": "owner",
					"type": "address"
				},
				{
					"internalType": "address",
					"name": "coordinator",
					"type": "address"
				}
			],
			"name": "OnlyOwnerOrCoordinator",
			"type": "error"
		},
		{
			"inputs": [],
			"name": "ZeroAddress",
			"type": "error"
		},
		{
			"anonymous": false,
			"inputs": [
				{
					"indexed": false,
					"internalType": "address",
					"name": "vrfCoordinator",
					"type": "address"
				}
			],
			"name": "CoordinatorSet",
			"type": "event"
		},
		{
			"anonymous": false,
			"inputs": [
				{
					"indexed": true,
					"internalType": "address",
					"name": "from",
					"type": "address"
				},
				{
					"indexed": true,
					"internalType": "address",
					"name": "to",
					"type": "address"
				}
			],
			"name": "OwnershipTransferRequested",
			"type": "event"
		},
		{
			"anonymous": false,
			"inputs": [
				{
					"indexed": true,
					"internalType": "address",
					"name": "from",
					"type": "address"
				},
				{
					"indexed": true,
					"internalType": "address",
					"name": "to",
					"type": "address"
				}
			],
			"name": "OwnershipTransferred",
			"type": "event"
		},
		{
			"inputs": [],
			"name": "acceptOwnership",
			"outputs": [],
			"stateMutability": "nonpayable",
			"type": "function"
		},
		{
			"inputs": [
				{
					"internalType": "bytes",
					"name": "_idNew",
					"type": "bytes"
				},
				{
					"internalType": "bytes",
					"name": "_idOld",
					"type": "bytes"
				},
				{
					"internalType": "uint256",
					"name": "expired",
					"type": "uint256"
				},
				{
					"internalType": "uint8",
					"name": "types",
					"type": "uint8"
				}
			],
			"name": "activeNewLottery",
			"outputs": [],
			"stateMutability": "nonpayable",
			"type": "function"
		},
		{
			"inputs": [
				{
					"internalType": "address",
					"name": "_op",
					"type": "address"
				}
			],
			"name": "addOperator",
			"outputs": [],
			"stateMutability": "nonpayable",
			"type": "function"
		},
		{
			"inputs": [
				{
					"internalType": "bytes",
					"name": "_idLottery",
					"type": "bytes"
				},
				{
					"internalType": "bytes",
					"name": "_idTicket",
					"type": "bytes"
				},
				{
					"internalType": "uint8[]",
					"name": "numbers",
					"type": "uint8[]"
				}
			],
			"name": "buyTicket",
			"outputs": [],
			"stateMutability": "payable",
			"type": "function"
		},
		{
			"inputs": [],
			"name": "callbackGasLimit",
			"outputs": [
				{
					"internalType": "uint32",
					"name": "",
					"type": "uint32"
				}
			],
			"stateMutability": "view",
			"type": "function"
		},
		{
			"inputs": [
				{
					"internalType": "bytes",
					"name": "_idLottery",
					"type": "bytes"
				},
				{
					"internalType": "bytes",
					"name": "_idTicket",
					"type": "bytes"
				}
			],
			"name": "claimReward",
			"outputs": [],
			"stateMutability": "nonpayable",
			"type": "function"
		},
		{
			"inputs": [],
			"name": "getLatestLottery",
			"outputs": [
				{
					"components": [
						{
							"internalType": "bytes",
							"name": "previousId",
							"type": "bytes"
						},
						{
							"internalType": "bytes",
							"name": "id",
							"type": "bytes"
						},
						{
							"internalType": "uint8",
							"name": "index",
							"type": "uint8"
						},
						{
							"internalType": "bool",
							"name": "isActive",
							"type": "bool"
						},
						{
							"internalType": "uint256",
							"name": "totalBalances",
							"type": "uint256"
						},
						{
							"internalType": "uint256",
							"name": "remains",
							"type": "uint256"
						},
						{
							"internalType": "uint8[]",
							"name": "result",
							"type": "uint8[]"
						},
						{
							"internalType": "uint256",
							"name": "expired",
							"type": "uint256"
						},
						{
							"internalType": "uint8",
							"name": "types",
							"type": "uint8"
						}
					],
					"internalType": "struct Lottery.LotteryCycle",
					"name": "",
					"type": "tuple"
				}
			],
			"stateMutability": "view",
			"type": "function"
		},
		{
			"inputs": [
				{
					"internalType": "bytes",
					"name": "_id",
					"type": "bytes"
				}
			],
			"name": "getLotteryInfo",
			"outputs": [
				{
					"components": [
						{
							"internalType": "bytes",
							"name": "previousId",
							"type": "bytes"
						},
						{
							"internalType": "bytes",
							"name": "id",
							"type": "bytes"
						},
						{
							"internalType": "uint8",
							"name": "index",
							"type": "uint8"
						},
						{
							"internalType": "bool",
							"name": "isActive",
							"type": "bool"
						},
						{
							"internalType": "uint256",
							"name": "totalBalances",
							"type": "uint256"
						},
						{
							"internalType": "uint256",
							"name": "remains",
							"type": "uint256"
						},
						{
							"internalType": "uint8[]",
							"name": "result",
							"type": "uint8[]"
						},
						{
							"internalType": "uint256",
							"name": "expired",
							"type": "uint256"
						},
						{
							"internalType": "uint8",
							"name": "types",
							"type": "uint8"
						}
					],
					"internalType": "struct Lottery.LotteryCycle",
					"name": "",
					"type": "tuple"
				}
			],
			"stateMutability": "view",
			"type": "function"
		},
		{
			"inputs": [
				{
					"internalType": "bytes",
					"name": "_id",
					"type": "bytes"
				}
			],
			"name": "getLotteryResult",
			"outputs": [
				{
					"internalType": "uint8[]",
					"name": "",
					"type": "uint8[]"
				}
			],
			"stateMutability": "view",
			"type": "function"
		},
		{
			"inputs": [
				{
					"internalType": "bytes",
					"name": "_id",
					"type": "bytes"
				}
			],
			"name": "inactiveLottery",
			"outputs": [],
			"stateMutability": "nonpayable",
			"type": "function"
		},
		{
			"inputs": [],
			"name": "keyHash",
			"outputs": [
				{
					"internalType": "bytes32",
					"name": "",
					"type": "bytes32"
				}
			],
			"stateMutability": "view",
			"type": "function"
		},
		{
			"inputs": [],
			"name": "lotteries",
			"outputs": [
				{
					"internalType": "uint256",
					"name": "totalBalances",
					"type": "uint256"
				},
				{
					"internalType": "uint8",
					"name": "totalCylces",
					"type": "uint8"
				}
			],
			"stateMutability": "view",
			"type": "function"
		},
		{
			"inputs": [
				{
					"internalType": "bytes",
					"name": "",
					"type": "bytes"
				}
			],
			"name": "lotteryRandomRequested",
			"outputs": [
				{
					"internalType": "bool",
					"name": "",
					"type": "bool"
				}
			],
			"stateMutability": "view",
			"type": "function"
		},
		{
			"inputs": [
				{
					"internalType": "bytes",
					"name": "",
					"type": "bytes"
				}
			],
			"name": "lotterySettings",
			"outputs": [
				{
					"internalType": "uint8",
					"name": "numberSetting",
					"type": "uint8"
				},
				{
					"internalType": "uint8",
					"name": "maximunSetting",
					"type": "uint8"
				},
				{
					"internalType": "uint256",
					"name": "price",
					"type": "uint256"
				}
			],
			"stateMutability": "view",
			"type": "function"
		},
		{
			"inputs": [
				{
					"internalType": "address",
					"name": "",
					"type": "address"
				}
			],
			"name": "operators",
			"outputs": [
				{
					"internalType": "bool",
					"name": "",
					"type": "bool"
				}
			],
			"stateMutability": "view",
			"type": "function"
		},
		{
			"inputs": [],
			"name": "owner",
			"outputs": [
				{
					"internalType": "address",
					"name": "",
					"type": "address"
				}
			],
			"stateMutability": "view",
			"type": "function"
		},
		{
			"inputs": [
				{
					"internalType": "uint256",
					"name": "requestId",
					"type": "uint256"
				},
				{
					"internalType": "uint256[]",
					"name": "randomWords",
					"type": "uint256[]"
				}
			],
			"name": "rawFulfillRandomWords",
			"outputs": [],
			"stateMutability": "nonpayable",
			"type": "function"
		},
		{
			"inputs": [],
			"name": "requestConfirmations",
			"outputs": [
				{
					"internalType": "uint16",
					"name": "",
					"type": "uint16"
				}
			],
			"stateMutability": "view",
			"type": "function"
		},
		{
			"inputs": [
				{
					"internalType": "uint256",
					"name": "",
					"type": "uint256"
				}
			],
			"name": "requestIdToLotteryId",
			"outputs": [
				{
					"internalType": "bytes",
					"name": "",
					"type": "bytes"
				}
			],
			"stateMutability": "view",
			"type": "function"
		},
		{
			"inputs": [],
			"name": "s_subscriptionId",
			"outputs": [
				{
					"internalType": "uint256",
					"name": "",
					"type": "uint256"
				}
			],
			"stateMutability": "view",
			"type": "function"
		},
		{
			"inputs": [],
			"name": "s_vrfCoordinator",
			"outputs": [
				{
					"internalType": "contract IVRFCoordinatorV2Plus",
					"name": "",
					"type": "address"
				}
			],
			"stateMutability": "view",
			"type": "function"
		},
		{
			"inputs": [
				{
					"internalType": "address",
					"name": "_vrfCoordinator",
					"type": "address"
				}
			],
			"name": "setCoordinator",
			"outputs": [],
			"stateMutability": "nonpayable",
			"type": "function"
		},
		{
			"inputs": [
				{
					"internalType": "bytes",
					"name": "_id",
					"type": "bytes"
				},
				{
					"internalType": "uint8[]",
					"name": "_result",
					"type": "uint8[]"
				}
			],
			"name": "setResultForTesting",
			"outputs": [],
			"stateMutability": "nonpayable",
			"type": "function"
		},
		{
			"inputs": [
				{
					"internalType": "uint8",
					"name": "",
					"type": "uint8"
				}
			],
			"name": "settingDefault",
			"outputs": [
				{
					"internalType": "uint8",
					"name": "numberSetting",
					"type": "uint8"
				},
				{
					"internalType": "uint8",
					"name": "maximunSetting",
					"type": "uint8"
				},
				{
					"internalType": "uint256",
					"name": "price",
					"type": "uint256"
				}
			],
			"stateMutability": "view",
			"type": "function"
		},
		{
			"inputs": [
				{
					"internalType": "address",
					"name": "to",
					"type": "address"
				}
			],
			"name": "transferOwnership",
			"outputs": [],
			"stateMutability": "nonpayable",
			"type": "function"
		}
	]
}